:0300000002004CAF
:200008000000E2FBEAF2802C0000E0FBEAF08024E6B50202EBF62200E2B50202EBF22200DE
:20002800E0B50202EBF02230F6E0A88220F5D3EAC6F582228B822230F6E6A88220F5D980EE
:01004800CFE8
:0300A5000200490D
:030049000201258C
:2000A80053877F759850438E01438E0475D6FD75D780438E10D29922E582900001F0E0F59C
:2000C8009910990280FB22AFF0AE83E582900002F0EEA3F0EFA3F0900002E0FDA3E0FEA3E8
:2000E800E0FF8D828E838FF01202A9FC60230DBD00010E900002EDF0EEA3F0EFA3F08C82E5
:20010800C007C006C0051200C0D005D006D00780D1900002EDF0EEA3F0EFA3F022900005B7
:20012800E4F0A3F0900005E0FEA3E0FFC3EE9460EF94EA5015900005E0FEA3E0FF9000055A
:2001480074012EF0E43FA3F080DA1200A89002C975F0801200CF9002D875F0801200CF9059
:200168000007E4F0A3F0900007E0FEA3E0FFC3EE9430EF947550DF900007E0FEA3E0FF90EF
:0C018800000774012EF0E43FA3F080DAC1
:1602C900554152542039363030204F4B0D0A0050494E470D0A00DE
:2001940043BC400000E5BC30E5FB53BCDF85BD822243BC400000E5BC30E5FB53BCDFAFBD3D
:1001B4007E00ACBE7D00EC2EFCED3F8C82F58322EC
:2001C400900009E4F0A3F075BA8090FE01E0601C90FE01E4F0FEFF7D051EBEFF011FEE4F67
:2001E40070F7DDF5900009EEF0EFA3F075BA00759D0075A600759F00759E00900009E0FECF
:20020400A3E0FF1EBEFF011FEE4F70F722E58290000CF0759D00E0F5A690000BE0F59F7593
:200224009E007E007F001EBEFF011FEE4F70F722AF83E58290000DF0EFA3F090000DE0FE3B
:20024400A3E0FF9002DFE493FC740193FD1CBCFF011DEC4D70F71EBEFF011F90000DEEF024
:20026400EFA3F0EE4F70DC90000DEEF0EFA3F022AF83E58290000FF0EFA3F090000FE0FE29
:20028400A3E0FF9002E1E493FDDDFE1EBEFF011F90000FEEF0EFA3F0EE4F70E790000FEEFB
:0502A400F0EFA3F022C1
:0302DF006A0A02A6
:06007B00E478FFF6D8FD59
:200059007900E94400601B7A009002E2781175A000E493F2A308B8000205A0D9F4DAF27559
:02007900A0FFE6
:200081007800E84400600A790175A000E4F309D8FC7810E84400600C7901900001E4F0A36C
:0400A100D8FCD9FAB4
:0D004C007581071202C5E5826003020049BC
:1C02A90020F71430F6148883A88220F507E6A88375830022E280F7E49322E02264
:0402C500758200221C
:00000001FF
