:0400000002006C325C
:03000B00020B7C69
:0100130032BA
:01001B0032B2
:03002300020B23AA
:200028000000E2FBEAF2802C0000E0FBEAF08024E6B50202EBF62200E2B50202EBF22200BE
:20004800E0B50202EBF02230F6E0A88220F5D3EAC6F582228B822230F6E6A88220F5D980CE
:01006800CFC8
:0300CA00020069C8
:030069000200CDC5
:2000CD0043BA80120AEE12098F900016E0900205F0E070069002057401F090324975F08093
:2000ED00120C22D2A9D2ACD2AF75C13520B209900204E0700312259B900204E060EBC2AF06
:10010D00121E3A900203E4F0900204F0D2AF80D9AF
:0A324900424F4F545F4F4B0D0A0037
:20011D00900001E4F0A3F075BA8090FE01E0601C90FE01E4F0FEFF7D051EBEFF011FEE4F16
:20013D0070F7DDF5900001EEF0EFA3F075BA00759D0075A600759F00759E00900001E0FE86
:20015D00A3E0FF1EBEFF011FEE4F70F722E582900004F0759D00E0F5A6900003E0F59F754B
:20017D009E007E007F001EBEFF011FEE4F70F722AF83E582900005F0EFA3F0900005E0FEF3
:20019D00A3E0FF903253E493FC740193FD1CBCFF011DEC4D70F71EBEFF011F900005EEF030
:2001BD00EFA3F0EE4F70DC900005EEF0EFA3F022AF83E582900007F0EFA3F0900007E0FEE9
:2001DD00A3E0FF903255E493FDDDFE1EBEFF011F900007EEF0EFA3F0EE4F70E7900007EE0F
:0501FD00F0EFA3F02269
:033253006A0A0202
:20020200E582900009F0E0FF540124FF92D3EF03540124FF92D422E58290000AF074FD5587
:200222008EFFE025E04FF58E22AFF0AE83E58290000BF0EEA3F0EFA3F075BA8090000BE067
:20024200FDA3E0FEA3E0FF7C00EC2DF9E43EFA8F038C00C005C006C0077F0074E028F8741B
:20026200FD3FFF88828F83E089828A838BF0122F820CBC2000D007D006D00540CC75BA004A
:010282002259
:20028300759850438E40538EFE53890F758B8F758DFDC2ABD28E22759850438E40538EFE59
:2002A30053890F758BCC758DFFC2ABD28E22759850438E40538EFE53890F758BA0758DFCBE
:2002C300C2ABD28E22759850438E40538EFE53890F758BB8758DFFC2ABD28E2275985043AC
:2002E3008E40538EFE53890F758B70758DFCC2ABD28E22759850438E40538EFE53890F7559
:200303008B40758DFCC2ABD28E22759850438E40538EFE53890F758BB0758DFFC2ABD28E6C
:0103230022B7
:1032560030313233343536373839414243444546C6
:0500C5009000C6E4F00C
:2003240075F516747F55C74480F5C7C2AFE4F5C3F5C474FC55C54403F5C575C65A75C6A5E4
:20034400000053C5FCD2AF7F00EF75F014A42466FD743235F0FC7E809000B1EDF0ECA3F090
:20036400EEA3F074132DF9E43CFA8E0389828A838BF01231E630E7030204E574042DF9E45D
:200384003CFA8E0389828A838BF01231E6FB703074052DF8E43CF98E02888289838AF01252
:2003A40031E6F8A31231E6F988828983E09000ADF0E4A3F0A3F0A3F09000AC04F00204442B
:2003C400BB01028003BB033F9000B1E0F9A3E0FAA3E0FB740529F9E43AFA89828A838BF080
:2003E4001231E6F9A31231E6FA89828A83E0FAA3E0FB9000ADEAF0EBA3F0E4A3F0A3F09072
:2004040000AC7402F0803974052DFDE43CFC8D828C838EF01231E6FDA31231E6FC8D828C29
:2004240083E0FBA3E0FCA3E0FDA3E0FE9000ADEBF0ECA3F0EDA3F0EEA3F09000AC7404F09E
:200444009000ADE0F54FA3E0F550A3E0F551A3E0F5529000B1E0F8A3E0F9A3E0FA7402282C
:20046400F8E439F99000ACE0F54D754E00C3E54E954D506DC007E54EC40354F8F5F005F0CD
:20048400AC4FAD50AE51AF52800DC3EF13FFEE13FEED13FDEC13FCD5F0F08CC2C2AF88829A
:2004A40089838AF01231E6FEA31231E6FFAD4E7C00ED2EFEEC3FF5C3888289838AF012317A
:2004C400E6FF254EF5C474FC55C54402F5C575C65A75C6A5000053C5FCD2AF054ED00780C9
:2004E4008C0FBF2200500302034D53C77F22AFF0AE83E5829000B4F0EEA3F0EFA3F090001E
:20050400B7E4F0A3F0A3F0A3F09000B4E0FDA3E0FEA3E0FF74132DFAE43EFB8F048A828B7A
:20052400838CF01231E630E7012274042DFDE43EFE8D828E838FF01231E6FF600ABF0102A0
:20054400800DBF031280089000BB7401F0800E9000BB7402F080069000BB7404F075F51606
:20056400747F55C74480F5C79000B4E0FDA3E0FEA3E0FF74022DFDE43EFE9000BBE0FC7B62
:2005840000C3EB9C4003020612C004C2AF8D828E838FF01231E6F9A31231E6FA8B007C00ED
:2005A400E829F9EC3AFA8AC38D828E838FF01231E6FC2BF5C474FC55C54401F5C575C65AFA
:2005C40075C6A5000053C5FCD2AF85C24DE4F54EF54FF550EBC40354F8F5F005F0A84DA9E8
:2005E4004EAA4FAC50800CE828F8E933F9EA33FAEC33FCD5F0F19000B7E048F0A3E049F008
:20060400A3E04AF0A3E04CF00BD00402058553C77F9000B4E0FDA3E0FEA3E0FF74042DFD90
:20062400E43EFE8D828E838FF01231E6FFBF03189000B7E0FDA3E0FE9000B7EDF0EEA3F0AB
:20064400EE3395E0A3F0A3F0BF04009000B4E0FDA3E0FEA3E0FF740B2DFCE43EFA8F038C11
:20066400828A838BF01231E6F9A31231E6FAA31231E6FBA31231E6FC9000B7E0F54DA3E009
:20068400F54EA3E0F54FA3E0F550C3E54D99E54E9AE54F9BE5509C402F740F2DFDE43EFE4D
:2006A4008D828E838FF01231E6FDA31231E6FEA31231E6FFA31231E6FCC3ED954DEE954EB1
:2006C400EF954FEC955050399000B4E0FDA3E0FEA3E0FF74072DFDE43EFE8D828E838FF061
:2006E4001231E6FDA31231E6FEA31231E6FFA31231E6FC9000B7EDF0EEA3F0EFA3F0ECA3BD
:20070400F09000B4E0FDA3E0FEA3E0FF74042DFAE43EFB8F048A828B838CF01231E6FC7047
:200724002274052DF9E43EFA8F0389828A838BF01231E6F9A31231E6FA9000B7E089828A0F
:2007440083F022BC012A74052DF9E43EFA8F0389828A838BF01231E6F9A31231E6FA9000C1
:20076400B7E0F8A3E0FB89828A83E8F0EBA3F022BC032A74052DF9E43EFA8F0389828A838A
:200784008BF01231E6F9A31231E6FA9000B7E0F8A3E0FB89828A83E8F0EBA3F022BC023CCB
:2007A40074052DF9E43EFA8F0389828A838BF01231E6F9A31231E6FA894D8A4E9000B7E098
:2007C400F9A3E0F8A3E0FAA3E0FB854D82854E83E9F0E8A3F0EAA3F0EBA3F022BC04337424
:2007E400052DFDE43EFE8D828E838FF01231E6FDA31231E6FE9000B7E0FAA3E0FBA3E0FCF9
:20080400A3E0FF8D828E83EAF0EBA3F0ECA3F0EFA3F022AFF0AE83E5829000C0F0EEA3F0BF
:20082400EFA3F09000C3E4F0A3F0A3F0FFEF75F014A42466FD743235F0FE8D828E83A3A324
:20084400A3A3A3E493FBA3E493FC9000C0E0F9A3E0FAEBB50112ECB5020E9000C3EDF0EEFB
:20086400A3F07480A3F080060FBF220040BF9000C3E0FDA3E0FEA3E0FFED4E70047582010B
:200884002274132DFAE43EFB8F048A828B838CF01231E630E0047582022274042DFAE43E25
:2008A400FB8F048A828B838CF01231E6FC702374052DF9E43EFA8F0389828A838BF0123135
:2008C400E6F9A31231E6FA9000BCE089828A83F0806FBC01028003BC03349000C3E0FAA347
:2008E400E0FBA3E0FC74052AFAE43BFB8A828B838CF01231E6FAA31231E6FB9000BCE0F93E
:20090400A3E0FC8A828B83E9F0ECA3F0803374052DFDE43EFE8D828E838FF01231E6FDA304
:200924001231E6FE9000BCE0FAA3E0FBA3E0FCA3E0FF8D828E83EAF0EBA3F0ECA3F0EFA35E
:20094400F09000C3E0FDA3E0FEA3E0FF74132DFDE43EFE8D828E838FF01231E620E70312BB
:200964000324758200227F00EF75F014A42466FD743235F0FE7C808D828E838CF0C00712E7
:2009840004F2D0070FBF220040DE229000C6E0600B90350E75F080120C2280FE9000C67475
:2009A40001F09034FA75F0801204F29000AAE0FEA3E0FFBEAA0FBF550C90352675F0801284
:2009C4000C2202096A90354775F080120C220209D57F00EF75F014A42466FD743235F0FC86
:2009E4007E809000C7EDF0ECA3F0EEA3F074042DF9E43CFA8E0389828A838BF01231E6FBC1
:200A0400703CC00774052DF8E43CF98E02888289838AF01231E6F8A31231E6F98808890980
:200A240074072DF9E43CFA8E0789828A838FF01231E6850882850983F0D007020AE2BB0111
:200A4400028003BB0351C0079000C7E0F50AA3E0F50BA3E0F50C7405250AF8E4350BFBAF8C
:200A64000C88828B838FF01231E6F8A31231E6FB7407250AF9E4350BFAAF0C89828A838FC4
:200A8400F01231E6F9A31231E6FA88828B83E9F0EAA3F0D007804774052DF9E43CFA8E0324
:200AA40089828A838BF01231E6F9A31231E6FA74072DFDE43CFC8D828C838EF01231E6FD34
:200AC400A31231E6FCA31231E6FEA31231E6FB89828A83EDF0ECA3F0EEA3F0EBA3F00FBF78
:0A0AE400220050030209D702032488
:20326600000000000412000000000000000080FFFFFF7F8002000400041600010000000194
:20328600000000FE0000000004000800041A000000000000000080FFFFFF7F0006000C00F2
:2032A600041E0002000000020000000900000000080010000422000000000000000080FF1C
:2032C600FFFF7F000A0014000426000000000000000080FFFFFF7F000C001800042A0000D5
:2032E60000000000000080FFFFFF7F000E001C00042E000000000000000080FFFFFF7F0074
:20330600100020000432000000000000000080FFFFFF7F00120024000436000000000000D5
:20332600000080FFFFFF7F0014002800043A000000000000000080FFFFFF7F0016002C00D3
:20334600043E000000000000000080FFFFFF7F00180030000442000000000000000080FF1C
:20336600FFFF7F001A0034000446000000000000000080FFFFFF7F001C003800044A000094
:2033860000000000000080FFFFFF7F001E003C00044E000000000000000080FFFFFF7F0083
:2033A600200040000452000000000000000080FFFFFF7F0022004400045600000000000095
:2033C600000080FFFFFF7F0024004800045A000000000000000080FFFFFF7F0026004C00B3
:2033E600045E000000000000000080FFFFFF7F00280050000462000000000000000080FF0C
:20340600FFFF7F002A0054000466000000000000000080FFFFFF7F0034005800046A00004B
:2034260000000000000000010000000056005C000472000200000000000000050000000056
:20344600580060000476000A00000000000000E8030000005A006400047A00030000000000
:203466000000000A000000005C006800047E00000000000000000032000000005E006C00FA
:203486000482000000000000000000102700000060007000048600010000000100000032DB
:2034A6000000000062007400048A000100000001000000640000000064007800048E0001CD
:2034C60000000001000000FA0000000066007C00049200000000000000000004000000006F
:2034E600401FFFFF040E000000000000000080FFFFFF7F81F01F800001AA00AA55000000A1
:20350600000000FFFF0000015245475F494E49542043414C4C454420414741494E0D0A00D9
:2035260056616C696420436F6E66696720466F756E642E204C6F6164696E672E2E2E0D0A56
:20354600004E6F20436F6E66696720466F756E642E20496E697469616C697A696E67204479
:0D356600656661756C74732E2E2E0D0A00C3
:200AEE00759850438E01438E0475D6FD75D7C0438E1053A23F5389F0438E80758C20758A3E
:200B0E0000C28DD2A9C28C22C28C758C20758A00C28DD28C22C0E0C082C083C007C006C0DE
:200B2E0005C0D075D00030983690010AE599F0C298900203E0FFBF40005018900203E0FF1D
:200B4E0004F0EF24CAFFE43400FE90010AE08F828E83F0C28C758C20758A00C28DD28CD029
:200B6E00D0D005D006D007D083D082D0E032C0E0C082C083C28CC28D900203E0600690025F
:200B8E00047401F0D083D082D0E032E58290010BF0C29990010BE0F59910990280FB22AF08
:200BAE00F0AE83E58290010EF0EEA3F0EFA3F0C2AC90010EE0FDA3E0FEA3E0FF90010CE0A3
:200BCE00FBA3E0FC8B018C021BBBFF011CE94A60358D828E838FF01231E6FAA3AD82AE83F4
:200BEE0090010EEDF0EEA3F0EFA3F08A82C007C006C005C004C003120B99D003D004D00551
:200C0E00D006D00780BE90010EEDF0EEA3F0EFA3F0D2AC22AFF0AE83E582900111F0EEA362
:200C2E00F0EFA3F0900111E0FDA3E0FEA3E0FF8D828E838FF01231E6FC60230DBD00010E92
:200C4E00900111EDF0EEA3F0EFA3F08C82C007C006C005120B99D005D006D00780D190018A
:200C6E0011EDF0EEA3F0EFA3F022AF83E582900114F0EFA3F0900114E0F5F0A3E045F07011
:200C8E0006758230020B997F00900114E0FDA3E0FE900114E0F5F0A3E045F0605BEFFB33F7
:200CAE0095E0FC0FEB2416FBEC3401FC9001FE740AF0E4A3F08D828E83C007C006C005C0C3
:200CCE0004C003123029A982D003D004D005D0067430298B828C83F09001CA740AF0E4A32E
:200CEE00F08D828E831229F2AD82AE83D007900114EDF0EEA3F080911FEF20E7188F06EEAE
:200D0E002416F582E43401F583E0F582C007120B99D00780E322AF82AE83ADF0FC90011CAB
:200D2E00EFF0EEA3F0EDA3F0ECA3F090011CE0FCA3E0FDA3E0FEA3E0FF30E73375822DC00C
:200D4E0007C006C005C004120B99D004D005D006D007C3E49CF8E49DF9E49EFAE49FFB90E4
:200D6E00012CE8F0E9A3F0EAA3F0EBA3F0800E90012CECF0EDA3F0EEA3F0EFA3F090012C82
:200D8E00E0F5F0A3E042F0A3E042F0A3E045F07006758230020B99750F0090012CE0FBA35C
:200DAE00E0FCA3E0FDA3E0FEEB4C4D4E6075E50FF93395E0FA050FE92420F50DEA3401F5BB
:200DCE000E9001D1740AF0E4A3F0A3F0A3F08B828C838DF0EEC006C005C004C003122A7F36
:200DEE00A882D003D004D005D006743028850D82850E83F09001E2740AF0E4A3F0A3F0A3F5
:200E0E00F08B828C838DF0EE122D4BAC82AD83AEF0FF90012CECF0EDA3F0EEA3F0EFA3F0AC
:200E2E00020DA8AF0F1FEF20E7188F06EE2420F582E43401F583E0F582C007120B99D00788
:200E4E0080E322A298E433F58222900203E060FAC2AC9000CAE0FF900203E4F0D2AC8F82A7
:010E6E002261
:0335730000000154
:200E6F0074F755B24408F5B253B1F753B2FB53B1FBC2B322900130E4F0A3F0A3F0A3F0FE21
:200E8F00FF20B2120EBE00010F8E048F05C3EC9430ED947540EB7E007F0030B20E0EBE0011
:200EAF00010FC3EE9460EF94EA40EFC3EE9460EF94EA400890FFFF74FFF5F0227F00BF181A
:200ECF00005052D2B30000000000900130E0FBA3E0FCA3E0FDA3E0FEEB2BFBEC33FCED3374
:200EEF00FDEE33FE900130EBF0ECA3F0EDA3F0EEA3F030B216900130E02401F0A3E0340046
:200F0F00F0A3E03400F0A3E03400F0C2B300000000000F80A9D2B30000C2B300009001301C
:200F2F00E0FCA3E0FDA3E0FEA3E0EE30E70F900130ECF0EDA3F0EEA3F074FFA3F0900130C9
:200F4F00E0FCA3E0FDA3E0FEA3E08C828D838EF022E582900134F0900135E4F0A3F0A3F088
:200F6F00A3F0900134E0FF751000751100C3E5119F5046C007120E83A982AA83ABF0FCD009
:200F8F0007B9FF0BBAFF08BBFF05BCFF028026C007900135E0F8A3E0FDA3E0FEA3E0FF901D
:200FAF000135E928F0EA3DA3F0EB3EA3F0EC3FA3F00510D007051180B4E510700890FFFF86
:200FCF0074FFF5F022AC107D007E007F00900135E0F8A3E0F9A3E0FAA3E0FB9001DAECF0F6
:130FEF00EDA3F0EEA3F0EFA3F0888289838AF0EB022C6162
:201002005392EF43911090FE31E054EFF075DE2F75BC802275BC8443BC40E5BC30E5FB53F7
:15102200BCDFAFBD7E00ACBE7D00EC4206ED42078E828F83229F
:20103700900206E4F0A3F0A3F0A3F090020AF0A3F0900139F090013AF022AF82AE83ADF0BF
:20105700FC90013DEFF0EEA3F0EDA3F0ECA3F0900206E0F551A3E0F552A3E0F553A3E0F585
:201077005490013DE0F8A3E0F9A3E0FAA3E0FBE8C39551F8E99552F9EA9553FAEB9554FBFB
:20109700900141E8F0E9A3F0EAA3F0EBA3F0900076E0F54DA3E0F54EA3E0F54FA3E0F5509B
:2010B700C3E54D98E54E99E54F9AE55064808BF063F08095F04023E4954DFCE4954EFDE439
:2010D700954FFEE49550FFC3E89CE99DEA9EEB64808FF063F08095F05024EBA2E713FFEA70
:2010F70013FEE913FDE8139002062551F0ED3552A3F0EE3553A3F0EF3554A3F0803C90006F
:2011170072E0FCA3E0A3E0A3E08CF005F0EB3392D2800EA2D2EB13FBEA13FAE913F9E8130C
:20113700F8D5F0EF900206E82551F0E93552A3F0EA3553A3F0EB3554A3F090008AE0FCA35E
:20115700E0FDA3E0FEA3E0FF900141E0F8A3E0F9A3E0FAA3E0FBC3E89CE99DEA9EEB648053
:201177008FF063F08095F0506EC3E49CFCE49DFDE49EFEE49FFFC3EC98ED99EE9AEF6480DC
:201197008BF063F08095F0504E90020AE0FEA3E0FF900086E0F551A3E0F552A3E0F553A357
:2011B700E0F5548E008F017C007D00C3E89551E99552EC9553ED64808554F063F08095F0B1
:2011D700500D90020A74012EF0E43FA3F080139001397401F0800B90020AE4F0A3F09001D5
:2011F70039F0900139E070030212A7900082E0FCA3E0FDA3E0FEA3E0FF900206E0F8A3E073
:20121700F9A3E0FAA3E0FBC3E89CE99DEA9EEB64808FF063F08095F05071C3E49CFCE49D47
:20123700FDE49EFEE49FFFC3EC98ED99EE9AEF64808BF063F08095F05051C3E498E499E45C
:201257009A74808BF063F08095F05020E824FFFCE934FFFDEA34FFFEEB34FFFF900206ECCA
:20127700F0EDA3F0EEA3F0EFA3F08017EB30E713900206740128F0E439A3F0E43AA3F0E4CE
:201297003BA3F090013A7401F0800590013AE4F090013DE0FEA3E0FF90000EEEF0EFA3F0E9
:2012B700E4A3F0A3F022900206E0FCA3E0FDA3E0FEA3E08C828D838EF022900139E58124E1
:2012D700FCF886070886060886F0E0CFC582CFCEC583CE122F82A3CFC582CFCEC583CEA3E9
:2012F700E0CFC582CFCEC583CE122F82A3CFC582CFCEC583CEA3E0CFC582CFCEC583CE12A1
:181317002F82A3CFC582CFCEC583CEA3E0CFC582CFCEC583CE022F82A2
:063576000000000000004F
:20132F00E582900149F01212BDAC82AD83AEF0FFC007C006C005C004744EC0E07401C0E004
:20134F00E4C0E01212D11581158115819001EF744EF07401A3F0E4A3F09001F27404F0E4C3
:20136F00A3F090014AF5F0122E3FD004D005D006D007900149E0FBE0703F90001AECF0ED7F
:20138F00A3F0EEA3F0EFA3F0900022E4F0A3F0A3F0A3F0900145E0F512A3E0F513A3E0F5A9
:2013AF0014A3E0F515900046E512F0E513A3F0E514A3F0E515A3F08067EB75F004A4F51632
:2013CF0085F0172422F512E5173400F51390001AE0F8A3E0F9A3E0FAA3E0FBECC398FCEDC4
:2013EF0099FDEE9AFEEF9BFF851282851383ECF0EDA3F0EEA3F0EFA3F0E5162446FEE51747
:20140F003400FF900145E0FAA3E0FBA3E0FCA3E0FD8E828F83EAF0EBA3F0ECA3F0EDA3F0E4
:20142F00900149E0FF90001EE0F512A3E0F513A3E0F514A3E0F5158F0079007A007E00C3E8
:20144F00E89512E99513EA9514EE64808515F063F08095F040177E000FBF00010E90001EB6
:20146F00EFF0EEA3F0EE3395E0A3F0A3F01203247582002290001AE4F0A3F0A3F0A3F09028
:20148F00001EF0A3F0A3F0A3F0FFEF75F004A4FDAEF02422F582EE3400F583E4F0A3F0A37F
:2014AF00F0A3F0ED2446F582EE3400F583E4F0A3F0A3F0A3F00FBF090040CF020324AF8265
:2014CF00AE83ADF0FC900152EFF0EEA3F0EDA3F0ECA3F090001AE0FCA3E0FDA3E0FEA3E0E7
:2014EF00FF900152E0F8A3E0F9A3E0FAA3E0FBE8C39CFCE99DFDEA9EFEEB9FFF90001EE049
:20150F00F8A3E0F9A3E0FAA3E0FBC3E89402E99400EA9400EB648094805007900000E4F56E
:20152F00F022E824FFF518E934FFF519EA34FFF51AEB34FFF51B751C00C000C001C002C05A
:20154F0003A81C79007A007B00C3E89518E99519EA951AEB6480851BF063F08095F0D00335
:20156F00D002D001D0004003021713C000C001C002C003E51CF51D04FBC2D575F004EB3047
:20158F00E704B2D5F404A430D50AF42401C5F0F43400C5F02422F582740035F0F583E0F8CE
:2015AF00A3E0F9A3E0FAA3E0FBE51C75F004A4F51E85F01F2422F582E51F3400F583E0F5AE
:2015CF0020A3E0F521A3E0F522A3E0F523C3E52098E52199E5229AE52364808BF063F08034
:2015EF0095F0D003D002D001D000400302170EC000C001C002C003E51D04FBC2D575F004A0
:20160F00EB30E704B2D5F404A430D50AF42401C5F0F43400C5F02422F582740035F0F5830A
:20162F00E0F8A3E0F9A3E0FAA3E0FBC3E89CE99DEA9EEB64808FF063F08095F0D003D002AC
:20164F00D001D000500302170EC004C005C006C007900156E520F0E521A3F0E522A3F0E556
:20166F0023A3F0E51D04FFC2D575F004EF30E704B2D5F404A430D50AF42401C5F0F434006E
:20168F00C5F0F52085F0212422F582E5213400F583E0FCA3E0FDA3E0FEA3E0FF90015AEC36
:2016AF00F0EDA3F0EEA3F0EFA3F0E51E2446F582E51F3400F583E0FCA3E0FDA3E0FEA3E0B4
:2016CF00FF90015EECF0EDA3F0EEA3F0EFA3F0E5202446F582E5213400F583E0FCA3E0FDBA
:2016EF00A3E0FEA3E0FF900162ECF0EDA3F0EEA3F0EFA3F0D007D006D005D0040217F7051B
:20170F001C021548C004C005C006C007181888E075F004A42422F582740035F0F583E0F9DD
:20172F00A3E0FAA3E0FBA3E0FF900156E9F0EAA3F0EBA3F0EFA3F088070FC2D575F004EF53
:20174F0030E704B2D5F404A430D50AF42401C5F0F43400C5F02422F582740035F0F583E0D4
:20176F00FCA3E0FDA3E0FEA3E0FF90015AECF0EDA3F0EEA3F0EFA3F088E075F004A42446B2
:20178F00F582740035F0F583E0FCA3E0FDA3E0FEA3E0FF90015EECF0EDA3F0EEA3F0EFA3F5
:2017AF00F008C2D575F004E830E704B2D5F404A430D50AF42401C5F0F43400C5F02446F5E3
:2017CF0082740035F0F583E0FCA3E0FDA3E0FEA3E0FF900162ECF0EDA3F0EEA3F0EFA3F0B6
:2017EF00D007D006D005D00490015AE0F524A3E0F525A3E0F526A3E0F527900156E0F520EA
:20180F00A3E0F521A3E0F522A3E0F523E520B5242BE521B52526E522B52621E523B5271CD9
:20182F0090015EE0F518A3E0F519A3E0F51AA3E0F51B851882851983851AF022ECC39520B2
:20184F00FCED9521FDEE9522FEEF9523FF90015EE0F518A3E0F519A3E0F51AA3E0F51B9072
:20186F000162E0F8A3E0F9A3E0FAA3E0FBE8C39518F8E99519F9EA951AFAEB951BFBE52495
:20188F00C39520F524E5259521F525E5269522F526E5279523F527C3EC94FFED947FEE944D
:2018AF0000EF648094804003021969C3E49C74809D74FF9E747F8FF063F08095F040030277
:2018CF001969C3E894FFE9947FEA9400EB648094804003021969C3E49874809974FF9A74C8
:2018EF007F8BF063F08095F050709001FAE8F0E9A3F0EAA3F0EBA3F08C828D838EF0EF1250
:20190F002FBD85822085832185F022F5239001DAE524F0E525A3F0E526A3F0E527A3F0850A
:20192F0020828521838522F0E523122C6185822085832185F022F523E5202518F520E52133
:20194F003519F521E522351AF522E523351BF5238520828521838522F0228C828D838EF092
:20196F00EFC003C002C001C000122EE8AC82AD83AEF0FFD000D001D002D003888289838A5A
:20198F00F0EBC007C006C005C004122EE8A882A983AAF0FBD004D005D006D007C000C0015D
:2019AF00C002C0038C828D838EF0EF122BBEAC82AD83AEF0FFE58124FCF581852482852541
:2019CF00838526F0E527C007C006C005C004122EE8A882A983AAF0FBD004D005D006D0074F
:2019EF00C000C001C002C0038C828D838EF0EF123123AC82AD83AEF0FFE58124FCF5818C5E
:201A0F00828D838EF0EF122F15AC82AD83AEF0FF90015EE0F8A3E0F9A3E0FAA3E0FBEC2815
:101A2F00FCED39FDEE3AFEEF3B8C828D838EF0227A
:201A3F00AF83E582900189F0EFA3F090018B74FFF0A3F0900189E0FEA3E0FF900188E0FDE0
:201A5F007C00C3EC9D5059EC2EF582E43FF583E0FB7A0090018BE06BF0A3E06AF07B009036
:201A7F00018BE0F9A3E0FAE930E01DC0058900EAC313C813C8FD6300016305A090018BE831
:201A9F00F0EDA3F0D005800FEAC313C913C9FA90018BE9F0EAA3F00BBB080040C20C80A284
:201ABF0090018BE0FEA3E08E82F58322AF83E58290018DF0EFA3F090018DE0FEA3E0FF7DBC
:201ADF0000ED75F014A42466FB743235F0FC8B828C83E493F9A3E493FAE9B5060DEAB5079A
:201AFF00097A808B828C838AF0220DBD220040D190000075F00022AF83E58290018FF0EF60
:201B1F00A3F090018FE0FEA3E0FF8E828F83A3A3E0FC7D008E828F83A3A3A3E07A00420526
:201B3F00EA42048D828C83C007C006121ACBAB82AC83ADF0D006D007EB4C7001228E828FA5
:201B5F0083E0900166F09001677403F0042BFAE43CFE8D078A828E838FF01231E6FFBF015E
:201B7F00028003BF033B74052BFAE43CFE8D078A828E838FF01231E6FAA31231E6FE8A82DF
:201B9F008E83E0FEA3E0FF9001687402F08F02900169EAF090016AEEF09001917405F0800D
:201BBF004B74052BFBE43CFC8B828C838DF01231E6FBA31231E6FC8B828C83E0FCA3E0FD03
:201BDF00A3E0FEA3E0FF9001687404F08F03900169EBF08E0390016AEBF08D0390016BEB3D
:201BFF00F090016CECF09001917407F0900191E0FF900188F0900166C007121A3FAD82AE60
:201C1F0083D007900191EF04F0EF2466F582E43401F5838D07EFF0900191E0FF04F0EF244A
:201C3F0066F582E43401F5838E05EDF0900191E0FE7F0090010CEEF0EFA3F0900166F5F04F
:201C5F00020BADAF83E582900192F0EFA3F0900192E0FEA3E0FF8E828F83A3A3E0FC7D0039
:201C7F008E828F83A3A3A3E07A004205EA42048D828C83C007C006121ACBAB82AC83ADF0CE
:201C9F00D006D007EB4C70012274042BF8E43CF98D02888289838AF01231E6FABA0102807B
:201CBF0003BA0342C003C004C005900192E0F9A3E0FA740729F582E43AF583E0FD780074C4
:201CDF000829F582E43AF583E07B004200EB4205900194E8F0EDA3F0E4A3F0A3F0D005D0AC
:201CFF0004D003021D85C003C004C00574072EF582E43FF583E0F87D00882B8D288D298D43
:201D1F002A74082EF582E43FF583E0FA7B008B058A04E44228EB4229EC422AED422B740978
:201D3F002EF582E43FF583E0F879007C008C05890488017800E52A4204E52B4205740A2E00
:201D5F00F582E43FF583E0FF7E007B007A00900194EF48F0EE49A3F0EB4CA3F0EA4DA3F056
:201D7F00D005D004D00374052BFBE43CFC8B828C838DF01231E6FBA31231E6FC7F00900178
:201D9F0094E0F9A3E0FAA3E0FDA3E0FE9000BCE9F0EAA3F0EDA3F0EEA3F08B828C838FF0FB
:201DBF00120817900192E0FEA3E0FF8E828F83E0900166F09001677410F08E828F83A3A393
:201DDF00E0900168F08E828F83A3A3A3E0900169F08E828F83A3A3A3A3E090016AF08E82BD
:201DFF008F83A3A3A3A3A3E090016BF09001887406F0900166121A3FAE82AF838E0590014C
:201E1F006CEDF08F0690016DEEF090010C7408F0E4A3F0900166F5F0020BAD900204E070ED
:201E3F000122900204E4F09000CAE0FFBF0107900199E4F0801CEF70109000CBE0FFBF01F3
:201E5F00089001997401F080097582E1120B99021F9E900199E0FF24CAFDE43400FE8D82DD
:201E7F008E83A3E0FCBC033D900203E0FA7B008F007900EAC398FAEB99FBC3EA9408EB646F
:201E9F0080948050187582E2C007120B99D007900203E0C39FF582120B99021F9E9001980E
:201EBF007406F08037BC102B900203E0FBE4FCFAEBC39FFBEC9AFCC3EB940DEC64809480A4
:201EDF0050097582E3120B99021F9E900198740BF080097582E4120B99021F9E900198E0C1
:201EFF00FF900188F08D828E83C007C006C005121A3FAB82AC83D005D006D0078B02EF2D57
:201F1F00F582E43EF583E0F9EAB501198C037C000FBF00010CEF2DF582EC3EF583E0FFEB1A
:201F3F00B5070280087582E5120B9980528D828E83A3A3E0FC7F008D828E83A3A3A3E07AB4
:201F5F00004207EA42048F828C83C006C005121ACBAB82AC83D005D006EB4C70087582E6B4
:201F7F00120B99801A8D828E83A3E0FFBF03098D828E83121B1680078D828E83121C62C229
:091F9F00AC900203E4F0D2AC2284
:201FA800AF83E58290019DF0EFA3F090019FE4F07436A3F0746EA3F07401A3F090019AE017
:201FC800701190019F7480F07484A3F0741EA3F0E4A3F090019DE0FEA3E0FF90019FE0FAA5
:201FE800A3E0FBA3E0FCA3E0FD9001E2EEF0EFA3F0E4A3F0A3F08A828B838CF0ED122D4B72
:20200800AC82AD83AEF0FF90019FECF0EDA3F0EEA3F0EFA3F090019FE0FCA3E0FDA3E0FE21
:20202800A3E0FF90019BE0F52CA3E0F52DA82CA92D7A007B00C3E89CE99DEA9EEB9F500472
:2020480090000022AA2CAB2DEAC39CFAEB9D8A82F58322E5829001A6F0747F558EFFE0FE66
:202068000354804FF58E74FC5589FF9001A3E0FD4FF589BD022A9001A4E0FDA3E0FF900176
:202088009AEEF090019B74FFF0E4A3F08D828F83121FA8AD82AF838D038F048B8C8D8A22EC
:2020A8009001A4E0FDA3E0FF90019AEEF090019B74FFF0A3F08D828F83121FA8AE82AF83FD
:2020C8008E048F058D8C8E8A22E5829001AAF074BF558EFFE0FE030354C04FF58E74CF5576
:2020E80089FF9001A7E0FDC454F04FF589BD022A9001A8E0FDA3E0FF90019AEEF090019BB0
:2021080074FFF0E4A3F08D828F83121FA8AD82AF838D038F048B8D8D8B229001A8E0FDA354
:20212800E0FF90019AEEF090019B74FFF0E4A3F08D828F83121FA8AE82AF838E048F058D9A
:202148008D8E8B22AF83E5829001ADF0EFA3F09001AFE4F07436A3F0746EA3F07401A3F098
:202168009001ACE070119001AF7480F07484A3F0741EA3F0E4A3F09001ABE0FE7F000EBE09
:2021880000010F9001ADE0FCA3E0FD9001F8ECF0EDA3F08E828F83122F9DAE82AF839001B5
:2021A800AFE0FAA3E0FBA3E0FCA3E0FD9001E2EEF0EFA3F0E4A3F0A3F08A828B838CF0EDB1
:2021C800122D4BAC82AD83AEF0FF9001AFECF0EDA3F0EEA3F0EFA3F09001AFE0FCA3E0FD37
:2021E800A3E0FEA3E0FFC374FF9C74FF9DE49EE49F50049000002274FFC39CFC74FF9D8C7D
:2022080082F58322E5829001B6F09001B4E0FEA3E0FF9001B3E0FD9001B6E0FC9001ABEDEA
:20222800F09001ACECF08E828F83C005C00412214CAE82AF83D004D00574FB558EFBEC2CF3
:2022480025E04BF58E43BA8090FEA2EDF053BA7F8E048F058DD68ED722E5829001BBF0904A
:2022680001B8E0FEA3E0FF9001B7E0FD9001BBE0FC9001ABEDF09001ACECF08E828F83C0DC
:2022880005C00412214CAE82AF83D004D00574FD55D1FBEC2C4BF5D143BA8090FEA3EDF09D
:2022A80053BA7F8E048F058DD48ED574DF55AFFF9001BAE0C42354E04FF5AF22E5829001F7
:2022C800C0F09001BDE0FEA3E0FF9001BCE0FD9001C0E0FC9001ABEDF09001ACECF08E82FF
:2022E8008F83C005C00412214CAE82AF83D004D00574DF55D1FBECC42354E04BF5D143BA28
:202308008090FEA4EDF053BA7F8E048F058DD28ED374BF55AFFF9001BFE0030354C04FF5F0
:02232800AF22E2
:20232A00120E83AC82AD83AEF0FF90020CECF0EDA3F0EEA3F0EFA3F0900214E4F0A3F0A348
:20234A00F0A3F0900212F0A3F0900210F0A3F022AF82AE83ADF0FC9001C1EFF0EEA3F0EDE8
:20236A00A3F0ECA3F090001EE0FCA3E0FDA3E0FEA3E0FFC3EC9402ED9400EE9400EF648019
:20238A0094805007900000E4F5F0229001C1E0F8A3E0F9A3E0FAA3E0FB752E00C000C00188
:2023AA00C002C003ECF52F14FBC3E52E9BD003D002D001D000505AC004C005C006C007AF49
:2023CA002E0FC2D575F004EF30E704B2D5F404A430D50AF42401C5F0F43400C5F02422F594
:2023EA0082740035F0F583E0FCA3E0FDA3E0FEA3E0FFC3E89CE99DEA9EEB64808FF063F0EB
:20240A008095F0D007D006D005D0044004052E808B9001C5E52EF01CBCFF091DBDFF051EA0
:20242A00BEFF011FA82E79007A007B00C3E89CE99DEA9EEB64808FF063F08095F04008E549
:20244A002F24FE9001C5F09001C5E0FF75F004A4FDAEF02422F582EE3400F583E0F9A3E04B
:20246A00FAA3E0FBA3E0FCED2446F582EE3400F583E0F530A3E0F531A3E0F532A3E0F533F0
:20248A000FC2D575F004EF30E704B2D5F404A430D50AF42401C5F0F43400C5F0FFAEF0247B
:2024AA0022F582EE3400F583E0F534A3E0F535A3E0F536A3E0F537EF2446F582EE3400F5E5
:2024CA0083E0F538A3E0F539A3E0F53AA3E0F53BE9B53418EAB53514EBB53610ECB5370CB0
:2024EA008530828531838532F0E53322E534C399F534E5359AF535E5369BF536E5379CF577
:20250A0037E538C39530F538E5399531F539E53A9532F53AE53B9533F53B9001C1E0F8A39C
:20252A00E0FDA3E0FEA3E0FFE8C399F9ED9AFAEE9BFBEF9CFC9001FAE538F0E539A3F0E5BA
:20254A003AA3F0E53BA3F089828A838BF0EC122FBDAC82AD83AEF0FF9001DAE534F0E535EB
:20256A00A3F0E536A3F0E537A3F08C828D838EF0EF122C61AC82AD83AEF0FFEC2530FCED12
:20258A003531FDEE3532FEEF35338C828D838EF022120E83AC82AD83AEF0FFBCFF0ABDFF47
:2025AA0007BEFF04BFFF012290000EECF0EDA3F0EEA3F0EFA3F0900072E0F8A3E0F9A3E092
:2025CA00FAA3E0FB900072E0F5F0A3E042F0A3E042F0A3E045F0701190020CECF0EDA3F015
:2025EA00EEA3F0EFA3F00226C890020CE0F53CA3E0F53DA3E0F53EA3E0F53FECC3953CF598
:20260A0040ED953DF541EE953EF542EF953FF543900076E0F544A3E0F545A3E0F546A3E06B
:20262A00F547C3E5449540E5459541E5469542E54764808543F063F08095F04038C000C079
:20264A0001C002C003C3E49544F8E49545F9E49546FAE49547FBC3E54098E54199E5429A47
:20266A00E54364808BF063F08095F0D003D002D001D000501090020CECF0EDA3F0EEA3F050
:20268A00EFA3F0803988F005F0A840A941AA42E543FB3392D2800EA2D2EB13FBEA13FAE935
:2026AA0013F9E813F8D5F0EF90020CE8253CF0E9353DA3F0EA353EA3F0EB353FA3F0900224
:2026CA000CE0FCA3E0FDA3E0FEA3E08C828D838EF012235AAC82AD83AEF0FF90001AE0F8DC
:2026EA00A3E0F9A3E0FAA3E0FBE82CFCE93DFDEA3EFEEB3FFF9001C6ECF0EDA3F0EEA3F0A3
:20270A00EFA3F090008EE0F544A3E0F545A3E0F546A3E0F547C374019544E49545E495462E
:20272A0074808547F063F08095F050649001DAE544F0E545A3F0E546A3F0E547A3F08C8207
:20274A008D838EF0EFC003C002C001C000122C61AC82AD83AEF0FF9001FAE544F0E545A3E1
:20276A00F0E546A3F0E547A3F08C828D838EF0EF122FBDAC82AD83AEF0FFD000D001D002EB
:20278A00D0039001C6ECF0EDA3F0EEA3F0EFA3F09001C6E0FCA3E0FDA3E0FEA3E0FF900060
:2027AA0012ECF0EDA3F0EEA3F0EFA3F0900082E0F544A3E0F545A3E0F546A3E0F547C3E492
:2027CA009544E49545E4954674808547F063F08095F040030228AFC000C001C002C003C3AC
:2027EA00E49544F8E49545F9E49546FAE49547FBC3E89CE99DEA9EEB64808FF063F08095E4
:20280A00F0D003D002D001D00040030228A8C3EC9544ED9545EE9546EF64808547F063F069
:20282A008095F05079C000C001C002C003900210E02401F0A3E03400F090007EE0FAA3E011
:20284A00FB9001F8EAF0EBA3F090000AC007C006C005C004C001C000122F9DAA82AB83D059
:20286A0000D001D004D005D006D007900210E0F8A3E0F9C3EA98EB99D003D002D001D00022
:20288A00502390001AE8C39CF0E99DA3F0EA9EA3F0EB9FA3F0900210E4F0A3F08007900267
:2028AA0010E4F0A3F0900214E0F8A3E0F9A3E0FAA3E0FBECC398F8ED99F9EE9AFAEF9BFBDD
:2028CA0090008AE0F544A3E0F545A3E0F546A3E0F547C004C005C006C007C3E49544FCE40B
:2028EA009545FDE49546FEE49547FFC3E89CE99DEA9EEB64808FF063F08095F0D007D006D3
:20290A00D005D004406DE54498E54599E5469AE54764808BF063F08095F04057900212E010
:20292A00FAA3E0FB8A008B01C3E894E8E99403500B90021274012AF0E43BA3F0900086E022
:20294A00FAA3E0FB9001F8EAF0EBA3F090000A122F9DAA82AB83900212E0F8A3E0F9C3E89F
:20296A009AE99B402D9000A27401F0E4A3F0A3F0A3F022900214ECF0EDA3F0EEA3F0EFA357
:20298A00F0900212E4F0A3F09000A2F0A3F0A3F0A3F0229000A2E0F5F0A3E042F0A3E042C4
:2029AA00F0A3E045F0700475820122900012E0FCA3E0FDA3E0FEA3E0FF90001AE0F8A3E0D1
:2029CA00F9A3E0FAA3E0FB90001AE8C39CF0E99DA3F0EA9EA3F0EB9FA3F0900210E4F0A3AE
:0829EA00F012032475820022A3
:0C357C0000000000000000000000000043
:2029F200AF83E5829001CCF0EFA3F09001CEE4F0A3F09001CAE0FEA3E0FF7D109001CCE012
:202A1200FBA3E0FC9001D0235401F0EB2BFBEC33FC9001CCEBF0ECA3F09001CEE0FBA3E0C1
:202A3200FCEB2BFBEC33FC9001CEEBF0ECA3F09001D0E060089001CEE043E001F09001CE48
:202A5200E0FBA3E0FCC3EB9EEC9F40139001CEEBC39EF0EC9FA3F09001CCE043E001F0DDF9
:0D2A72009B9001CCE0FEA3E08E82F5832254
:202A7F00AF82AE83ADF0FC9001D5EFF0EEA3F0EDA3F0ECA3F09001D9E4F09001D5E0FCA354
:202A9F00E0FDA3E0FEA3E0FF7B009001D1E0F54DA3E0F54EA3E0F54FA3E0F55023540170FB
:202ABF0074C003E54D254DF8E54E33F9E54F33FAE55033FB9001D1E8F0E9A3F0EAA3F0EBE3
:202ADF00A3F09001D1E0F54DA3E0F54EA3E0F54FA3E0F550C3EC954DED954EEE954FEF95B4
:202AFF0050D0035027E550C313F550E54F13F54FE54E13F54EE54D13F54D9001D1F0E54EAD
:202B1F00A3F0E54FA3F0E550A3F080090B9001D9EBF0022AA99001D9E0FF9001D5E0FBA399
:202B3F00E0FCA3E0FDA3E0FE9001D1E0F54DA3E0F54EA3E0F54FA3E0F550C3EB954DEC95AF
:202B5F004EED954FEE955040179001D5EBC3954DF0EC954EA3F0ED954FA3F0EE9550A3F0FB
:202B7F009001D1E0FBA3E0FCA3E0FDA3E0C313FEED13FDEC13FCEB139001D1F0ECA3F0EDEF
:1F2B9F00A3F0EEA3F08F061FEE708F9001D5E0FCA3E0FDA3E0FEA3E08C828D838EF022DE
:202BBE00122D1DBC00030230F5EF60FA30D502B2D1E583B4FF0302310BE582B4FF03023136
:202BDE000B258340072482400B0230F5248314500302310BF582EA8DF0A4A8F0EA8EF0A453
:202BFE0028F8E435F0F9EB8DF0A428E935F0F9E433CA8FF0A429F9EA35F0FAEBF88EF0A426
:202C1E0029F9EA35F0FAE433FBEC8DF0A429F9EA35F0FAE43BFBE88FF0A42AFAEB35F0FBCD
:202C3E00E433CCFD8EF0A42AFAEB35F0FBE43CFCED8FF0A42BFBEC35F0FC20E703122EB5E7
:032C5E000230D46D
:202C6100AF82AE83ADF0FC9001DEEFF0EEA3F0EDA3F0ECA3F09001DEE0FCA3E0FDA3E0FE3E
:202C8100A3E0FF30E70FC3E49CF8E49DF9E49EFAE49FFB80088C008D018E028F039001DAAD
:202CA100E0FCA3E0FDA3E0FEA3E0FF33E433F5486013C3E49CF549E49DF54AE49EF54BE4D3
:202CC1009FF54C80088C498D4A8E4B8F4C9001E2E549F0E54AA3F0E54BA3F0E54CA3F088C9
:202CE1008289838AF0EB122D4BAC82AD83AEF0FF9001DEE0A3E0A3E0A3E033E4336548602C
:1C2D010013C3E49CF8E49DF9E49EFAE49F888289838AF0228C828D838EF0EF2290
:202D1D00AA82AB83A2F73392D1F5826002D2F7ACF0E58124F9F8E6FD08E6FE0886F008E619
:0E2D3D00A2F73392D5F5836002D2F7AFF022F1
:202D4B00AF82AE83ADF0FC9001E6EFF0EEA3F0EDA3F0ECA3F09001EAE4F0A3F0A3F0A3F08F
:202D6B009001E2E0FCA3E0FDA3E0FEA3E0FF7B20C0039001E6E0F8A3E0F9A3E0FAA3E0FB52
:202D8B009001EE235401F0E828F8E933F9EA33FAEB33FB9001E6E8F0E9A3F0EAA3F0EBA31E
:202DAB00F09001EAE0F8A3E0F9A3E0FAA3E0FBE828F8E933F9EA33FAEB33FB9001EAE8F0AE
:202DCB00E9A3F0EAA3F0EBA3F0D0039001EEE060089001EAE043E001F09001EAE0F54DA328
:202DEB00E0F54EA3E0F54FA3E0F550C3E54D9CE54E9DE54F9EE5509F401F9001EAE54DC340
:202E0B009CF0E54E9DA3F0E54F9EA3F0E5509FA3F09001E6E043E001F01BEB6003022D7B6E
:142E2B009001E6E0FCA3E0FDA3E0FEA3E08C828D838EF022FE
:06009B00E478FFF6D8FD39
:202E3F00AFF0AE83E5829001F4F0EEA3F0EFA3F09001F4E0F550A3E0F551A3E0F552AA508D
:202E5F00AB51AC529001EFE0F54DA3E0F54EA3E0F54F9001F2E0F8A3E0F98806890718B865
:202E7F00FF0119EE4F6025854D82854E83854FF01231E6FFA385824D85834E8A828B838CCF
:162E9F00F0EF122F82A3AA82AB8380CE8550828551838552F02297
:202EB5007804EC7011E58224F8500AF582E4C9CACBFCD8EF22EC7820058220E713D582011C
:132ED50022C3E933F9EA33FAEB33FBEC33FCD8EA1582222A
:202EE800FCABF0AA83A982749EF582C2D1EC30E716D2D1E9F42401F9EAF43400FAEBF434E9
:0D2F080000FBECF43400FC122EB50230D4B6
:202F1500122F70C3749E95824039790012320230D126E9F42401F582EAF43400F583EBF4BE
:202F35003400F5F0ECF43400700AE582458345F0700122E430E70F22EC20E71489828A8393
:1B2F55008BF02230D10AE4F582F583F5F074802274FFF582F583F5F0747F228F
:200079007915E94400601B7A01903573780375A002E493F2A308B8000205A0D9F4DAF2756B
:02009900A0FFC6
:122F7000AA82AB83A2F73392D1F5826002D2F7ACF02266
:1B2F820020F71130F6138883A88220F509F6A8837583002280FEF280F5F0224E
:202F9D00AA83AB828BF09001F8E0A4F8A9F08AF0E0A429F98BF0A3E0A429F58388822222F0
:202FBD00A882A983AAF0FB88F09001FAE0A4FCADF089F0E0A42DFDE435F0FE88F0A3E0A41C
:202FDD002DFDE5F03EFEE433FF89F0E0A42EFEE5F03FFF88F0A3E0A42EFEE5F03FFF8AF0EF
:202FFD009001FAE0A42EFEE5F03FFF8BF0E0A42FFF8AF0A3E0A42FFF89F0A3E0A42FFF8814
:0C301D00F0A3E0A42F8EF08D838C8222A3
:20302900AF83E582900200F0EFA3F0900202E4F0900200E0FEA3E0FF7D009001FEE0FBA306
:20304900E0FC2354017036EB2BFBEC33FC9001FEEBF0ECA3F09001FEE0FBA3E0FCC3EE9B23
:20306900EF9C5011ECC313CB13CBFC9001FEEBF0ECA3F080080D900202EDF080BD90020234
:20308900E0FF900200E0FDA3E0FE9001FEE0FBA3E0FCC3ED9BEE9C400B900200EDC39BF082
:2030A900EE9CA3F09001FEE0FDA3E0C313CD13CDFE9001FEEDF0EEA3F08F061FEE70C39028
:0B30C9000200E0FEA3E08E82F58322EF
:2000A1007800E84400600A790175A000E4F309D8FC7802E84402600C7903900001E4F0A356
:0400C100D8FCD9FA94
:2030D400B98003EA13B34010EA2401FAE43BFBE43CFC50047C800582BC000EBB000BBA0040
:2030F40008E4F5F0F583F58222A2D1E582138CF092F78B838A8222E4F583F58275F080F400
:0F311400A2D11322E4F583F58275F0C0747F22F7
:20312300122D1D30D502B2D1BF0009BC000302311802310BBC00030230F5E583B4FF0BE5A5
:2031430082B4FF030231180230F5E582B4FF0302310BC395835007247F400B0230F524807C
:2031630014500302310BF582C3ED9AEE9BEF9C40111582C3EA33F9EB33FAEC33FBE433FCCC
:203183008005E4CCCBCAF9C08275F019C3E99DEA9EEB9FEC9400D5F002802D400EE99DF98D
:2031A300EA9EFAEB9FFBEC9400FCC3B3E833F8E58233F582E58333F583C3E933F9EA33FAED
:2031C300EB33FBEC33FC80C4B3E4F938FAE43582FBE43583FCD082500405827C80122EB566
:0331E3000230ECCB
:0D006C00758154123245E58260030200697F
:1C31E60020F71430F6148883A88220F507E6A88375830022E280F7E49322E022F8
:203202006040F82582500274FFF582E824F8501ECCCBCAF9E4CC24F85014CBCAF9E4CB24D4
:20322200F8500BCAF9E4CA24F8500379002224086010F8C3EC13FCEB13FBEA13FAE913F987
:03324200D8F1229E
:04324500758200226C
:00000001FF
