:0300000002004CAF
:200008000000E2FBEAF2802C0000E0FBEAF08024E6B50202EBF62200E2B50202EBF22200DE
:20002800E0B50202EBF02230F6E0A88220F5D3EAC6F582228B822230F6E6A88220F5D980EE
:01004800CFE8
:0300A5000200490D
:030049000201179A
:2000A800E582900001F0D2B4900001E0F59BE59A30E1FB539AFDC2B422AFF0AE83E58290F5
:2000C8000002F0EEA3F0EFA3F0900002E0FDA3E0FEA3E0FF8D828E838FF01208C8FC6023B1
:2000E8000DBD00010E900002EDF0EEA3F0EFA3F08C82C007C006C0051200A8D005D006D018
:200108000780D1900002EDF0EEA3F0EFA3F0225391FE5392FE5391FD43920253B1EF43B286
:2001280010C2B453BAFE538EFB538EEF438E0475D6FE75D780438E10759A509008E875F06B
:1D014800801200C1E59A30E0FB900005E59BF0539AFE900005E0F5821200A880E7C0
:0808E80052454144590D0A007C
:20016500AF82AE83ADF0FC90000BEFF0EEA3F0EDA3F0ECA3F0900007E0FCA3E0FDA3E0FE11
:20018500A3E0FFEC2CFCED33FDEE33FEEF33FFEC2CFCED33FDEE33FEEF33FF90000BE0F883
:2001A500A3E0F9A3E0FAA3E0FB900050ECF0EDA3F0EEA3F0EFA3F0888289838AF0EB1207F0
:2001C500D4AC82AD83AEF0FF90000FECF0EDA3F0EEA3F0EFA3F0900006E0702C90005074E7
:2001E5000CF0E4A3F0A3F0A3F08C828D838EF0EF1207D4AC82AD83AEF0FF90000FECF0ED86
:20020500A3F0EEA3F0EFA3F090000FE0FCA3E0FDA3E0FEA3E0FFC374FF9C74FF9DE49EE4FD
:200225009F500490000022C3E49CFCE49D8C82F58322E582900016F074FE558EFFE0FE4F2E
:20024500F58EEE702174BF558EFF900013E0030354C04FF58E5389CF900014E0FEA3E0F56E
:200265008D8E8BD28E2274FB558EFF900013E025E025E04FF58E900014E0FEA3E0F5D68E43
:20028500D774EF558E4410F58E22E58290001CF0C29FD29E900017E0FF900018E0FBA3E0E3
:2002A500FCA3E0FDA3E0FE900006EFF0900007EBF0ECA3F0EDA3F0EEA3F090800075F0510F
:2002C5007401C007120165AD82AE83D00790001CE0FC900013EFF0900014EDF0EEA3F08C96
:2002E50082020237E582900022F0D29FD29E90001DE0FF90001EE0FBA3E0FCA3E0FDA3E0BB
:20030500FE900006EFF0900007EBF0ECA3F0EDA3F0EEA3F090800075F0517401C00712015E
:2003250065AD82AE83D007900022E0FC900013EFF0900014EDF0EEA3F08C82020237E5825A
:20034500900023F0E0F59910990280FB22E582900024F0E0FFC4540F9008F393F582C007D2
:20036500120343D007740F5F9008F393F582020343AFF0AE83E582900025F0EEA3F0EFA39B
:20038500F0900025E0FDA3E0FEA3E0FF8D828E838FF01208C8FC60230DBD00010E90002545
:2003A500EDF0EEA3F0EFA3F08C82C007C006C005120343D005D006D00780D1900025EDF03B
:2003C500EEA3F0EFA3F022AF83E582900028F0EFA3F0900028E0FEA3E0FF8E9910990280C6
:2003E500FB8E828F8322E58290002EF0E0FF90002AE0FBA3E0FCA3E0FDA3E0FE900006EF2B
:20040500F0900007EBF0ECA3F0EDA3F0EEA3F090800075F0517401C007120165AD82AE831B
:20042500D00774FB558EFCEF2F25E04CF58E8D048E078FD68DD774EF558E4410F58E22E58D
:200445008290002FF0E0F59BE59A30E1FB539AFD22E582900030F0E0FFC4540F9008F39324
:20046500F582C007120444D007740F5F9008F393F582020444AFF0AE83E582900031F0EE71
:20048500A3F0EFA3F0900031E0FDA3E0FEA3E0FF8D828E838FF01208C8FC60230DBD0001D6
:2004A5000E900031EDF0EEA3F0EFA3F08C82C007C006C005120444D005D006D00780D1906B
:2004C5000031EDF0EEA3F0EFA3F022E582900038F053ACBF900038E0FF900034E0FBA3E03E
:2004E500FCA3E0FDA3E0FE900006EFF0900007EBF0ECA3F0EDA3F0EEA3F090800075F051CD
:200505007401C007120165AD82AE83D00774FB558EFCEF2F25E04CF58E8D048E078FD68D93
:20052500D774EF558E4410F58E22E58290003DF074BF55AC4440F5ACE0FF900039E0FBA3FD
:20054500E0FCA3E0FDA3E0FE900006EFF0900007EBF0ECA3F0EDA3F0EEA3F090800075F0DD
:20056500517401C007120165AD82AE83D00774FD55D1FCEF2F4CF5D18D048E078FD48DD58C
:2005850074F755D14408F5D122E582900042F05384BF900042E0FF90003EE0FBA3E0FCA356
:2005A500E0FDA3E0FE900006EFF0900007EBF0ECA3F0EDA3F0EEA3F090800075F051740136
:2005C500C007120165AD82AE83D00774FB558EFCEF2F25E04CF58E8D048E078FD68DD774FD
:2005E500EF558E4410F58E22E582900047F074BF55844440F584E0FF900043E0FBA3E0FCE8
:20060500A3E0FDA3E0FE900006EFF0900007EBF0ECA3F0EDA3F0EEA3F090800075F0517433
:2006250001C007120165AD82AE83D00774DF55D1FCEFC42354E04CF5D18D048E078FD28D99
:0A064500D3747F55D14480F5D12213
:20064F00900048E4F0A3F075BA8090FE01E0601C90FE01E4F0FEFF7D051EBEFF011FEE4F98
:20066F0070F7DDF5900048EEF0EFA3F0759D0275A619759F2C759E00900048E0FEA3E0FF27
:20068F001EBEFF011FEE4F70F7F5BA22E58290004BF0759D02E0F5A690004AE0F59F759EB9
:2006AF00007E007F001EBEFF011FEE4F70F722AF83E58290004CF0EFA3F090004CE0FEA329
:2006CF00E0FF9008F0E493FC740193FD1CBCFF011DEC4D70F71EBEFF011F90004CEEF0EFF3
:2006EF00A3F0EE4F70DC90004CEEF0EFA3F022AF83E58290004EF0EFA3F090004EE0FEA329
:20070F00E0FF9008F2E493FDDDFE1EBEFF011F90004EEEF0EFA3F0EE4F70E790004EEEF089
:04072F00EFA3F02222
:0308F00099090261
:20073300759850438E40538EFE53890F758B8F758DFDC2ABD28E22759850438E40538EFEA4
:2007530053890F758BCC758DFFC2ABD28E22759850438E40538EFE53890F758BA0758DFC09
:20077300C2ABD28E22759850438E40538EFE53890F758BB8758DFFC2ABD28E2275985043F7
:200793008E40538EFE53890F758B70758DFCC2ABD28E22759850438E40538EFE53890F75A4
:2007B3008B40758DFCC2ABD28E22759850438E40538EFE53890F758BB0758DFFC2ABD28EB8
:0107D3002203
:1008F3003031323334353637383941424344454653
:2007D400AF82AE83ADF0FC900054EFF0EEA3F0EDA3F0ECA3F0900058E4F0A3F0A3F0A3F052
:2007F400900050E0FCA3E0FDA3E0FEA3E0FF7B20C003900054E0F8A3E0F9A3E0FAA3E0FB15
:2008140090005C235401F0E828F8E933F9EA33FAEB33FB900054E8F0E9A3F0EAA3F0EBA3E0
:20083400F0900058E0F8A3E0F9A3E0FAA3E0FBE828F8E933F9EA33FAEB33FB900058E8F070
:20085400E9A3F0EAA3F0EBA3F0D00390005CE06008900058E043E001F0900058E0F508A3C2
:20087400E0F509A3E0F50AA3E0F50BC3E5089CE5099DE50A9EE50B9F401F900058E508C397
:200894009CF0E5099DA3F0E50A9EA3F0E50B9FA3F0900054E043E001F01BEB600302080409
:1408B400900054E0FCA3E0FDA3E0FEA3E08C828D838EF0222E
:06007B00E478FFF6D8FD59
:200059007900E94400601B7A00900903785D75A000E493F2A308B8000205A0D9F4DAF275E5
:02007900A0FFE6
:200081007800E84400600A790175A000E4F309D8FC785CE84400600C7901900001E4F0A320
:0400A100D8FCD9FAB4
:0D004C0075810B1208E4E582600302004993
:1C08C80020F71430F6148883A88220F507E6A88375830022E280F7E49322E0223F
:0408E40075820022F7
:00000001FF
