:0400000002006C325C
:03000B00020B2DB8
:0100130032BA
:01001B0032B2
:03002300020AD4FA
:200028000000E2FBEAF2802C0000E0FBEAF08024E6B50202EBF62200E2B50202EBF22200BE
:20004800E0B50202EBF02230F6E0A88220F5D3EAC6F582228B822230F6E6A88220F5D980CE
:01006800CFC8
:0300CA00020069C8
:030069000200CDC5
:2000CD0043BA80120A9F120940900016E09001FCF0E070069001FC7401F0D2A9D2ACD2AFBB
:1800ED009001FBE060FA121DEBC2AF9001FAE4F09001FBF0D2AF80E8E6
:20010500900001E4F0A3F075BA8090FE01E0601C90FE01E4F0FEFF7D051EBEFF011FEE4F2E
:2001250070F7DDF5900001EEF0EFA3F075BA00759D0075A600759F00759E00900001E0FE9E
:20014500A3E0FF1EBEFF011FEE4F70F722E582900004F0759D00E0F5A6900003E0F59F7563
:200165009E007E007F001EBEFF011FEE4F70F722AF83E582900005F0EFA3F0900005E0FE0B
:20018500A3E0FF902B32E493FC740193FD1CBCFF011DEC4D70F71EBEFF011F900005EEF070
:2001A500EFA3F0EE4F70DC900005EEF0EFA3F022AF83E582900007F0EFA3F0900007E0FE01
:2001C500A3E0FF902B34E493FDDDFE1EBEFF011F900007EEF0EFA3F0EE4F70E7900007EE4F
:0501E500F0EFA3F02281
:032B32006A0A022A
:2001EA00E582900009F0E0FF540124FF92D3EF03540124FF92D422E58290000AF074FD55A0
:20020A008EFFE025E04FF58E22AFF0AE83E58290000BF0EEA3F0EFA3F075BA8090000BE07F
:20022A00FDA3E0FEA3E0FF7C00EC2DF9E43EFA8F038C00C005C006C0077F0074E028F87433
:20024A00FD3FFF88828F83E089828A838BF012286B0CBC2000D007D006D00540CC75BA0080
:01026A002271
:20026B00759850438E40538EFE53890F758B8F758DFDC2ABD28E22759850438E40538EFE71
:20028B0053890F758BCC758DFFC2ABD28E22759850438E40538EFE53890F758BA0758DFCD6
:2002AB00C2ABD28E22759850438E40538EFE53890F758BB8758DFFC2ABD28E2275985043C4
:2002CB008E40538EFE53890F758B70758DFCC2ABD28E22759850438E40538EFE53890F7571
:2002EB008B40758DFCC2ABD28E22759850438E40538EFE53890F758BB0758DFFC2ABD28E85
:01030B0022CF
:102B350030313233343536373839414243444546EE
:0500C5009000C6E4F00C
:20030C0075F516747F55C74480F5C7C2AFE4F5C3F5C474FC55C54403F5C575C65A75C6A5FC
:20032C00000053C5FCD2AF7F00EF75F014A42445FD742B35F0FC7E809000B1EDF0ECA3F0D0
:20034C00EEA3F074132DF9E43CFA8E0389828A838BF0122ACF30E7030204CD74042DF9E4AB
:20036C003CFA8E0389828A838BF0122ACFFB703074052DF8E43CF98E02888289838AF01288
:20038C002ACFF8A3122ACFF988828983E09000ADF0E4A3F0A3F0A3F09000AC04F002042C97
:2003AC00BB01028003BB033F9000B1E0F9A3E0FAA3E0FB740529F9E43AFA89828A838BF098
:2003CC00122ACFF9A3122ACFFA89828A83E0FAA3E0FB9000ADEAF0EBA3F0E4A3F0A3F090C6
:2003EC0000AC7402F0803974052DFDE43CFC8D828C838EF0122ACFFDA3122ACFFC8D828C7E
:20040C0083E0FBA3E0FCA3E0FDA3E0FE9000ADEBF0ECA3F0EDA3F0EEA3F09000AC7404F0B6
:20042C009000ADE0F535A3E0F536A3E0F537A3E0F5389000B1E0F8A3E0F9A3E0FA740228AC
:20044C00F8E439F99000ACE0F533753400C3E5349533506DC007E534C40354F8F5F005F067
:20046C00AC35AD36AE37AF38800DC3EF13FFEE13FEED13FDEC13FCD5F0F08CC2C2AF88821A
:20048C0089838AF0122ACFFEA3122ACFFFAD347C00ED2EFEEC3FF5C3888289838AF0122AEF
:2004AC00CFFF2534F5C474FC55C54402F5C575C65A75C6A5000053C5FCD2AF0534D007802C
:2004CC008C0FBF2200500302033553C77F22AFF0AE83E5829000B4F0EEA3F0EFA3F090004E
:2004EC00B7E4F0A3F0A3F0A3F09000B4E0FDA3E0FEA3E0FF74132DFAE43EFB8F048A828B93
:20050C00838CF0122ACF30E7012274042DFDE43EFE8D828E838FF0122ACFFF600ABF0102F4
:20052C00800DBF031280089000BB7401F0800E9000BB7402F080069000BB7404F075F5161E
:20054C00747F55C74480F5C79000B4E0FDA3E0FEA3E0FF74022DFDE43EFE9000BBE0FC7B7A
:20056C0000C3EB9C40030205FAC004C2AF8D828E838FF0122ACFF9A3122ACFFA8B007C005A
:20058C00E829F9EC3AFA8AC38D828E838FF0122ACFFC2BF5C474FC55C54401F5C575C65A30
:2005AC0075C6A5000053C5FCD2AF85C233E4F534F535F536EBC40354F8F5F005F0A833A982
:2005CC0034AA35AC36800CE828F8E933F9EA33FAEC33FCD5F0F19000B7E048F0A3E049F06E
:2005EC00A3E04AF0A3E04CF00BD00402056D53C77F9000B4E0FDA3E0FEA3E0FF74042DFDC1
:20060C00E43EFE8D828E838FF0122ACFFFBF03189000B7E0FDA3E0FE9000B7EDF0EEA3F0E1
:20062C00EE3395E0A3F0A3F0BF04009000B4E0FDA3E0FEA3E0FF740B2DFCE43EFA8F038C29
:20064C00828A838BF0122ACFF9A3122ACFFAA3122ACFFBA3122ACFFC9000B7E0F533A3E0B3
:20066C00F534A3E0F535A3E0F536C3E53399E5349AE5359BE5369C402F740F2DFDE43EFE1B
:20068C008D828E838FF0122ACFFDA3122ACFFEA3122ACFFFA3122ACFFCC3ED9533EE953475
:2006AC00EF9535EC953650399000B4E0FDA3E0FEA3E0FF74072DFDE43EFE8D828E838FF0AD
:2006CC00122ACFFDA3122ACFFEA3122ACFFFA3122ACFFC9000B7EDF0EEA3F0EFA3F0ECA34D
:2006EC00F09000B4E0FDA3E0FEA3E0FF74042DFAE43EFB8F048A828B838CF0122ACFFC707E
:20070C002274052DF9E43EFA8F0389828A838BF0122ACFF9A3122ACFFA9000B7E089828A63
:20072C0083F022BC012A74052DF9E43EFA8F0389828A838BF0122ACFF9A3122ACFFA900015
:20074C00B7E0F8A3E0FB89828A83E8F0EBA3F022BC032A74052DF9E43EFA8F0389828A83A2
:20076C008BF0122ACFF9A3122ACFFA9000B7E0F8A3E0FB89828A83E8F0EBA3F022BC023C1F
:20078C0074052DF9E43EFA8F0389828A838BF0122ACFF9A3122ACFFA89338A349000B7E020
:2007AC00F9A3E0F8A3E0FAA3E0FB853382853483E9F0E8A3F0EAA3F0EBA3F022BC04337470
:2007CC00052DFDE43EFE8D828E838FF0122ACFFDA3122ACFFE9000B7E0FAA3E0FBA3E0FC4D
:2007EC00A3E0FF8D828E83EAF0EBA3F0ECA3F0EFA3F022AFF0AE83E5829000C0F0EEA3F0D8
:20080C00EFA3F09000C3E4F0A3F0A3F0FFEF75F014A42445FD742B35F0FE8D828E83A3A364
:20082C00A3A3A3E493FBA3E493FC9000C0E0F9A3E0FAEBB50112ECB5020E9000C3EDF0EE13
:20084C00A3F07480A3F080060FBF220040BF9000C3E0FDA3E0FEA3E0FFED4E700475820123
:20086C002274042DFAE43EFB8F048A828B838CF0122ACFFC702374052DF9E43EFA8F0389F5
:20088C00828A838BF0122ACFF9A3122ACFFA9000BCE089828A83F0806FBC01028003BC0372
:2008AC00349000C3E0FAA3E0FBA3E0FC74052AFAE43BFB8A828B838CF0122ACFFAA3122A9D
:2008CC00CFFB9000BCE0F9A3E0FC8A828B83E9F0ECA3F0803374052DFDE43EFE8D828E8396
:2008EC008FF0122ACFFDA3122ACFFE9000BCE0FAA3E0FBA3E0FCA3E0FF8D828E83EAF0EB2F
:20090C00A3F0ECA3F0EFA3F012030C758200227F00EF75F014A42445FD742B35F0FE7C804E
:20092C008D828E838CF0C0071204DAD0070FBF220040DE229000C6E0600B902DED75F08021
:20094C00120BD380FE9000C67401F0902DD975F0801204DA9000AAE0FEA3E0FFBEAA0FBF27
:20096C00550C902E0575F080120BD302091B902E2675F080120BD30209867F00EF75F0141B
:20098C00A42445FD742B35F0FC7E809000C7EDF0ECA3F0EEA3F074042DF9E43CFA8E03897D
:2009AC00828A838BF0122ACFFB703CC00774052DF8E43CF98E02888289838AF0122ACFF8CE
:2009CC00A3122ACFF98808890974072DF9E43CFA8E0789828A838FF0122ACF8508828509B3
:2009EC0083F0D007020A93BB01028003BB0351C0079000C7E0F50AA3E0F50BA3E0F50C743A
:200A0C0005250AF8E4350BFBAF0C88828B838FF0122ACFF8A3122ACFFB7407250AF9E435C5
:200A2C000BFAAF0C89828A838FF0122ACFF9A3122ACFFA88828B83E9F0EAA3F0D00780479B
:200A4C0074052DF9E43CFA8E0389828A838BF0122ACFF9A3122ACFFA74072DFDE43CFC8DB3
:200A6C00828C838EF0122ACFFDA3122ACFFCA3122ACFFEA3122ACFFB89828A83EDF0ECA3D0
:130A8C00F0EEA3F0EBA3F00FBF2200500302098802030C81
:202B4500000000000412000000000000000080FFFFFF7F80020004000416000100000001BC
:202B6500000000FE0000000004000800041A000000000000000080FFFFFF7F0006000C001A
:202B8500041E0002000000020000000900000000080010000422000000000000000080FF44
:202BA500FFFF7F000A0014000426000000000000000080FFFFFF7F000C001800042A0000FD
:202BC50000000000000080FFFFFF7F000E001C00042E000000000000000080FFFFFF7F009C
:202BE500100020000432000000000000000080FFFFFF7F00120024000436000000000000FE
:202C0500000080FFFFFF7F0014002800043A000000000000000080FFFFFF7F0016002C00FB
:202C2500043E000000000000000080FFFFFF7F00180030000442000000000000000080FF44
:202C4500FFFF7F001A0034000446000000000000000080FFFFFF7F001C003800044A0000BC
:202C650000000000000080FFFFFF7F001E003C00044E000000000000000080FFFFFF7F00AB
:202C8500200040000452000000000000000080FFFFFF7F00220044000456000000000000BD
:202CA500000080FFFFFF7F0024004800045A000000000000000080FFFFFF7F0026004C00DB
:202CC500045E000000000000000080FFFFFF7F00280050000462000000000000000080FF34
:202CE500FFFF7F002A0054000466000000000000000080FFFFFF7F0034005800046A000074
:202D050000000000000000010000000056005C00047200020000000000000005000000007E
:202D2500580060000476000A00000000000000E8030000005A006400047A00030000000028
:202D45000000000A000000005C006800047E00000000000000000032000000005E006C0022
:202D6500048200000000000000000010270000006000700004860001000000010000003203
:202D85000000000062007400048A000100000001000000640000000064007800048E0001F5
:202DA50000000001000000FA0000000066007C000492000000000000000000040000000097
:202DC500401FFFFF040E000000000000000080FFFFFF7F81F01F800001AA00AA55000000C9
:202DE500000000FFFF0000015245475F494E49542043414C4C454420414741494E0D0A0002
:202E050056616C696420436F6E66696720466F756E642E204C6F6164696E672E2E2E0D0A7E
:202E2500004E6F20436F6E66696720466F756E642E20496E697469616C697A696E672044A1
:0D2E4500656661756C74732E2E2E0D0A00EB
:200A9F00759850438E01438E0475D6FD75D7C0438E1053A23F5389F0438E80758C20758A8D
:200ABF0000C28DD2A9C28C22C28C758C20758A00C28DD28C22C0E0C082C083C007C006C02E
:200ADF0005C0D075D00030983690010AE599F0C2989001FAE0FFBF400050189001FAE0FF81
:200AFF0004F0EF24CAFFE43400FE90010AE08F828E83F0C28C758C20758A00C28DD28CD079
:200B1F00D0D005D006D007D083D082D0E032C0E0C082C083C28CC28D9001FAE060069001B9
:200B3F00FB7401F0D083D082D0E032E58290010BF0C29990010BE0F59910990280FB22AF60
:200B5F00F0AE83E58290010EF0EEA3F0EFA3F0C2AC90010EE0FDA3E0FEA3E0FF90010CE0F2
:200B7F00FBA3E0FC8B018C021BBBFF011CE94A60358D828E838FF0122ACFFAA3AD82AE8361
:200B9F0090010EEDF0EEA3F0EFA3F08A82C007C006C005C004C003120B4AD003D004D005EF
:200BBF00D006D00780BE90010EEDF0EEA3F0EFA3F0D2AC22AFF0AE83E582900111F0EEA3B2
:200BDF00F0EFA3F0900111E0FDA3E0FEA3E0FF8D828E838FF0122ACFFC60230DBD00010E00
:200BFF00900111EDF0EEA3F0EFA3F08C82C007C006C005120B4AD005D006D00780D1900129
:200C1F0011EDF0EEA3F0EFA3F022AF83E582900114F0EFA3F0900114E0F5F0A3E045F07060
:200C3F0006758230020B4A7F00900114E0FDA3E0FE900114E0F5F0A3E045F0605BEFFB3395
:200C5F0095E0FC0FEB2416FBEC3401FC9001F5740AF0E4A3F08D828E83C007C006C005C01B
:200C7F0004C003122912A982D003D004D005D0067430298B828C83F09001C1740AF0E4A3A4
:200C9F00F08D828E831222DBAD82AE83D007900114EDF0EEA3F080911FEF20E7188F06EE1B
:200CBF002416F582E43401F583E0F582C007120B4AD00780E322AF82AE83ADF0FC90011C4A
:200CDF00EFF0EEA3F0EDA3F0ECA3F090011CE0FCA3E0FDA3E0FEA3E0FF30E73375822DC05C
:200CFF0007C006C005C004120B4AD004D005D006D007C3E49CF8E49DF9E49EFAE49FFB9083
:200D1F00012CE8F0E9A3F0EAA3F0EBA3F0800E90012CECF0EDA3F0EEA3F0EFA3F090012CD1
:200D3F00E0F5F0A3E042F0A3E042F0A3E045F07006758230020B4A750F0090012CE0FBA3FA
:200D5F00E0FCA3E0FDA3E0FEEB4C4D4E6075E50FF93395E0FA050FE92420F50DEA3401F50A
:200D7F000E9001C8740AF0E4A3F0A3F0A3F08B828C838DF0EEC006C005C004C003122368AC
:200D9F00A882D003D004D005D006743028850D82850E83F09001D9740AF0E4A3F0A3F0A34D
:200DBF00F08B828C838DF0EE122634AC82AD83AEF0FF90012CECF0EDA3F0EEA3F0EFA3F01A
:200DDF00020D59AF0F1FEF20E7188F06EE2420F582E43401F583E0F582C007120B4AD00776
:200DFF0080E322A298E433F582229001FAE060FAC2AC9000CAE0FF9001FAE4F0D2AC8F820B
:010E1F0022B0
:032E52000000017C
:200E200074F755B24408F5B253B1F753B2FB53B1FBC2B322900130E4F0A3F0A3F0A3F0FE70
:200E4000FF20B2120EBE00010F8E048F05C3EC9430ED947540EB7E007F0030B20E0EBE0060
:200E6000010FC3EE9460EF94EA40EFC3EE9460EF94EA400890FFFF74FFF5F0227F00BF1869
:200E8000005052D2B30000000000900130E0FBA3E0FCA3E0FDA3E0FEEB2BFBEC33FCED33C3
:200EA000FDEE33FE900130EBF0ECA3F0EDA3F0EEA3F030B216900130E02401F0A3E0340095
:200EC000F0A3E03400F0A3E03400F0C2B300000000000F80A9D2B30000C2B300009001306C
:200EE000E0FCA3E0FDA3E0FEA3E0EE30E70F900130ECF0EDA3F0EEA3F074FFA3F090013019
:200F0000E0FCA3E0FDA3E0FEA3E08C828D838EF022E582900134F0900135E4F0A3F0A3F0D7
:200F2000A3F0900134E0FF751000751100C3E5119F5046C007120E34A982AA83ABF0FCD0A7
:200F400007B9FF0BBAFF08BBFF05BCFF028026C007900135E0F8A3E0FDA3E0FEA3E0FF906C
:200F60000135E928F0EA3DA3F0EB3EA3F0EC3FA3F00510D007051180B4E510700890FFFFD5
:200F800074FFF5F022AC107D007E007F00900135E0F8A3E0F9A3E0FAA3E0FB9001D1ECF04E
:130FA000EDA3F0EEA3F0EFA3F0888289838AF0EB02254ACF
:200FB3005392EF43911090FE31E054EFF075DE2F75BC802275BC8443BC40E5BC30E5FB5347
:150FD300BCDFAFBD7E00ACBE7D00EC4206ED42078E828F8322EF
:200FE8009001FDE4F0A3F0A3F0A3F0900201F0A3F0900139F090013AF022AF82AE83ADF022
:20100800FC90013DEFF0EEA3F0EDA3F0ECA3F09001FDE0F537A3E0F538A3E0F539A3E0F52C
:201028003A90013DE0F8A3E0F9A3E0FAA3E0FBE8C39537F8E99538F9EA9539FAEB953AFBCC
:20104800900141E8F0E9A3F0EAA3F0EBA3F0900076E0F533A3E0F534A3E0F535A3E0F53652
:20106800C3E53398E53499E5359AE53664808BF063F08095F04023E49533FCE49534FDE424
:201088009535FEE49536FFC3E89CE99DEA9EEB64808FF063F08095F05024EBA2E713FFEAF3
:2010A80013FEE913FDE8139001FD2537F0ED3538A3F0EE3539A3F0EF353AA3F0803C900030
:2010C80072E0FCA3E0A3E0A3E08CF005F0EB3392D2800EA2D2EB13FBEA13FAE913F9E8135C
:2010E800F8D5F0EF9001FDE82537F0E93538A3F0EA3539A3F0EB353AA3F090008AE0FCA320
:20110800E0FDA3E0FEA3E0FF900141E0F8A3E0F9A3E0FAA3E0FBC3E89CE99DEA9EEB6480A2
:201128008FF063F08095F0506EC3E49CFCE49DFDE49EFEE49FFFC3EC98ED99EE9AEF64802B
:201148008BF063F08095F0504E900201E0FEA3E0FF900086E0F537A3E0F538A3E0F539A3FD
:20116800E0F53A8E008F017C007D00C3E89537E99538EC9539ED6480853AF063F08095F082
:20118800500D90020174012EF0E43FA3F080139001397401F0800B900201E4F0A3F0900136
:2011A80039F0900139E07003021258900082E0FCA3E0FDA3E0FEA3E0FF9001FDE0F8A3E01B
:2011C800F9A3E0FAA3E0FBC3E89CE99DEA9EEB64808FF063F08095F05071C3E49CFCE49D97
:2011E800FDE49EFEE49FFFC3EC98ED99EE9AEF64808BF063F08095F05051C3E498E499E4AC
:201208009A74808BF063F08095F05020E824FFFCE934FFFDEA34FFFEEB34FFFF9001FDEC23
:20122800F0EDA3F0EEA3F0EFA3F08017EB30E7139001FD740128F0E439A3F0E43AA3F0E427
:201248003BA3F090013A7401F0800590013AE4F090013DE0FEA3E0FF90000EEEF0EFA3F038
:20126800E4A3F0A3F0229001FDE0FCA3E0FDA3E0FEA3E08C828D838EF022900139E581243A
:20128800FCF886070886060886F0E0CFC582CFCEC583CE12286BA3CFC582CFCEC583CEA356
:2012A800E0CFC582CFCEC583CE12286BA3CFC582CFCEC583CEA3E0CFC582CFCEC583CE120E
:1812C800286BA3CFC582CFCEC583CEA3E0CFC582CFCEC583CE02286B2E
:062E550000000000000077
:2012E000E582900149F012126EAC82AD83AEF0FFC007C006C005C004744EC0E07401C0E0A3
:20130000E4C0E01212821581158115819001E6744EF07401A3F0E4A3F09001E97404F0E473
:20132000A3F090014AF5F0122728D004D005D006D007900149E0FBE0703F90001AECF0EDEC
:20134000A3F0EEA3F0EFA3F0900022E4F0A3F0A3F0A3F0900145E0F512A3E0F513A3E0F5F8
:2013600014A3E0F515900046E512F0E513A3F0E514A3F0E515A3F08067EB75F004A4F51681
:2013800085F0172422F512E5173400F51390001AE0F8A3E0F9A3E0FAA3E0FBECC398FCED13
:2013A00099FDEE9AFEEF9BFF851282851383ECF0EDA3F0EEA3F0EFA3F0E5162446FEE51796
:2013C0003400FF900145E0FAA3E0FBA3E0FCA3E0FD8E828F83EAF0EBA3F0ECA3F0EDA3F034
:2013E000900149E0FF90001EE0F512A3E0F513A3E0F514A3E0F5158F0079007A007E00C338
:20140000E89512E99513EA9514EE64808515F063F08095F040177E000FBF00010E90001E05
:20142000EFF0EEA3F0EE3395E0A3F0A3F012030C7582002290001AE4F0A3F0A3F0A3F0908F
:20144000001EF0A3F0A3F0A3F0FFEF75F004A4FDAEF02422F582EE3400F583E4F0A3F0A3CE
:20146000F0A3F0ED2446F582EE3400F583E4F0A3F0A3F0A3F00FBF090040CF02030CAF82CC
:20148000AE83ADF0FC900152EFF0EEA3F0EDA3F0ECA3F090001AE0FCA3E0FDA3E0FEA3E036
:2014A000FF900152E0F8A3E0F9A3E0FAA3E0FBE8C39CFCE99DFDEA9EFEEB9FFF90001EE098
:2014C000F8A3E0F9A3E0FAA3E0FBC3E89402E99400EA9400EB648094805007900000E4F5BE
:2014E000F022E824FFF518E934FFF519EA34FFF51AEB34FFF51B751C00C000C001C002C0AA
:2015000003A81C79007A007B00C3E89518E99519EA951AEB6480851BF063F08095F0D00384
:20152000D002D001D00040030216C4C000C001C002C003E51CF51D04FBC2D575F004EB30E6
:20154000E704B2D5F404A430D50AF42401C5F0F43400C5F02422F582740035F0F583E0F81D
:20156000A3E0F9A3E0FAA3E0FBE51C75F004A4F51E85F01F2422F582E51F3400F583E0F5FD
:2015800020A3E0F521A3E0F522A3E0F523C3E52098E52199E5229AE52364808BF063F08083
:2015A00095F0D003D002D001D00040030216BFC000C001C002C003E51D04FBC2D575F0043F
:2015C000EB30E704B2D5F404A430D50AF42401C5F0F43400C5F02422F582740035F0F5835A
:2015E000E0F8A3E0F9A3E0FAA3E0FBC3E89CE99DEA9EEB64808FF063F08095F0D003D002FC
:20160000D001D00050030216BFC004C005C006C007900156E520F0E521A3F0E522A3F0E5F5
:2016200023A3F0E51D04FFC2D575F004EF30E704B2D5F404A430D50AF42401C5F0F43400BD
:20164000C5F0F52085F0212422F582E5213400F583E0FCA3E0FDA3E0FEA3E0FF90015AEC85
:20166000F0EDA3F0EEA3F0EFA3F0E51E2446F582E51F3400F583E0FCA3E0FDA3E0FEA3E003
:20168000FF90015EECF0EDA3F0EEA3F0EFA3F0E5202446F582E5213400F583E0FCA3E0FD09
:2016A000A3E0FEA3E0FF900162ECF0EDA3F0EEA3F0EFA3F0D007D006D005D0040217A805B9
:2016C0001C0214F9C004C005C006C007181888E075F004A42422F582740035F0F583E0F97D
:2016E000A3E0FAA3E0FBA3E0FF900156E9F0EAA3F0EBA3F0EFA3F088070FC2D575F004EFA3
:2017000030E704B2D5F404A430D50AF42401C5F0F43400C5F02422F582740035F0F583E023
:20172000FCA3E0FDA3E0FEA3E0FF90015AECF0EDA3F0EEA3F0EFA3F088E075F004A4244601
:20174000F582740035F0F583E0FCA3E0FDA3E0FEA3E0FF90015EECF0EDA3F0EEA3F0EFA344
:20176000F008C2D575F004E830E704B2D5F404A430D50AF42401C5F0F43400C5F02446F532
:2017800082740035F0F583E0FCA3E0FDA3E0FEA3E0FF900162ECF0EDA3F0EEA3F0EFA3F005
:2017A000D007D006D005D00490015AE0F524A3E0F525A3E0F526A3E0F527900156E0F52039
:2017C000A3E0F521A3E0F522A3E0F523E520B5242BE521B52526E522B52621E523B5271C29
:2017E00090015EE0F518A3E0F519A3E0F51AA3E0F51B851882851983851AF022ECC3952002
:20180000FCED9521FDEE9522FEEF9523FF90015EE0F518A3E0F519A3E0F51AA3E0F51B90C1
:201820000162E0F8A3E0F9A3E0FAA3E0FBE8C39518F8E99519F9EA951AFAEB951BFBE524E4
:20184000C39520F524E5259521F525E5269522F526E5279523F527C3EC94FFED947FEE949C
:2018600000EF64809480400302191AC3E49C74809D74FF9E747F8FF063F08095F040030215
:20188000191AC3E894FFE9947FEA9400EB64809480400302191AC3E49874809974FF9A74B5
:2018A0007F8BF063F08095F050709001F1E8F0E9A3F0EAA3F0EBA3F08C828D838EF0EF12A8
:2018C00028A685822085832185F022F5239001D1E524F0E525A3F0E526A3F0E527A3F08581
:2018E00020828521838522F0E52312254A85822085832185F022F523E5202518F520E521A1
:201900003519F521E522351AF522E523351BF5238520828521838522F0228C828D838EF0E1
:20192000EFC003C002C001C0001227D1AC82AD83AEF0FFD000D001D002D003888289838AC7
:20194000F0EBC007C006C005C0041227D1A882A983AAF0FBD004D005D006D007C000C001CA
:20196000C002C0038C828D838EF0EF1224A7AC82AD83AEF0FFE58124FCF5818524828525AE
:20198000838526F0E527C007C006C005C0041227D1A882A983AAF0FBD004D005D006D007BC
:2019A000C000C001C002C0038C828D838EF0EF122A0CAC82AD83AEF0FFE58124FCF5818CCB
:2019C000828D838EF0EF1227FEAC82AD83AEF0FF90015EE0F8A3E0F9A3E0FAA3E0FBEC2884
:1019E000FCED39FDEE3AFEEF3B8C828D838EF022CA
:2019F000AF83E582900189F0EFA3F090018B74FFF0A3F0900189E0FEA3E0FF900188E0FD30
:201A10007C00C3EC9D5059EC2EF582E43FF583E0FB7A0090018BE06BF0A3E06AF07B009085
:201A3000018BE0F9A3E0FAE930E01DC0058900EAC313C813C8FD6300016305A090018BE880
:201A5000F0EDA3F0D005800FEAC313C913C9FA90018BE9F0EAA3F00BBB080040C20C80A2D3
:201A700090018BE0FEA3E08E82F58322AF83E58290018DF0EFA3F090018DE0FEA3E0FF7D0B
:201A900000ED75F014A42445FB742B35F0FC8B828C83E493F9A3E493FAE9B5060DEAB50711
:201AB000097A808B828C838AF0220DBD220040D190000075F00022AF83E58290018FF0EFAF
:201AD000A3F090018FE0FEA3E0FF8E828F83A3A3E0FC7D008E828F83A3A3A3E07A00420576
:201AF000EA42048D828C83C007C006121A7CAB82AC83ADF0D006D007EB4C7001228E828F44
:201B100083E0900166F09001677403F0042BFAE43CFE8D078A828E838FF0122ACFFFBF01CB
:201B3000028003BF033B74052BFAE43CFE8D078A828E838FF0122ACFFAA3122ACFFE8A826A
:201B50008E83E0FEA3E0FF9001687402F08F02900169EAF090016AEEF09001917405F0805C
:201B70004B74052BFBE43CFC8B828C838DF0122ACFFBA3122ACFFC8B828C83E0FCA3E0FD8E
:201B9000A3E0FEA3E0FF9001687404F08F03900169EBF08E0390016AEBF08D0390016BEB8C
:201BB000F090016CECF09001917407F0900191E0FF900188F0900166C0071219F0AD82AEFF
:201BD00083D007900191EF04F0EF2466F582E43401F5838D07EFF0900191E0FF04F0EF249A
:201BF00066F582E43401F5838E05EDF0900191E0FE7F0090010CEEF0EFA3F0900166F5F09F
:201C1000020B5EAF83E582900192F0EFA3F0900192E0FEA3E0FF8E828F83A3A3E0FC7D00D7
:201C30008E828F83A3A3A3E07A004205EA42048D828C83C007C006121A7CAB82AC83ADF06C
:201C5000D006D007EB4C70012274042BF8E43CF98D02888289838AF0122ACFFABA010280E8
:201C700003BA0342C003C004C005900192E0F9A3E0FA740729F582E43AF583E0FD78007413
:201C90000829F582E43AF583E07B004200EB4205900194E8F0EDA3F0E4A3F0A3F0D005D0FB
:201CB00004D003021D36C003C004C00574072EF582E43FF583E0F87D00882B8D288D298DE1
:201CD0002A74082EF582E43FF583E0FA7B008B058A04E44228EB4229EC422AED422B7409C8
:201CF0002EF582E43FF583E0F879007C008C05890488017800E52A4204E52B4205740A2E50
:201D1000F582E43FF583E0FF7E007B007A00900194EF48F0EE49A3F0EB4CA3F0EA4DA3F0A5
:201D3000D005D004D00374052BFBE43CFC8B828C838DF0122ACFFBA3122ACFFC7F00900103
:201D500094E0F9A3E0FAA3E0FDA3E0FE9000BCE9F0EAA3F0EDA3F0EEA3F08B828C838FF04A
:201D70001207FF900192E0FEA3E0FF8E828F83E0900166F09001677410F08E828F83A3A3FB
:201D9000E0900168F08E828F83A3A3A3E0900169F08E828F83A3A3A3A3E090016AF08E820C
:201DB0008F83A3A3A3A3A3E090016BF09001887406F09001661219F0AE82AF838E059001EB
:201DD0006CEDF08F0690016DEEF090010C7408F0E4A3F0900166F5F0020B5E9001FBE07096
:201DF00001229001FBE4F09000CAE0FFBF0107900199E4F0801CEF70109000CBE0FFBF014D
:201E1000089001997401F080097582E1120B4A021F4F900199E0FF24CAFDE43400FE8D82CA
:201E30008E83A3E0FCBC033D9001FAE0FA7B008F007900EAC398FAEB99FBC3EA9408EB64C8
:201E500080948050187582E2C007120B4AD0079001FAE0C39FF582120B4A021F4F90019854
:201E70007406F08037BC102B9001FAE0FBE4FCFAEBC39FFBEC9AFCC3EB940DEC64809480FD
:201E900050097582E3120B4A021F4F900198740BF080097582E4120B4A021F4F900198E04C
:201EB000FF900188F08D828E83C007C006C0051219F0AB82AC83D005D006D0078B02EF2DF6
:201ED000F582E43EF583E0F9EAB501198C037C000FBF00010CEF2DF582EC3EF583E0FFEB6A
:201EF000B5070280087582E5120B4A80528D828E83A3A3E0FC7F008D828E83A3A3A3E07A53
:201F1000004207EA42048F828C83C006C005121A7CAB82AC83D005D006EB4C70087582E652
:201F3000120B4A801A8D828E83A3E0FFBF03098D828E83121AC780078D828E83121C13C266
:091F5000AC9001FAE4F0D2AC22DD
:201F5900AF83E58290019DF0EFA3F090019FE4F07436A3F0746EA3F07401A3F090019AE066
:201F7900701190019F7480F07484A3F0741EA3F0E4A3F090019DE0FEA3E0FF90019FE0FAF4
:201F9900A3E0FBA3E0FCA3E0FD9001D9EEF0EFA3F0E4A3F0A3F08A828B838CF0ED122634E8
:201FB900AC82AD83AEF0FF90019FECF0EDA3F0EEA3F0EFA3F090019FE0FCA3E0FDA3E0FE71
:201FD900A3E0FF90019BE0F52CA3E0F52DA82CA92D7A007B00C3E89CE99DEA9EEB9F5004C2
:201FF90090000022AA2CAB2DEAC39CFAEB9D8A82F58322E5829001A6F0747F558EFFE0FEB6
:202019000354804FF58E74FC5589FF9001A3E0FD4FF589BD022A9001A4E0FDA3E0FF9001C5
:202039009AEEF090019B74FFF0E4A3F08D828F83121F59AD82AF838D038F048B8C8D8A228A
:202059009001A4E0FDA3E0FF90019AEEF090019B74FFF0A3F08D828F83121F59AE82AF839B
:202079008E048F058D8C8E8A22E5829001AAF074BF558EFFE0FE030354C04FF58E74CF55C5
:2020990089FF9001A7E0FDC454F04FF589BD022A9001A8E0FDA3E0FF90019AEEF090019BFF
:2020B90074FFF0E4A3F08D828F83121F59AD82AF838D038F048B8D8D8B229001A8E0FDA3F3
:2020D900E0FF90019AEEF090019B74FFF0E4A3F08D828F83121F59AE82AF838E048F058D39
:2020F9008D8E8B22AF83E5829001ADF0EFA3F09001AFE4F07436A3F0746EA3F07401A3F0E8
:202119009001ACE070119001AF7480F07484A3F0741EA3F0E4A3F09001ABE0FE7F000EBE58
:2021390000010F9001ADE0FCA3E0FD9001EFECF0EDA3F08E828F83122886AE82AF8390012B
:20215900AFE0FAA3E0FBA3E0FCA3E0FD9001D9EEF0EFA3F0E4A3F0A3F08A828B838CF0ED09
:20217900122634AC82AD83AEF0FF9001AFECF0EDA3F0EEA3F0EFA3F09001AFE0FCA3E0FDA4
:20219900A3E0FEA3E0FFC374FF9C74FF9DE49EE49F50049000002274FFC39CFC74FF9D8CCC
:2021B90082F58322E5829001B6F09001B4E0FEA3E0FF9001B3E0FD9001B6E0FC9001ABED3A
:2021D900F09001ACECF08E828F83C005C0041220FDAE82AF83D004D00574FB558EFBEC2C93
:2021F90025E04BF58E43BA8090FEA2EDF053BA7F8E048F058DD68ED722E5829001BBF0909A
:2022190001B8E0FEA3E0FF9001B7E0FD9001BBE0FC9001ABEDF09001ACECF08E828F83C02B
:2022390005C0041220FDAE82AF83D004D00574FD55D1FBEC2C4BF5D143BA8090FEA3EDF03C
:2022590053BA7F8E048F058DD48ED574DF55AFFF9001BAE0C42354E04FF5AF22E582900146
:20227900C0F09001BDE0FEA3E0FF9001BCE0FD9001C0E0FC9001ABEDF09001ACECF08E824E
:202299008F83C005C0041220FDAE82AF83D004D00574DF55D1FBECC42354E04BF5D143BAC7
:2022B9008090FEA4EDF053BA7F8E048F058DD28ED374BF55AFFF9001BFE0030354C04FF540
:0222D900AF2232
:2022DB00AF83E5829001C3F0EFA3F09001C5E4F0A3F09001C1E0FEA3E0FF7D109001C3E054
:2022FB00FBA3E0FC9001C7235401F0EB2BFBEC33FC9001C3EBF0ECA3F09001C5E0FBA3E0FB
:20231B00FCEB2BFBEC33FC9001C5EBF0ECA3F09001C7E060089001C5E043E001F09001C58A
:20233B00E0FBA3E0FCC3EB9EEC9F40139001C5EBC39EF0EC9FA3F09001C3E043E001F0DD29
:0D235B009B9001C3E0FEA3E08E82F583227B
:20236800AF82AE83ADF0FC9001CCEFF0EEA3F0EDA3F0ECA3F09001D0E4F09001CCE0FCA38D
:20238800E0FDA3E0FEA3E0FF7B009001C8E0F533A3E0F534A3E0F535A3E0F536235401708A
:2023A80074C003E5332533F8E53433F9E53533FAE53633FB9001C8E8F0E9A3F0EAA3F0EB8C
:2023C800A3F09001C8E0F533A3E0F534A3E0F535A3E0F536C3EC9533ED9534EE9535EF9591
:2023E80036D0035027E536C313F536E53513F535E53413F534E53313F5339001C8F0E534D8
:20240800A3F0E535A3F0E536A3F080090B9001D0EBF00223929001D0E0FF9001CCE0FBA324
:20242800E0FCA3E0FDA3E0FE9001C8E0F533A3E0F534A3E0F535A3E0F536C3EB9533EC9558
:2024480034ED9535EE953640179001CCEBC39533F0EC9534A3F0ED9535A3F0EE9536A3F0D8
:202468009001C8E0FBA3E0FCA3E0FDA3E0C313FEED13FDEC13FCEB139001C8F0ECA3F0ED1F
:1F248800A3F0EEA3F08F061FEE708F9001CCE0FCA3E0FDA3E0FEA3E08C828D838EF02205
:2024A700122606BC00030229DEEF60FA30D502B2D1E583B4FF030229F4E582B4FF030229B7
:2024C700F4258340072482400B0229DE24831450030229F4F582EA8DF0A4A8F0EA8EF0A4C5
:2024E70028F8E435F0F9EB8DF0A428E935F0F9E433CA8FF0A429F9EA35F0FAEBF88EF0A444
:2025070029F9EA35F0FAE433FBEC8DF0A429F9EA35F0FAE43BFBE88FF0A42AFAEB35F0FBEB
:20252700E433CCFD8EF0A42AFAEB35F0FBE43CFCED8FF0A42BFBEC35F0FC20E70312279E23
:032547000229BDA9
:20254A00AF82AE83ADF0FC9001D5EFF0EEA3F0EDA3F0ECA3F09001D5E0FCA3E0FDA3E0FE6E
:20256A00A3E0FF30E70FC3E49CF8E49DF9E49EFAE49FFB80088C008D018E028F039001D1D4
:20258A00E0FCA3E0FDA3E0FEA3E0FF33E433F52E6013C3E49CF52FE49DF530E49EF531E459
:2025AA009FF53280088C2F8D308E318F329001D9E52FF0E530A3F0E531A3F0E532A3F088DA
:2025CA008289838AF0EB122634AC82AD83AEF0FF9001D5E0A3E0A3E0A3E033E433652E608B
:1C25EA0013C3E49CF8E49DF9E49EFAE49F888289838AF0228C828D838EF0EF22AF
:20260600AA82AB83A2F73392D1F5826002D2F7ACF0E58124F9F8E6FD08E6FE0886F008E637
:0E262600A2F73392D5F5836002D2F7AFF0220F
:20263400AF82AE83ADF0FC9001DDEFF0EEA3F0EDA3F0ECA3F09001E1E4F0A3F0A3F0A3F0BF
:202654009001D9E0FCA3E0FDA3E0FEA3E0FF7B20C0039001DDE0F8A3E0F9A3E0FAA3E0FB82
:202674009001E5235401F0E828F8E933F9EA33FAEB33FB9001DDE8F0E9A3F0EAA3F0EBA34E
:20269400F09001E1E0F8A3E0F9A3E0FAA3E0FBE828F8E933F9EA33FAEB33FB9001E1E8F0DE
:2026B400E9A3F0EAA3F0EBA3F0D0039001E5E060089001E1E043E001F09001E1E0F533A37B
:2026D400E0F534A3E0F535A3E0F536C3E5339CE5349DE5359EE5369F401F9001E1E533C337
:2026F4009CF0E5349DA3F0E5359EA3F0E5369FA3F09001DDE043E001F01BEB600302266402
:142714009001DDE0FCA3E0FDA3E0FEA3E08C828D838EF02225
:06009B00E478FFF6D8FD39
:20272800AFF0AE83E5829001EBF0EEA3F0EFA3F09001EBE0F536A3E0F537A3E0F538AA3625
:20274800AB37AC389001E6E0F533A3E0F534A3E0F5359001E9E0F8A3E0F98806890718B817
:20276800FF0119EE4F60258533828534838535F0122ACFFFA38582338583348A828B838C8D
:16278800F0EF12286BA3AA82AB8380CE8536828537838538F02221
:20279E007804EC7011E58224F8500AF582E4C9CACBFCD8EF22EC7820058220E713D582013A
:1327BE0022C3E933F9EA33FAEB33FBEC33FCD8EA15822248
:2027D100FCABF0AA83A982749EF582C2D1EC30E716D2D1E9F42401F9EAF43400FAEBF43407
:0D27F10000FBECF43400FC12279E0229BD11
:2027FE00122859C3749E958240397900122AEB30D126E9F42401F582EAF43400F583EBF41A
:20281E003400F5F0ECF43400700AE582458345F0700122E430E70F22EC20E71489828A83B1
:1B283E008BF02230D10AE4F582F583F5F074802274FFF582F583F5F0747F22AD
:200079007909E94400601B7A01902E5278FA75A001E493F2A308B8000205A0D9F4DAF275A9
:02009900A0FFC6
:12285900AA82AB83A2F73392D1F5826002D2F7ACF02284
:1B286B0020F71130F6138883A88220F509F6A8837583002280FEF280F5F0226C
:20288600AA83AB828BF09001EFE0A4F8A9F08AF0E0A429F98BF0A3E0A429F5838882222217
:2028A600A882A983AAF0FB88F09001F1E0A4FCADF089F0E0A42DFDE435F0FE88F0A3E0A443
:2028C6002DFDE5F03EFEE433FF89F0E0A42EFEE5F03FFF88F0A3E0A42EFEE5F03FFF8AF00D
:2028E6009001F1E0A42EFEE5F03FFF8BF0E0A42FFF8AF0A3E0A42FFF89F0A3E0A42FFF883B
:0C290600F0A3E0A42F8EF08D838C8222C1
:20291200AF83E5829001F7F0EFA3F09001F9E4F09001F7E0FEA3E0FF7D009001F5E0FBA34B
:20293200E0FC2354017036EB2BFBEC33FC9001F5EBF0ECA3F09001F5E0FBA3E0FCC3EE9B53
:20295200EF9C5011ECC313CB13CBFC9001F5EBF0ECA3F080080D9001F9EDF080BD9001F96F
:20297200E0FF9001F7E0FDA3E0FE9001F5E0FBA3E0FCC3ED9BEE9C400B9001F7EDC39BF0BD
:20299200EE9CA3F09001F5E0FDA3E0C313CD13CDFE9001F5EDF0EEA3F08F061FEE70C39058
:0B29B20001F7E0FEA3E08E82F5832217
:2000A1007800E84400600A790175A000E4F309D8FC78F9E84401600C7902900001E4F0A361
:0400C100D8FCD9FA94
:2029BD00B98003EA13B34010EA2401FAE43BFBE43CFC50047C800582BC000EBB000BBA005E
:2029DD0008E4F5F0F583F58222A2D1E582138CF092F78B838A8222E4F583F58275F080F41E
:0F29FD00A2D11322E4F583F58275F0C0747F2216
:202A0C0012260630D502B2D1BF0009BC0003022A010229F4BC00030229DEE583B4FF0BE53C
:202A2C0082B4FF03022A010229DEE582B4FF030229F4C395835007247F400B0229DE248013
:202A4C001450030229F4F582C3ED9AEE9BEF9C40111582C3EA33F9EB33FAEC33FBE433FC09
:202A6C008005E4CCCBCAF9C08275F019C3E99DEA9EEB9FEC9400D5F002802D400EE99DF9AB
:202A8C00EA9EFAEB9FFBEC9400FCC3B3E833F8E58233F582E58333F583C3E933F9EA33FA0B
:202AAC00EB33FBEC33FC80C4B3E4F938FAE43582FBE43583FCD082500405827C8012279EA2
:032ACC000229D507
:0D006C0075813A122B2EE5826003020069B7
:1C2ACF0020F71430F6148883A88220F507E6A88375830022E280F7E49322E02216
:202AEB006040F82582500274FFF582E824F8501ECCCBCAF9E4CC24F85014CBCAF9E4CB24F3
:202B0B00F8500BCAF9E4CA24F8500379002224086010F8C3EC13FCEB13FBEA13FAE913F9A5
:032B2B00D8F122BC
:042B2E00758200228A
:00000001FF
