:0400000002006C325C
:03000B00020B7372
:0100130032BA
:01001B0032B2
:03002300020B1AB3
:200028000000E2FBEAF2802C0000E0FBEAF08024E6B50202EBF62200E2B50202EBF22200BE
:20004800E0B50202EBF02230F6E0A88220F5D3EAC6F582228B822230F6E6A88220F5D980CE
:01006800CFC8
:0300CA00020069C8
:030069000200CDC5
:2000CD0043BA80120AE5120986900016E0900225F0E070069002257401F090343775F08075
:2000ED00120C19D2A9D2ACD2AF75C13512264B900224E060F4C2AF121E48900223E4F09068
:07010D000224F0D2AF80E2F2
:0A343700424F4F545F4F4B0D0A0047
:20011400900001E4F0A3F075BA8090FE01E0601C90FE01E4F0FEFF7D051EBEFF011FEE4F1F
:2001340070F7DDF5900001EEF0EFA3F075BA00759D0075A600759F00759E00900001E0FE8F
:20015400A3E0FF1EBEFF011FEE4F70F722E582900004F0759D00E0F5A6900003E0F59F7554
:200174009E007E007F001EBEFF011FEE4F70F722AF83E582900005F0EFA3F0900005E0FEFC
:20019400A3E0FF903441E493FC740193FD1CBCFF011DEC4D70F71EBEFF011F900005EEF049
:2001B400EFA3F0EE4F70DC900005EEF0EFA3F022AF83E582900007F0EFA3F0900007E0FEF2
:2001D400A3E0FF903443E493FDDDFE1EBEFF011F900007EEF0EFA3F0EE4F70E7900007EE28
:0501F400F0EFA3F02272
:033441006A0A0212
:2001F900E582900009F0E0FF540124FF92D3EF03540124FF92D422E58290000AF074FD5591
:200219008EFFE025E04FF58E22AFF0AE83E58290000BF0EEA3F0EFA3F075BA8090000BE070
:20023900FDA3E0FEA3E0FF7C00EC2DF9E43EFA8F038C00C005C006C0077F0074E028F87424
:20025900FD3FFF88828F83E089828A838BF01231700CBC2000D007D006D00540CC75BA0063
:010279002262
:20027A00759850438E40538EFE53890F758B8F758DFDC2ABD28E22759850438E40538EFE62
:20029A0053890F758BCC758DFFC2ABD28E22759850438E40538EFE53890F758BA0758DFCC7
:2002BA00C2ABD28E22759850438E40538EFE53890F758BB8758DFFC2ABD28E2275985043B5
:2002DA008E40538EFE53890F758B70758DFCC2ABD28E22759850438E40538EFE53890F7562
:2002FA008B40758DFCC2ABD28E22759850438E40538EFE53890F758BB0758DFFC2ABD28E76
:01031A0022C0
:1034440030313233343536373839414243444546D6
:0500C5009000C6E4F00C
:20031B0075F516747F55C74480F5C7C2AFE4F5C3F5C474FC55C54403F5C575C65A75C6A5ED
:20033B00000053C5FCD2AF7F00EF75F014A42454FD743435F0FC7E809000B1EDF0ECA3F0A9
:20035B00EEA3F074132DF9E43CFA8E0389828A838BF01233D430E7030204DC74042DF9E47F
:20037B003CFA8E0389828A838BF01233D4FB703074052DF8E43CF98E02888289838AF0126B
:20039B0033D4F8A31233D4F988828983E09000ADF0E4A3F0A3F0A3F09000AC04F002043B5D
:2003BB00BB01028003BB033F9000B1E0F9A3E0FAA3E0FB740529F9E43AFA89828A838BF089
:2003DB001233D4F9A31233D4FA89828A83E0FAA3E0FB9000ADEAF0EBA3F0E4A3F0A3F0909B
:2003FB0000AC7402F0803974052DFDE43CFC8D828C838EF01233D4FDA31233D4FC8D828C53
:20041B0083E0FBA3E0FCA3E0FDA3E0FE9000ADEBF0ECA3F0EDA3F0EEA3F09000AC7404F0A7
:20043B009000ADE0F553A3E0F554A3E0F555A3E0F5569000B1E0F8A3E0F9A3E0FA74022825
:20045B00F8E439F99000ACE0F551755200C3E5529551506DC007E552C40354F8F5F005F0C2
:20047B00AC53AD54AE55AF56800DC3EF13FFEE13FEED13FDEC13FCD5F0F08CC2C2AF888293
:20049B0089838AF01233D4FEA31233D4FFAD527C00ED2EFEEC3FF5C3888289838AF012339D
:2004BB00D4FF2552F5C474FC55C54402F5C575C65A75C6A5000053C5FCD2AF0552D00780DC
:2004DB008C0FBF2200500302034453C77F22AFF0AE83E5829000B4F0EEA3F0EFA3F0900030
:2004FB00B7E4F0A3F0A3F0A3F09000B4E0FDA3E0FEA3E0FF74132DFAE43EFB8F048A828B84
:20051B00838CF01233D430E7012274042DFDE43EFE8D828E838FF01233D4FF600ABF0102C9
:20053B00800DBF031280089000BB7401F0800E9000BB7402F080069000BB7404F075F5160F
:20055B00747F55C74480F5C79000B4E0FDA3E0FEA3E0FF74022DFDE43EFE9000BBE0FC7B6B
:20057B0000C3EB9C4003020609C004C2AF8D828E838FF01233D4F9A31233D4FA8B007C001F
:20059B00E829F9EC3AFA8AC38D828E838FF01233D4FC2BF5C474FC55C54401F5C575C65A13
:2005BB0075C6A5000053C5FCD2AF85C251E4F552F553F554EBC40354F8F5F005F0A851A9DD
:2005DB0052AA53AC54800CE828F8E933F9EA33FAEC33FCD5F0F19000B7E048F0A3E049F005
:2005FB00A3E04AF0A3E04CF00BD00402057C53C77F9000B4E0FDA3E0FEA3E0FF74042DFDA3
:20061B00E43EFE8D828E838FF01233D4FFBF03189000B7E0FDA3E0FE9000B7EDF0EEA3F0C4
:20063B00EE3395E0A3F0A3F0BF04009000B4E0FDA3E0FEA3E0FF740B2DFCE43EFA8F038C1A
:20065B00828A838BF01233D4F9A31233D4FAA31233D4FBA31233D4FC9000B7E0F551A3E04E
:20067B00F552A3E0F553A3E0F554C3E55199E5529AE5539BE5549C402F740F2DFDE43EFE3A
:20069B008D828E838FF01233D4FDA31233D4FEA31233D4FFA31233D4FCC3ED9551EE9552F2
:2006BB00EF9553EC955450399000B4E0FDA3E0FEA3E0FF74072DFDE43EFE8D828E838FF062
:2006DB001233D4FDA31233D4FEA31233D4FFA31233D4FC9000B7EDF0EEA3F0EFA3F0ECA306
:2006FB00F09000B4E0FDA3E0FEA3E0FF74042DFAE43EFB8F048A828B838CF01233D4FC7061
:20071B002274052DF9E43EFA8F0389828A838BF01233D4F9A31233D4FA9000B7E089828A38
:20073B0083F022BC012A74052DF9E43EFA8F0389828A838BF01233D4F9A31233D4FA9000EA
:20075B00B7E0F8A3E0FB89828A83E8F0EBA3F022BC032A74052DF9E43EFA8F0389828A8393
:20077B008BF01233D4F9A31233D4FA9000B7E0F8A3E0FB89828A83E8F0EBA3F022BC023CF4
:20079B0074052DF9E43EFA8F0389828A838BF01233D4F9A31233D4FA89518A529000B7E0B9
:2007BB00F9A3E0F8A3E0FAA3E0FB855182855283E9F0E8A3F0EAA3F0EBA3F022BC04337425
:2007DB00052DFDE43EFE8D828E838FF01233D4FDA31233D4FE9000B7E0FAA3E0FBA3E0FC22
:2007FB00A3E0FF8D828E83EAF0EBA3F0ECA3F0EFA3F022AFF0AE83E5829000C0F0EEA3F0C9
:20081B00EFA3F09000C3E4F0A3F0A3F0FFEF75F014A42454FD743435F0FE8D828E83A3A33D
:20083B00A3A3A3E493FBA3E493FC9000C0E0F9A3E0FAEBB50112ECB5020E9000C3EDF0EE04
:20085B00A3F07480A3F080060FBF220040BF9000C3E0FDA3E0FEA3E0FFED4E700475820114
:20087B002274132DFAE43EFB8F048A828B838CF01233D430E0047582022274042DFAE43E3E
:20089B00FB8F048A828B838CF01233D4FC702374052DF9E43EFA8F0389828A838BF012334C
:2008BB00D4F9A31233D4FA9000BCE089828A83F0806FBC01028003BC03349000C3E0FAA372
:2008DB00E0FBA3E0FC74052AFAE43BFB8A828B838CF01233D4FAA31233D4FB9000BCE0F967
:2008FB00A3E0FC8A828B83E9F0ECA3F0803374052DFDE43EFE8D828E838FF01233D4FDA31E
:20091B001233D4FE9000BCE0FAA3E0FBA3E0FCA3E0FF8D828E83EAF0EBA3F0ECA3F0EFA377
:20093B00F09000C3E0FDA3E0FEA3E0FF74132DFDE43EFE8D828E838FF01233D420E70312D4
:20095B00031B758200227F00EF75F014A42454FD743435F0FE7C808D828E838CF0C0071209
:20097B0004E9D0070FBF220040DE229000C6E0600B9036FC75F080120C1980FE9000C674A1
:20099B0001F09036E875F0801204E99000AAE0FEA3E0FFBEAA0FBF550C90371475F08012B6
:2009BB000C1902096190373575F080120C190209CC7F00EF75F014A42454FD743435F0FCD3
:2009DB007E809000C7EDF0ECA3F0EEA3F074042DF9E43CFA8E0389828A838BF01233D4FBDA
:2009FB00703CC00774052DF8E43CF98E02888289838AF01233D4F8A31233D4F988088909AA
:200A1B0074072DF9E43CFA8E0789828A838FF01233D4850882850983F0D007020AD9BB0133
:200A3B00028003BB0351C0079000C7E0F50AA3E0F50BA3E0F50C7405250AF8E4350BFBAF95
:200A5B000C88828B838FF01233D4F8A31233D4FB7407250AF9E4350BFAAF0C89828A838FED
:200A7B00F01233D4F9A31233D4FA88828B83E9F0EAA3F0D007804774052DF9E43CFA8E034D
:200A9B0089828A838BF01233D4F9A31233D4FA74072DFDE43CFC8D828C838EF01233D4FD6D
:200ABB00A31233D4FCA31233D4FEA31233D4FB89828A83EDF0ECA3F0EEA3F0EBA3F00FBFB1
:0A0ADB00220050030209CE02031BA3
:20345400000000000412000000000000000080FFFFFF7F80020004000416000100000001A4
:20347400000000FE0000000004000800041A000000000000000080FFFFFF7F0006000C0002
:20349400041E0002000000020000000900000000080010000422000000000000000080FF2C
:2034B400FFFF7F000A0014000426000000000000000080FFFFFF7F000C001800042A0000E5
:2034D40000000000000080FFFFFF7F000E001C00042E000000000000000080FFFFFF7F0084
:2034F400100020000432000000000000000080FFFFFF7F00120024000436000000000000E6
:20351400000080FFFFFF7F0014002800043A000000000000000080FFFFFF7F0016002C00E3
:20353400043E000000000000000080FFFFFF7F00180030000442000000000000000080FF2C
:20355400FFFF7F001A0034000446000000000000000080FFFFFF7F001C003800044A0000A4
:2035740000000000000080FFFFFF7F001E003C00044E000000000000000080FFFFFF7F0093
:20359400200040000452000000000000000080FFFFFF7F00220044000456000000000000A5
:2035B400000080FFFFFF7F0024004800045A000000000000000080FFFFFF7F0026004C00C3
:2035D400045E000000000000000080FFFFFF7F00280050000462000000000000000080FF1C
:2035F400FFFF7F002A0054000466000000000000000080FFFFFF7F0034005800046A00005C
:2036140000000000000000010000000056005C000472000200000000000000050000000066
:20363400580060000476000A00000000000000E8030000005A006400047A00030000000010
:203654000000000A000000005C006800047E00000000000000000032000000005E006C000A
:203674000482000000000000000000102700000060007000048600010000000100000032EB
:203694000000000062007400048A000100000001000000640000000064007800048E0001DD
:2036B40000000001000000FA0000000066007C00049200000000000000000004000000007F
:2036D400401FFFFF040E000000000000000080FFFFFF7F81F01F800001AA00AA55000000B1
:2036F400000000FFFF0000015245475F494E49542043414C4C454420414741494E0D0A00EA
:2037140056616C696420436F6E66696720466F756E642E204C6F6164696E672E2E2E0D0A66
:20373400004E6F20436F6E66696720466F756E642E20496E697469616C697A696E67204489
:0D375400656661756C74732E2E2E0D0A00D3
:200AE500759850438E01438E0475D6FD75D7C0438E1053A23F5389F0438E80758C20758A47
:200B050000C28DD2A9C28C22C28C758C20758A00C28DD28C22C0E0C082C083C007C006C0E7
:200B250005C0D075D00030983690010AE599F0C298900223E0FFBF40005018900223E0FFE6
:200B450004F0EF24CAFFE43400FE90010AE08F828E83F0C28C758C20758A00C28DD28CD032
:200B6500D0D005D006D007D083D082D0E032C0E0C082C083C28CC28D900223E06006900248
:200B8500247401F0D083D082D0E032E58290010BF0C29990010BE0F59910990280FB22AFF1
:200BA500F0AE83E58290010EF0EEA3F0EFA3F0C2AC90010EE0FDA3E0FEA3E0FF90010CE0AC
:200BC500FBA3E0FC8B018C021BBBFF011CE94A60358D828E838FF01233D4FAA3AD82AE830D
:200BE50090010EEDF0EEA3F0EFA3F08A82C007C006C005C004C003120B90D003D004D00563
:200C0500D006D00780BE90010EEDF0EEA3F0EFA3F0D2AC22AFF0AE83E582900111F0EEA36B
:200C2500F0EFA3F0900111E0FDA3E0FEA3E0FF8D828E838FF01233D4FC60230DBD00010EAB
:200C4500900111EDF0EEA3F0EFA3F08C82C007C006C005120B90D005D006D00780D190019C
:200C650011EDF0EEA3F0EFA3F022AF83E582900114F0EFA3F0900114E0F5F0A3E045F0701A
:200C850006758230020B907F00900114E0FDA3E0FE900114E0F5F0A3E045F0605BEFFB3309
:200CA50095E0FC0FEB2416FBEC3401FC90021E740AF0E4A3F08D828E83C007C006C005C0AB
:200CC50004C003123217A982D003D004D005D0067430298B828C83F09001EA740AF0E4A327
:200CE500F08D828E83122BE0AD82AE83D007900114EDF0EEA3F080911FEF20E7188F06EEC7
:200D05002416F582E43401F583E0F582C007120B90D00780E322AF82AE83ADF0FC90011CBD
:200D2500EFF0EEA3F0EDA3F0ECA3F090011CE0FCA3E0FDA3E0FEA3E0FF30E73375822DC015
:200D450007C006C005C004120B90D004D005D006D007C3E49CF8E49DF9E49EFAE49FFB90F6
:200D6500012CE8F0E9A3F0EAA3F0EBA3F0800E90012CECF0EDA3F0EEA3F0EFA3F090012C8B
:200D8500E0F5F0A3E042F0A3E042F0A3E045F07006758230020B90750F0090012CE0FBA36E
:200DA500E0FCA3E0FDA3E0FEEB4C4D4E6075E50FF93395E0FA050FE92420F50DEA3401F5C4
:200DC5000E9001F1740AF0E4A3F0A3F0A3F08B828C838DF0EEC006C005C004C003122C6D2F
:200DE500A882D003D004D005D006743028850D82850E83F0900202740AF0E4A3F0A3F0A3DD
:200E0500F08B828C838DF0EE122F39AC82AD83AEF0FF90012CECF0EDA3F0EEA3F0EFA3F0C5
:200E2500020D9FAF0F1FEF20E7188F06EE2420F582E43401F583E0F582C007120B90D007A3
:200E450080E322A298E433F58222900223E060FAC2AC9000CAE0FF900223E4F0D2AC8F8270
:010E6500226A
:0337610000000164
:200E660074F755B24408F5B253B1F753B2FB53B1FBC2B322900130E4F0A3F0A3F0A3F09098
:200E860001347420F074A1A3F07407A3F0E4A3F030B240900134E024FFFCA3E034FFFDA32A
:200EA600E034FFFEA3E034FFFF900134ECF0EDA3F0EEA3F0EFA3F0900134E0F5F0A3E042F3
:200EC600F0A3E042F0A3E045F070C590FFFF74FFF5F0227F00BF18005052D2B300000000F5
:200EE60000900130E0FBA3E0FCA3E0FDA3E0FEEB2BFBEC33FCED33FDEE33FE900130EBF0CC
:200F0600ECA3F0EDA3F0EEA3F030B216900130E02401F0A3E03400F0A3E03400F0A3E03498
:200F260000F0C2B300000000000F80A9D2B30000C2B30000900130E0FCA3E0FDA3E0FEA3D3
:200F4600E0EE30E70F900130ECF0EDA3F0EEA3F074FFA3F0900130E0FCA3E0FDA3E0FEA3B2
:200F6600E08C828D838EF022E582900138F0900139E4F0A3F0A3F0A3F0900138E0FF751029
:200F860000751100C3E5119F5046C007120E7AA982AA83ABF0FCD007B9FF0BBAFF08BBFF72
:200FA60005BCFF028026C007900139E0F8A3E0FDA3E0FEA3E0FF900139E928F0EA3DA3F052
:200FC600EB3EA3F0EC3FA3F00510D007051180B4E510700890FFFF74FFF5F022AC107D00AD
:200FE6007E007F00900139E0F8A3E0F9A3E0FAA3E0FB9001FAECF0EDA3F0EEA3F0EFA3F0EB
:0A100600888289838AF0EB022E4FE6
:201010005392EF43911090FE31E054EFF075DE2F75BC802275BC8443BC40E5BC30E5FB53E9
:15103000BCDFAFBD7E00ACBE7D00EC4206ED42078E828F832291
:20104500900226E4F0A3F0A3F0A3F090022AF0A3F090013DF090013EF022AF82AE83ADF069
:20106500FC900141EFF0EEA3F0EDA3F0ECA3F0900226E0F555A3E0F556A3E0F557A3E0F547
:2010850058900141E0F8A3E0F9A3E0FAA3E0FBE8C39555F8E99556F9EA9557FAEB9558FBD5
:2010A500900145E8F0E9A3F0EAA3F0EBA3F0900076E0F551A3E0F552A3E0F553A3E0F55479
:2010C500C3E55198E55299E5539AE55464808BF063F08095F04023E49551FCE49552FDE413
:2010E5009553FEE49554FFC3E89CE99DEA9EEB64808FF063F08095F05024EBA2E713FFEA5A
:2011050013FEE913FDE8139002262555F0ED3556A3F0EE3557A3F0EF3558A3F0803C900030
:2011250072E0FCA3E0A3E0A3E08CF005F0EB3392D2800EA2D2EB13FBEA13FAE913F9E813FE
:20114500F8D5F0EF900226E82555F0E93556A3F0EA3557A3F0EB3558A3F090008AE0FCA320
:20116500E0FDA3E0FEA3E0FF900145E0F8A3E0F9A3E0FAA3E0FBC3E89CE99DEA9EEB648041
:201185008FF063F08095F0506EC3E49CFCE49DFDE49EFEE49FFFC3EC98ED99EE9AEF6480CE
:2011A5008BF063F08095F0504E90022AE0FEA3E0FF900086E0F555A3E0F556A3E0F557A31D
:2011C500E0F5588E008F017C007D00C3E89555E99556EC9557ED64808558F063F08095F08F
:2011E500500D90022A74012EF0E43FA3F0801390013D7401F0800B90022AE4F0A3F0900183
:201205003DF090013DE070030212B5900082E0FCA3E0FDA3E0FEA3E0FF900226E0F8A3E02E
:20122500F9A3E0FAA3E0FBC3E89CE99DEA9EEB64808FF063F08095F05071C3E49CFCE49D39
:20124500FDE49EFEE49FFFC3EC98ED99EE9AEF64808BF063F08095F05051C3E498E499E44E
:201265009A74808BF063F08095F05020E824FFFCE934FFFDEA34FFFEEB34FFFF900226EC9C
:20128500F0EDA3F0EEA3F0EFA3F08017EB30E713900226740128F0E439A3F0E43AA3F0E4A0
:2012A5003BA3F090013E7401F0800590013EE4F0900141E0FEA3E0FF90000EEEF0EFA3F0CF
:2012C500E4A3F0A3F022900226E0FCA3E0FDA3E0FEA3E08C828D838EF02290013DE58124AF
:2012E500FCF886070886060886F0E0CFC582CFCEC583CE123170A3CFC582CFCEC583CEA3EB
:20130500E0CFC582CFCEC583CE123170A3CFC582CFCEC583CEA3E0CFC582CFCEC583CE12A2
:181325003170A3CFC582CFCEC583CEA3E0CFC582CFCEC583CE023170B4
:063764000000000000005F
:20133D00E58290014DF01212CBAC82AD83AEF0FFC007C006C005C0047452C0E07401C0E0E0
:20135D00E4C0E01212DF15811581158190020F7452F07401A3F0E4A3F09002127404F0E461
:20137D00A3F090014EF5F012302DD004D005D006D00790014DE0FBE0703F90001AECF0ED79
:20139D00A3F0EEA3F0EFA3F0900022E4F0A3F0A3F0A3F0900149E0F512A3E0F513A3E0F597
:2013BD0014A3E0F515900046E512F0E513A3F0E514A3F0E515A3F08067EB75F004A4F51624
:2013DD0085F0172422F512E5173400F51390001AE0F8A3E0F9A3E0FAA3E0FBECC398FCEDB6
:2013FD0099FDEE9AFEEF9BFF851282851383ECF0EDA3F0EEA3F0EFA3F0E5162446FEE51739
:20141D003400FF900149E0FAA3E0FBA3E0FCA3E0FD8E828F83EAF0EBA3F0ECA3F0EDA3F0D2
:20143D0090014DE0FF90001EE0F512A3E0F513A3E0F514A3E0F5158F0079007A007E00C3D6
:20145D00E89512E99513EA9514EE64808515F063F08095F040177E000FBF00010E90001EA8
:20147D00EFF0EEA3F0EE3395E0A3F0A3F012031B7582002290001AE4F0A3F0A3F0A3F09023
:20149D00001EF0A3F0A3F0A3F0FFEF75F004A4FDAEF02422F582EE3400F583E4F0A3F0A371
:2014BD00F0A3F0ED2446F582EE3400F583E4F0A3F0A3F0A3F00FBF090040CF02031BAF8260
:2014DD00AE83ADF0FC900156EFF0EEA3F0EDA3F0ECA3F090001AE0FCA3E0FDA3E0FEA3E0D5
:2014FD00FF900156E0F8A3E0F9A3E0FAA3E0FBE8C39CFCE99DFDEA9EFEEB9FFF90001EE037
:20151D00F8A3E0F9A3E0FAA3E0FBC3E89402E99400EA9400EB648094805007900000E4F560
:20153D00F022E824FFF518E934FFF519EA34FFF51AEB34FFF51B751C00C000C001C002C04C
:20155D0003A81C79007A007B00C3E89518E99519EA951AEB6480851BF063F08095F0D00327
:20157D00D002D001D0004003021721C000C001C002C003E51CF51D04FBC2D575F004EB302B
:20159D00E704B2D5F404A430D50AF42401C5F0F43400C5F02422F582740035F0F583E0F8C0
:2015BD00A3E0F9A3E0FAA3E0FBE51C75F004A4F51E85F01F2422F582E51F3400F583E0F5A0
:2015DD0020A3E0F521A3E0F522A3E0F523C3E52098E52199E5229AE52364808BF063F08026
:2015FD0095F0D003D002D001D000400302171CC000C001C002C003E51D04FBC2D575F00484
:20161D00EB30E704B2D5F404A430D50AF42401C5F0F43400C5F02422F582740035F0F583FC
:20163D00E0F8A3E0F9A3E0FAA3E0FBC3E89CE99DEA9EEB64808FF063F08095F0D003D0029E
:20165D00D001D000500302171CC004C005C006C00790015AE520F0E521A3F0E522A3F0E536
:20167D0023A3F0E51D04FFC2D575F004EF30E704B2D5F404A430D50AF42401C5F0F4340060
:20169D00C5F0F52085F0212422F582E5213400F583E0FCA3E0FDA3E0FEA3E0FF90015EEC24
:2016BD00F0EDA3F0EEA3F0EFA3F0E51E2446F582E51F3400F583E0FCA3E0FDA3E0FEA3E0A6
:2016DD00FF900162ECF0EDA3F0EEA3F0EFA3F0E5202446F582E5213400F583E0FCA3E0FDA8
:2016FD00A3E0FEA3E0FF900166ECF0EDA3F0EEA3F0EFA3F0D007D006D005D00402180505FA
:20171D001C021556C004C005C006C007181888E075F004A42422F582740035F0F583E0F9C1
:20173D00A3E0FAA3E0FBA3E0FF90015AE9F0EAA3F0EBA3F0EFA3F088070FC2D575F004EF41
:20175D0030E704B2D5F404A430D50AF42401C5F0F43400C5F02422F582740035F0F583E0C6
:20177D00FCA3E0FDA3E0FEA3E0FF90015EECF0EDA3F0EEA3F0EFA3F088E075F004A42446A0
:20179D00F582740035F0F583E0FCA3E0FDA3E0FEA3E0FF900162ECF0EDA3F0EEA3F0EFA3E3
:2017BD00F008C2D575F004E830E704B2D5F404A430D50AF42401C5F0F43400C5F02446F5D5
:2017DD0082740035F0F583E0FCA3E0FDA3E0FEA3E0FF900166ECF0EDA3F0EEA3F0EFA3F0A4
:2017FD00D007D006D005D00490015EE0F524A3E0F525A3E0F526A3E0F52790015AE0F520D4
:20181D00A3E0F521A3E0F522A3E0F523E520B5242BE521B52526E522B52621E523B5271CCB
:20183D00900162E0F518A3E0F519A3E0F51AA3E0F51B851882851983851AF022ECC39520A0
:20185D00FCED9521FDEE9522FEEF9523FF900162E0F518A3E0F519A3E0F51AA3E0F51B9060
:20187D000166E0F8A3E0F9A3E0FAA3E0FBE8C39518F8E99519F9EA951AFAEB951BFBE52483
:20189D00C39520F524E5259521F525E5269522F526E5279523F527C3EC94FFED947FEE943F
:2018BD0000EF648094804003021977C3E49C74809D74FF9E747F8FF063F08095F04003025B
:2018DD001977C3E894FFE9947FEA9400EB648094804003021977C3E49874809974FF9A749E
:2018FD007F8BF063F08095F0507090021AE8F0E9A3F0EAA3F0EBA3F08C828D838EF0EF1221
:20191D0031AB85822085832185F022F5239001FAE524F0E525A3F0E526A3F0E527A3F085EC
:20193D0020828521838522F0E523122E4F85822085832185F022F523E5202518F520E52135
:20195D003519F521E522351AF522E523351BF5238520828521838522F0228C828D838EF084
:20197D00EFC003C002C001C0001230D6AC82AD83AEF0FFD000D001D002D003888289838A5C
:20199D00F0EBC007C006C005C0041230D6A882A983AAF0FBD004D005D006D007C000C0015F
:2019BD00C002C0038C828D838EF0EF122DACAC82AD83AEF0FFE58124FCF581852482852543
:2019DD00838526F0E527C007C006C005C0041230D6A882A983AAF0FBD004D005D006D00751
:2019FD00C000C001C002C0038C828D838EF0EF123311AC82AD83AEF0FFE58124FCF5818C60
:201A1D00828D838EF0EF123103AC82AD83AEF0FF900162E0F8A3E0F9A3E0FAA3E0FBEC2813
:101A3D00FCED39FDEE3AFEEF3B8C828D838EF0226C
:201A4D00AF83E58290018DF0EFA3F090018F74FFF0A3F090018DE0FEA3E0FF90018CE0FDC2
:201A6D007C00C3EC9D5059EC2EF582E43FF583E0FB7A0090018FE06BF0A3E06AF07B009024
:201A8D00018FE0F9A3E0FAE930E01DC0058900EAC313C813C8FD6300016305A090018FE81B
:201AAD00F0EDA3F0D005800FEAC313C913C9FA90018FE9F0EAA3F00BBB080040C20C80A272
:201ACD0090018FE0FEA3E08E82F58322AF83E582900191F0EFA3F0900191E0FEA3E0FF7DA2
:201AED0000ED75F014A42454FB743435F0FC8B828C83E493F9A3E493FAE9B5060DEAB5079C
:201B0D00097A808B828C838AF0220DBD220040D190000075F00022AF83E582900193F0EF4D
:201B2D00A3F0900193E0FEA3E0FF8E828F83A3A3E0FC7D008E828F83A3A3A3E07A00420514
:201B4D00EA42048D828C83C007C006121AD9AB82AC83ADF0D006D007EB4C7001228E828F89
:201B6D0083E090016AF090016B7403F0042BFAE43CFE8D078A828E838FF01233D4FFBF0158
:201B8D00028003BF033B74052BFAE43CFE8D078A828E838FF01233D4FAA31233D4FE8A82F1
:201BAD008E83E0FEA3E0FF90016C7402F08F0290016DEAF090016EEEF09001957405F080EF
:201BCD004B74052BFBE43CFC8B828C838DF01233D4FBA31233D4FC8B828C83E0FCA3E0FD15
:201BED00A3E0FEA3E0FF90016C7404F08F0390016DEBF08E0390016EEBF08D0390016FEB1F
:201C0D00F0900170ECF09001957407F0900195E0FF90018CF090016AC007121A4DAD82AE2F
:201C2D0083D007900195EF04F0EF246AF582E43401F5838D07EFF0900195E0FF04F0EF2430
:201C4D006AF582E43401F5838E05EDF0900195E0FE7F0090010CEEF0EFA3F090016AF5F035
:201C6D00020BA4AF83E582900196F0EFA3F0900196E0FEA3E0FF8E828F83A3A3E0FC7D002C
:201C8D008E828F83A3A3A3E07A004205EA42048D828C83C007C006121AD9AB82AC83ADF0B2
:201CAD00D006D007EB4C70012274042BF8E43CF98D02888289838AF01233D4FABA0102807D
:201CCD0003BA0342C003C004C005900196E0F9A3E0FA740729F582E43AF583E0FD780074B2
:201CED000829F582E43AF583E07B004200EB4205900198E8F0EDA3F0E4A3F0A3F0D005D09A
:201D0D0004D003021D93C003C004C00574072EF582E43FF583E0F87D00882B8D288D298D26
:201D2D002A74082EF582E43FF583E0FA7B008B058A04E44228EB4229EC422AED422B74096A
:201D4D002EF582E43FF583E0F879007C008C05890488017800E52A4204E52B4205740A2EF2
:201D6D00F582E43FF583E0FF7E007B007A00900198EF48F0EE49A3F0EB4CA3F0EA4DA3F044
:201D8D00D005D004D00374052BFBE43CFC8B828C838DF01233D4FBA31233D4FC7F0090018A
:201DAD0098E0F9A3E0FAA3E0FDA3E0FE9000BCE9F0EAA3F0EDA3F0EEA3F08B828C838FF0E9
:201DCD0012080E900196E0FEA3E0FF8E828F83E090016AF090016B7410F08E828F83A3A382
:201DED00E090016CF08E828F83A3A3A3E090016DF08E828F83A3A3A3A3E090016EF08E82A3
:201E0D008F83A3A3A3A3A3E090016FF090018C7406F090016A121A4DAE82AF838E05900123
:201E2D0070EDF08F06900171EEF090010C7408F0E4A3F090016AF5F0020BA4900224E070BC
:201E4D000122900224E4F09000CAE0FFBF010790019DE4F0801CEF70109000CBE0FFBF01C1
:201E6D000890019D7401F080097582E1120B90021FAC90019DE0FF24CAFDE43400FE8D82C2
:201E8D008E83A3E0FCBC033D900223E0FA7B008F007900EAC398FAEB99FBC3EA9408EB6441
:201EAD0080948050187582E2C007120B90D007900223E0C39FF582120B90021FAC90019CE0
:201ECD007406F08037BC102B900223E0FBE4FCFAEBC39FFBEC9AFCC3EB940DEC6480948076
:201EED0050097582E3120B90021FAC90019C740BF080097582E4120B90021FAC90019CE0A1
:201F0D00FF90018CF08D828E83C007C006C005121A4DAB82AC83D005D006D0078B02EF2D36
:201F2D00F582E43EF583E0F9EAB501198C037C000FBF00010CEF2DF582EC3EF583E0FFEB0C
:201F4D00B5070280087582E5120B9080528D828E83A3A3E0FC7F008D828E83A3A3A3E07AAF
:201F6D00004207EA42048F828C83C006C005121AD9AB82AC83D005D006EB4C70087582E698
:201F8D00120B90801A8D828E83A3E0FFBF03098D828E83121B2480078D828E83121C70C208
:091FAD00AC900223E4F0D2AC2256
:201FB600AF83E5829001A1F0EFA3F09001A3E4F07436A3F0746EA3F07401A3F090019EE0FD
:201FD60070119001A37480F07484A3F0741EA3F0E4A3F09001A1E0FEA3E0FF9001A3E0FA8B
:201FF600A3E0FBA3E0FCA3E0FD900202EEF0EFA3F0E4A3F0A3F08A828B838CF0ED122F3953
:20201600AC82AD83AEF0FF9001A3ECF0EDA3F0EEA3F0EFA3F09001A3E0FCA3E0FDA3E0FE0B
:20203600A3E0FF90019FE0F52CA3E0F52DA82CA92D7A007B00C3E89CE99DEA9EEB9F500460
:2020560090000022AA2CAB2DEAC39CFAEB9D8A82F58322E5829001AAF0747F558EFFE0FE54
:202076000354804FF58E74FC5589FF9001A7E0FD4FF589BD022A9001A8E0FDA3E0FF900160
:202096009EEEF090019F74FFF0E4A3F08D828F83121FB6AD82AF838D038F048B8C8D8A22C8
:2020B6009001A8E0FDA3E0FF90019EEEF090019F74FFF0A3F08D828F83121FB6AE82AF83D5
:2020D6008E048F058D8C8E8A22E5829001AEF074BF558EFFE0FE030354C04FF58E74CF5564
:2020F60089FF9001ABE0FDC454F04FF589BD022A9001ACE0FDA3E0FF90019EEEF090019F92
:2021160074FFF0E4A3F08D828F83121FB6AD82AF838D038F048B8D8D8B229001ACE0FDA334
:20213600E0FF90019EEEF090019F74FFF0E4A3F08D828F83121FB6AE82AF838E048F058D76
:202156008D8E8B22AF83E5829001B1F0EFA3F09001B3E4F07436A3F0746EA3F07401A3F082
:202176009001B0E070119001B37480F07484A3F0741EA3F0E4A3F09001AFE0FE7F000EBEEF
:2021960000010F9001B1E0FCA3E0FD900218ECF0EDA3F08E828F8312318BAE82AF83900192
:2021B600B3E0FAA3E0FBA3E0FCA3E0FD900202EEF0EFA3F0E4A3F0A3F08A828B838CF0ED7E
:2021D600122F39AC82AD83AEF0FF9001B3ECF0EDA3F0EEA3F0EFA3F09001B3E0FCA3E0FD31
:2021F600A3E0FEA3E0FFC374FF9C74FF9DE49EE49F50049000002274FFC39CFC74FF9D8C6F
:2022160082F58322E5829001BAF09001B8E0FEA3E0FF9001B7E0FD9001BAE0FC9001AFEDC8
:20223600F09001B0ECF08E828F83C005C00412215AAE82AF83D004D00574FB558EFBEC2CD3
:2022560025E04BF58E43BA8090FEA2EDF053BA7F8E048F058DD68ED722E5829001BFF09038
:2022760001BCE0FEA3E0FF9001BBE0FD9001BFE0FC9001AFEDF09001B0ECF08E828F83C0BA
:2022960005C00412215AAE82AF83D004D00574FD55D1FBEC2C4BF5D143BA8090FEA3EDF081
:2022B60053BA7F8E048F058DD48ED574DF55AFFF9001BEE0C42354E04FF5AF22E5829001E5
:2022D600C4F09001C1E0FEA3E0FF9001C0E0FD9001C4E0FC9001AFEDF09001B0ECF08E82D9
:2022F6008F83C005C00412215AAE82AF83D004D00574DF55D1FBECC42354E04BF5D143BA0C
:202316008090FEA4EDF053BA7F8E048F058DD28ED374BF55AFFF9001C3E0030354C04FF5DE
:02233600AF22D4
:20233800120E7AAC82AD83AEF0FF90022CECF0EDA3F0EEA3F0EFA3F0900234E4F0A3F0A303
:20235800F0A3F0900232F0A3F0900230F0A3F022AF82AE83ADF0FC9001C5EFF0EEA3F0ED96
:20237800A3F0ECA3F090001EE0FCA3E0FDA3E0FEA3E0FFC3EC9402ED9400EE9400EF64800B
:2023980094805007900000E4F5F0229001C9E4F09001C5E0F8A3E0F9A3E0FAA3E0FBC000AC
:2023B800C001C002C003ECF52E14FB9001C9E0F52FC39BD003D002D001D000505FC004C06C
:2023D80005C006C007AF2F0FC2D575F004EF30E704B2D5F404A430D50AF42401C5F0F43434
:2023F80000C5F02422F582740035F0F583E0FCA3E0FDA3E0FEA3E0FFC3E89CE99DEA9EEBA3
:2024180064808FF063F08095F0D007D006D005D00440099001C9E52F04F080821CBCFF0906
:202438001DBDFF051EBEFF011F9001C9E0F879007A007B00C3E89CE99DEA9EEB64808FF068
:2024580063F08095F04008E52E24FE9001C9F09001C9E0FF75F004A4FDAEF02422F582EEB9
:202478003400F583E0F9A3E0FAA3E0FBA3E0FC9001CAE9F0EAA3F0EBA3F0ECA3F0ED244640
:20249800F582EE3400F583E0F530A3E0F531A3E0F532A3E0F5339001D2E530F0E531A3F0FF
:2024B800E532A3F0E533A3F00FC2D575F004EF30E704B2D5F404A430D50AF42401C5F0F4A2
:2024D8003400C5F0FFAEF02422F582EE3400F583E0F534A3E0F535A3E0F536A3E0F5379064
:2024F80001CEE534F0E535A3F0E536A3F0E537A3F0EF2446F582EE3400F583E0F538A3E0E8
:20251800F539A3E0F53AA3E0F53B9001D6E538F0E539A3F0E53AA3F0E53BA3F0E9B534189C
:20253800EAB53514EBB53610ECB5370C8530828531838532F0E533229001C5E0F8A3E0FDD2
:20255800A3E0FEA3E0FFE8C399F8ED9AFDEE9BFEEF9C88828D838EF0C004C003C002C001EC
:202578001230D685823C85833D85F03EF53FE538C39530F8E5399531FDE53A9532FEE53B3A
:20259800953388828D838EF01230D6A882AD83AEF0FFC000C005C006C007853C82853D831A
:2025B800853EF0E53F122DACA882AD83AEF0FFE58124FCF581D001D002D003D004E534C328
:2025D80099F9E5359AFAE5369BFBE5379C89828A838BF0C007C006C005C0001230D6A98252
:2025F800AA83ABF0FCD000D005D006D007C001C002C003C00488828D838EF0EF123311AC1A
:2026180082AD83AEF0FFE58124FCF5818C828D838EF0EF123103AC82AD83AEF0FFEC25304A
:20263800FCED3531FDEE3532FEEF35338C828D838EF02290000E7478F07456A3F07434A3AC
:20265800F07412A3F0120E7AAC82AD83AEF0FF9001DAECF0EDA3F0EEA3F0EFA3F0BCFF0A35
:20267800BDFF07BEFF04BFFF012290000EECF0EDA3F0EEA3F0EFA3F0900072E0F8A3E0F98A
:20269800A3E0FAA3E0FB900072E0F5F0A3E042F0A3E042F0A3E045F0701190022CECF0ED36
:2026B800A3F0EEA3F0EFA3F00227AA90022CE0F540A3E0F541A3E0F542A3E0F543ECC39554
:2026D80040F544ED9541F545EE9542F546EF9543F5479001E2E544F0E545A3F0E546A3F062
:2026F800E547A3F0900076E0F548A3E0F549A3E0F54AA3E0F54BC3E5489544E5499545E5E4
:202718004A9546E54B64808547F063F08095F04038C000C001C002C003C3E49548F8E495E1
:2027380049F9E4954AFAE4954BFBC3E54498E54599E5469AE54764808BF063F08095F0D004
:2027580003D002D001D000501090022CECF0EDA3F0EEA3F0EFA3F0803988F005F0A844A9B3
:2027780045AA46E547FB3392D2800EA2D2EB13FBEA13FAE913F9E813F8D5F0EF90022CE81A
:202798002540F0E93541A3F0EA3542A3F0EB3543A3F090022CE0FCA3E0FDA3E0FEA3E08C46
:2027B800828D838EF0122368AC82AD83AEF0FF90001AE0F8A3E0F9A3E0FAA3E0FBE82CFC50
:2027D800E93DFDEA3EFEEB3FFF9001DEECF0EDA3F0EEA3F0EFA3F090008EE0F548A3E0F5EE
:2027F80049A3E0F54AA3E0F54BC374019548E49549E4954A7480854BF063F08095F040030A
:2028180002297AEF30E7030228C7C000C001C002C0039001FA7402F0E4A3F0A3F0A3F085E8
:202838004882854983854AF0E54BC007C006C005C004122E4FA882A983AAF0FBD004D0053D
:20285800D006D007E82CF8E93DF9EA3EFAEB3FFB9001FAE548F0E549A3F0E54AA3F0E54BE6
:20287800A3F0888289838AF0EB122E4FA882A983AAF0FB90021AE548F0E549A3F0E54AA35C
:20289800F0E54BA3F0888289838AF0EB1231ABA882A983AAF0FB9001DEE8F0E9A3F0EAA3C9
:2028B800F0EBA3F0D003D002D001D00002297AC000C001C002C0039001FA7402F0E4A3F039
:2028D800A3F0A3F0854882854983854AF0E54BC007C006C005C004122E4FA882A983AAF096
:2028F800FBD004D005D006D007ECC398FCED99FDEE9AFEEF9BFF9001FAE548F0E549A3F031
:20291800E54AA3F0E54BA3F08C828D838EF0EFC003C002C001C000122E4FAC82AD83AEF0FE
:20293800FF90021AE548F0E549A3F0E54AA3F0E54BA3F08C828D838EF0EF1231ABAC82AD1D
:2029580083AEF0FFD000D001D002D0039001DEECF0EDA3F0EEA3F0EFA3F0D003D002D001B5
:20297800D0009001DEE0FCA3E0FDA3E0FEA3E0FF900012ECF0EDA3F0EEA3F0EFA3F0900010
:2029980082E0F548A3E0F549A3E0F54AA3E0F54BC3E49548E49549E4954A7480854BF0631A
:2029B800F08095F04003022A8FC000C001C002C003C3E49548F8E49549F9E4954AFAE49599
:2029D8004BFBC3E89CE99DEA9EEB64808FF063F08095F0D003D002D001D0004003022A8861
:2029F800C3EC9548ED9549EE954AEF6480854BF063F08095F05079C000C001C002C0039051
:202A18000230E02401F0A3E03400F090007EE0FAA3E0FB900218EAF0EBA3F090000AC00707
:202A3800C006C005C004C001C00012318BAA82AB83D000D001D004D005D006D007900230CD
:202A5800E0F8A3E0F9C3EA98EB99D003D002D001D000502390001AE8C39CF0E99DA3F0EAA4
:202A78009EA3F0EB9FA3F0900230E4F0A3F08007900230E4F0A3F0900234E0F8A3E0F9A35A
:202A9800E0FAA3E0FBECC398F8ED99F9EE9AFAEF9BFB9001E6E8F0E9A3F0EAA3F0EBA3F03B
:202AB80090008AE0F548A3E0F549A3E0F54AA3E0F54BC004C005C006C007C3E49548FCE407
:202AD8009549FDE4954AFEE4954BFFC3E89CE99DEA9EEB64808FF063F08095F0D007D006D7
:202AF800D005D004406DE54898E54999E54A9AE54B64808BF063F08095F04057900232E0F1
:202B1800FAA3E0FB8A008B01C3E894D0E99407500B90023274012AF0E43BA3F0900086E026
:202B3800FAA3E0FB900218EAF0EBA3F090000A12318BAA82AB83900232E0F8A3E0F9C3E87E
:202B58009AE99B402D9000A27401F0E4A3F0A3F0A3F022900234ECF0EDA3F0EEA3F0EFA347
:202B7800F0900232E4F0A3F09000A2F0A3F0A3F0A3F0229000A2E0F5F0A3E042F0A3E042B4
:202B9800F0A3E045F0700475820122900012E0FCA3E0FDA3E0FEA3E0FF90001AE0F8A3E0E1
:202BB800F9A3E0FAA3E0FB90001AE8C39CF0E99DA3F0EA9EA3F0EB9FA3F0900230E4F0A39E
:082BD800F012031B75820022BC
:0C376A0000000000000000000000000053
:202BE000AF83E5829001ECF0EFA3F09001EEE4F0A3F09001EAE0FEA3E0FF7D109001ECE0A2
:202C0000FBA3E0FC9001F0235401F0EB2BFBEC33FC9001ECEBF0ECA3F09001EEE0FBA3E071
:202C2000FCEB2BFBEC33FC9001EEEBF0ECA3F09001F0E060089001EEE043E001F09001EED8
:202C4000E0FBA3E0FCC3EB9EEC9F40139001EEEBC39EF0EC9FA3F09001ECE043E001F0DDC9
:0D2C60009B9001ECE0FEA3E08E82F5832244
:202C6D00AF82AE83ADF0FC9001F5EFF0EEA3F0EDA3F0ECA3F09001F9E4F09001F5E0FCA304
:202C8D00E0FDA3E0FEA3E0FF7B009001F1E0F551A3E0F552A3E0F553A3E0F55423540170DB
:202CAD0074C003E5512551F8E55233F9E55333FAE55433FB9001F1E8F0E9A3F0EAA3F0EBBF
:202CCD00A3F09001F1E0F551A3E0F552A3E0F553A3E0F554C3EC9551ED9552EE9553EF9588
:202CED0054D0035027E554C313F554E55313F553E55213F552E55113F5519001F1F0E55275
:202D0D00A3F0E553A3F0E554A3F080090B9001F9EBF0022C979001F9E0FF9001F5E0FBA351
:202D2D00E0FCA3E0FDA3E0FE9001F1E0F551A3E0F552A3E0F553A3E0F554C3EB9551EC958B
:202D4D0052ED9553EE955440179001F5EBC39551F0EC9552A3F0ED9553A3F0EE9554A3F0CF
:202D6D009001F1E0FBA3E0FCA3E0FDA3E0C313FEED13FDEC13FCEB139001F1F0ECA3F0EDBF
:1F2D8D00A3F0EEA3F08F061FEE708F9001F5E0FCA3E0FDA3E0FEA3E08C828D838EF022CE
:202DAC00122F0BBC00030232E3EF60FA30D502B2D1E583B4FF030232F9E582B4FF03023276
:202DCC00F9258340072482400B0232E324831450030232F9F582EA8DF0A4A8F0EA8EF0A496
:202DEC0028F8E435F0F9EB8DF0A428E935F0F9E433CA8FF0A429F9EA35F0FAEBF88EF0A436
:202E0C0029F9EA35F0FAE433FBEC8DF0A429F9EA35F0FAE43BFBE88FF0A42AFAEB35F0FBDD
:202E2C00E433CCFD8EF0A42AFAEB35F0FBE43CFCED8FF0A42BFBEC35F0FC20E7031230A307
:032E4C000232C28D
:202E4F00AF82AE83ADF0FC9001FEEFF0EEA3F0EDA3F0ECA3F09001FEE0FCA3E0FDA3E0FE0E
:202E6F00A3E0FF30E70FC3E49CF8E49DF9E49EFAE49FFB80088C008D018E028F039001FA9D
:202E8F00E0FCA3E0FDA3E0FEA3E0FF33E433F54C6013C3E49CF54DE49DF54EE49EF54FE4D3
:202EAF009FF55080088C4D8D4E8E4F8F50900202E54DF0E54EA3F0E54FA3F0E550A3F08894
:202ECF008289838AF0EB122F39AC82AD83AEF0FF9001FEE0A3E0A3E0A3E033E433654C6028
:1C2EEF0013C3E49CF8E49DF9E49EFAE49F888289838AF0228C828D838EF0EF22A1
:202F0B00AA82AB83A2F73392D1F5826002D2F7ACF0E58124F9F8E6FD08E6FE0886F008E629
:0E2F2B00A2F73392D5F5836002D2F7AFF02201
:202F3900AF82AE83ADF0FC900206EFF0EEA3F0EDA3F0ECA3F090020AE4F0A3F0A3F0A3F05D
:202F5900900202E0FCA3E0FDA3E0FEA3E0FF7B20C003900206E0F8A3E0F9A3E0FAA3E0FB20
:202F790090020E235401F0E828F8E933F9EA33FAEB33FB900206E8F0E9A3F0EAA3F0EBA3EC
:202F9900F090020AE0F8A3E0F9A3E0FAA3E0FBE828F8E933F9EA33FAEB33FB90020AE8F07C
:202FB900E9A3F0EAA3F0EBA3F0D00390020EE0600890020AE043E001F090020AE0F551A3D1
:202FD900E0F552A3E0F553A3E0F554C3E5519CE5529DE5539EE5549F401F90020AE551C30F
:202FF9009CF0E5529DA3F0E5539EA3F0E5549FA3F0900206E043E001F01BEB6003022F6962
:14301900900206E0FCA3E0FDA3E0FEA3E08C828D838EF022ED
:06009B00E478FFF6D8FD39
:20302D00AFF0AE83E582900214F0EEA3F0EFA3F0900214E0F554A3E0F555A3E0F556AA544B
:20304D00AB55AC5690020FE0F551A3E0F552A3E0F553900212E0F8A3E0F98806890718B81F
:20306D00FF0119EE4F60258551828552838553F01233D4FFA38582518583528A828B838CDB
:16308D00F0EF123170A3AA82AB8380CE8554828555838556F022AB
:2030A3007804EC7011E58224F8500AF582E4C9CACBFCD8EF22EC7820058220E713D582012C
:1330C30022C3E933F9EA33FAEB33FBEC33FCD8EA1582223A
:2030D600FCABF0AA83A982749EF582C2D1EC30E716D2D1E9F42401F9EAF43400FAEBF434F9
:0D30F60000FBECF43400FC1230A30232C2E7
:2031030012315EC3749E9582403979001233F030D126E9F42401F582EAF43400F583EBF4EF
:203123003400F5F0ECF43400700AE582458345F0700122E430E70F22EC20E71489828A83A3
:1B3143008BF02230D10AE4F582F583F5F074802274FFF582F583F5F0747F229F
:200079007915E94400601B7A01903761782375A002E493F2A308B8000205A0D9F4DAF2755B
:02009900A0FFC6
:12315E00AA82AB83A2F73392D1F5826002D2F7ACF02276
:1B31700020F71130F6138883A88220F509F6A8837583002280FEF280F5F0225E
:20318B00AA83AB828BF0900218E0A4F8A9F08AF0E0A429F98BF0A3E0A429F58388822222DF
:2031AB00A882A983AAF0FB88F090021AE0A4FCADF089F0E0A42DFDE435F0FE88F0A3E0A40B
:2031CB002DFDE5F03EFEE433FF89F0E0A42EFEE5F03FFF88F0A3E0A42EFEE5F03FFF8AF0FF
:2031EB0090021AE0A42EFEE5F03FFF8BF0E0A42FFF8AF0A3E0A42FFF89F0A3E0A42FFF8803
:0C320B00F0A3E0A42F8EF08D838C8222B3
:20321700AF83E582900220F0EFA3F0900222E4F0900220E0FEA3E0FF7D0090021EE0FBA395
:20323700E0FC2354017036EB2BFBEC33FC90021EEBF0ECA3F090021EE0FBA3E0FCC3EE9BF1
:20325700EF9C5011ECC313CB13CBFC90021EEBF0ECA3F080080D900222EDF080BD900222E3
:20327700E0FF900220E0FDA3E0FE90021EE0FBA3E0FCC3ED9BEE9C400B900220EDC39BF031
:20329700EE9CA3F090021EE0FDA3E0C313CD13CDFE90021EEDF0EEA3F08F061FEE70C390F6
:0B32B7000220E0FEA3E08E82F58322DF
:2000A1007800E84400600A790175A000E4F309D8FC7822E84402600C7903900001E4F0A336
:0400C100D8FCD9FA94
:2032C200B98003EA13B34010EA2401FAE43BFBE43CFC50047C800582BC000EBB000BBA0050
:2032E20008E4F5F0F583F58222A2D1E582138CF092F78B838A8222E4F583F58275F080F410
:0F330200A2D11322E4F583F58275F0C0747F2207
:20331100122F0B30D502B2D1BF0009BC00030233060232F9BC00030232E3E583B4FF0BE5F6
:2033310082B4FF030233060232E3E582B4FF030232F9C395835007247F400B0232E32480CD
:203351001450030232F9F582C3ED9AEE9BEF9C40111582C3EA33F9EB33FAEC33FBE433FCED
:203371008005E4CCCBCAF9C08275F019C3E99DEA9EEB9FEC9400D5F002802D400EE99DF99D
:20339100EA9EFAEB9FFBEC9400FCC3B3E833F8E58233F582E58333F583C3E933F9EA33FAFD
:2033B100EB33FBEC33FC80C4B3E4F938FAE43582FBE43583FCD082500405827C801230A386
:0333D1000232DAEB
:0D006C00758158123433E58260030200698B
:1C33D40020F71430F6148883A88220F507E6A88375830022E280F7E49322E02208
:2033F0006040F82582500274FFF582E824F8501ECCCBCAF9E4CC24F85014CBCAF9E4CB24E5
:20341000F8500BCAF9E4CA24F8500379002224086010F8C3EC13FCEB13FBEA13FAE913F997
:03343000D8F122AE
:04343300758200227C
:00000001FF
