:0400000002008C323C
:03000B00021AB91D
:0100130032BA
:01001B0032B2
:03002300021A605E
:01002B0032A2
:01003300329A
:01003B003292
:03004300021DCBD0
:200048000000E2FBEAF2802C0000E0FBEAF08024E6B50202EBF62200E2B50202EBF222009E
:20006800E0B50202EBF02230F6E0A88220F5D3EAC6F582228B822230F6E6A88220F5D980AE
:01008800CFA8
:0300EA0002008988
:030089000200ED85
:2000ED0043BA80121A2B121DAC1218CC90268675F080121B5FD2A9D2AC43AF01D2AF75C1FE
:1C010D0035120CCC9001D4E060F4C2AF12084B9001D3E4F09001D4F0D2AF80E2D8
:0A268600424F4F545F4F4B0D0A0006
:20012900900001E4F0A3F075BA8090FE01E0601C90FE01E4F0FEFF7D051EBEFF011FEE4F0A
:2001490070F7DDF5900001EEF0EFA3F0759D0275A619759F2C759E00900001E0FEA3E0FFE0
:200169001EBEFF011FEE4F70F7F5BA22E582900004F0759D02E0F5A6900003E0F59F759E72
:20018900007E007F001EBEFF011FEE4F70F722AF83E582900005F0EFA3F0900005E0FEA3E2
:2001A900E0FF902690E493FC740193FD1CBCFF011DEC4D70F71EBEFF011F900005EEF0EFA7
:2001C900A3F0EE4F70DC900005EEF0EFA3F022AF83E582900007F0EFA3F0900007E0FEA329
:2001E900E0FF902692E493FDDDFE1EBEFF011F900007EEF0EFA3F0EE4F70E7900007EEF085
:04020900EFA3F0224D
:03269000990902A3
:20020D00759850438E40538EFE53890F758B8F758DFDC2ABD28E22759850438E40538EFECF
:20022D0053890F758BCC758DFFC2ABD28E22759850438E40538EFE53890F758BA0758DFC34
:20024D00C2ABD28E22759850438E40538EFE53890F758BB8758DFFC2ABD28E227598504322
:20026D008E40538EFE53890F758B70758DFCC2ABD28E22759850438E40538EFE53890F75CF
:20028D008B40758DFCC2ABD28E22759850438E40538EFE53890F758BB0758DFFC2ABD28EE3
:0102AD00222E
:102693003031323334353637383941424344454695
:2002AE0074F755B24408F5B253B1F753B2FB53B1FBC2B322900009E4F0A3F0A3F0A3F09084
:2002CE00000D7420F074A1A3F07407A3F0E4A3F030B24090000DE024FFFCA3E034FFFDA33E
:2002EE00E034FFFEA3E034FFFF90000DECF0EDA3F0EEA3F0EFA3F090000DE0F5F0A3E04207
:20030E00F0A3E042F0A3E045F070C590FFFF74FFF5F0227F00BF18005052D2B300000000B8
:20032E0000900009E0FBA3E0FCA3E0FDA3E0FEEB2BFBEC33FCED33FDEE33FE900009EBF0DF
:20034E00ECA3F0EDA3F0EEA3F030B216900009E02401F0A3E03400F0A3E03400F0A3E03484
:20036E0000F0C2B300000000000F80A9D2B30000C2B30000900009E0FCA3E0FDA3E0FEA3BF
:20038E00E0EE30E70F900009ECF0EDA3F0EEA3F074FFA3F0900009E0FCA3E0FDA3E0FEA3C6
:2003AE00E08C828D838EF022E582900011F0900012E4F0A3F0A3F0A3F0900011E0FF75086D
:2003CE0000750900C3E5099F5046C0071202C2A982AA83ABF0FCD007B9FF0BBAFF08BBFF0A
:2003EE0005BCFF028026C007900012E0F8A3E0FDA3E0FEA3E0FF900012E928F0EA3DA3F066
:20040E00EB3EA3F0EC3FA3F00508D007050980B4E508700890FFFF74FFF5F022AC087D0090
:20042E007E007F00900012E0F8A3E0F9A3E0FAA3E0FB9001A7ECF0EDA3F0EEA3F0EFA3F029
:0A044E00888289838AF0EB02212FD7
:20045800AF83E582900039F0EFA3F090003B74FFF0A3F0900039E0FEA3E0FF900038E0FD21
:200478007C00C3EC9D5059EC2EF582E43FF583E0FB7A0090003BE06BF0A3E06AF07B009084
:20049800003BE0F9A3E0FAE930E01DC0058900EAC313C813C8FD6300016305A090003BE8D0
:2004B800F0EDA3F0D005800FEAC313C913C9FA90003BE9F0EAA3F00BBB080040C20C80A2D2
:2004D80090003BE0FEA3E08E82F58322AF83E58290003DF0EFA3F090003DE0FEA3E0FF7DAC
:2004F80000ED75F014A424A3FB742635F0FC8B828C83E493F9A3E493FAE9B5060DEAB50766
:20051800097A808B828C838AF0220DBD220040D190000075F00022AF83E58290003FF0EFAD
:20053800A3F090003FE0FEA3E0FF8E828F83A3A3E0FC7D008E828F83A3A3A3E07A00420574
:20055800EA42048D828C83C007C0061204E4AB82AC83ADF0D006D007EB4C7001228E828F9F
:2005780083E0900016F09000177403F0042BFAE43CFE8D078A828E838FF0122623FFBF01CB
:20059800028003BF033B74052BFAE43CFE8D078A828E838FF0122623FAA3122623FE8A8278
:2005B8008E83E0FEA3E0FF9000187402F08F02900019EAF090001AEEF09000417405F0804E
:2005D8004B74052BFBE43CFC8B828C838DF0122623FBA3122623FC8B828C83E0FCA3E0FD9C
:2005F800A3E0FEA3E0FF9000187404F08F03900019EBF08E0390001AEBF08D0390001BEB7E
:20061800F090001CECF09000417407F0900041E0FF900038F0900016C007120458AD82AEEE
:2006380083D007900041EF04F0EF2416F582E43400F5838D07EFF0900041E0FF04F0EF243A
:2006580016F582E43400F5838E05EDF0900041E0900193F090001675F000021E4AAF83E5A4
:2006780082900042F0EFA3F0900042E0FEA3E0FF8E828F83A3A3E0FC7D008E828F83A3A341
:20069800A3E07A004205EA42048D828C83C007C0061204E4AB82AC83ADF0D006D007EB4C4C
:2006B80070012274042BF8E43CF98D02888289838AF0122623FABA01028003BA0342C00365
:2006D800C004C005900042E0F9A3E0FA740729F582E43AF583E0FD7800740829F582E43A11
:2006F800F583E07B004200EB4205900044E8F0EDA3F0E4A3F0A3F0D005D004D00302079848
:20071800C003C004C00574072EF582E43FF583E0F87D00880D8D0A8D0B8D0C74082EF582E7
:20073800E43FF583E0FA7B008B058A04E4420AEB420BEC420CED420D74092EF582E43FF57B
:2007580083E0F879007C008C05890488017800E50C4204E50D4205740A2EF582E43FF583E4
:20077800E0FF7E007B007A00900044EF48F0EE49A3F0EB4CA3F0EA4DA3F0D005D004D0033A
:2007980074052BFBE43CFC8B828C838DF0122623FBA3122623FC7F00900044E0F9A3E0FAF4
:2007B800A3E0FDA3E0FE90011DE9F0EAA3F0EDA3F0EEA3F08B828C838FF012175490004231
:2007D800E0FEA3E0FF8E828F83E0900016F09000177410F08E828F83A3A3E0900018F08E80
:2007F800828F83A3A3A3E0900019F08E828F83A3A3A3A3E090001AF08E828F83A3A3A3A315
:20081800A3E090001BF09000387406F0900016120458AE82AF838E0590001CEDF08F0690B9
:20083800001DEEF09001937408F090001675F000021E4A9001D4E07001229001D4E4F090FF
:20085800012BE0FFBF0107900049E4F0801CEF701090012CE0FFBF01089000497401F080D4
:20087800097582E1121AD60209AF900049E0FF242BFDE43401FE8D828E83A3E0FCBC033D0D
:200898009001D3E0FA7B008F007900EAC398FAEB99FBC3EA9408EB6480948050187582E254
:2008B800C007121AD6D0079001D3E0C39FF582121AD60209AF9000487406F08037BC102BB7
:2008D8009001D3E0FBE4FCFAEBC39FFBEC9AFCC3EB940DEC6480948050097582E3121AD6B5
:2008F8000209AF900048740BF080097582E4121AD60209AF900048E0FF900038F08D828EB3
:2009180083C007C006C005120458AB82AC83D005D006D0078B02EF2DF582E43EF583E0F90B
:20093800EAB501198C037C000FBF00010CEF2DF582EC3EF583E0FFEBB5070280087582E5DF
:20095800121AD680528D828E83A3A3E0FC7F008D828E83A3A3A3E07A004207EA42048F82FD
:200978008C83C006C0051204E4AB82AC83D005D006EB4C70087582E6121AD6801A8D828EFF
:2009980083A3E0FFBF03098D828E8312052F80078D828E83120675C2AC9001D3E4F0D2ACB1
:0109B800221C
:2009B9001202C2AC82AD83AEF0FF9001C7ECF0EDA3F0EEA3F0EFA3F09001CFE4F0A3F0A32C
:2009D900F0A3F09001CDF0A3F09001CBF0A3F022AF82AE83ADF0FC90004AEFF0EEA3F0ED77
:2009F900A3F0ECA3F090007FE0FCA3E0FDA3E0FEA3E0FFC3EC9402ED9400EE9400EF648043
:200A190094805007900000E4F5F02290004EE4F090004AE0F8A3E0F9A3E0FAA3E0FBC0003C
:200A3900C001C002C003ECF50E14FB90004EE0F50FC39BD003D002D001D000505FC004C0C0
:200A590005C006C007AF0F0FC2D575F004EF30E704B2D5F404A430D50AF42401C5F0F434EC
:200A790000C5F02483F582740035F0F583E0FCA3E0FDA3E0FEA3E0FFC3E89CE99DEA9EEBDA
:200A990064808FF063F08095F0D007D006D005D004400990004EE50F04F080821CBCFF093B
:200AB9001DBDFF051EBEFF011F90004EE0F879007A007B00C3E89CE99DEA9EEB64808FF07D
:200AD90063F08095F04008E50E24FE90004EF090004EE0FF75F004A4FDAEF02483F582EE09
:200AF9003400F583E0F9A3E0FAA3E0FBA3E0FC90004FE9F0EAA3F0EBA3F0ECA3F0ED24A7F4
:200B1900F582EE3400F583E0F510A3E0F511A3E0F512A3E0F513900057E510F0E511A3F0D3
:200B3900E512A3F0E513A3F00FC2D575F004EF30E704B2D5F404A430D50AF42401C5F0F47A
:200B59003400C5F0FFAEF02483F582EE3400F583E0F514A3E0F515A3E0F516A3E0F517901B
:200B79000053E514F0E515A3F0E516A3F0E517A3F0EF24A7F582EE3400F583E0F518A3E03B
:200B9900F519A3E0F51AA3E0F51B90005BE518F0E519A3F0E51AA3F0E51BA3F0E9B51418B1
:200BB900EAB51514EBB51610ECB5170C8510828511838512F0E5132290004AE0F8A3E0FDC7
:200BD900A3E0FEA3E0FFE8C399F8ED9AFDEE9BFEEF9C88828D838EF0C004C003C002C00185
:200BF90012234085821C85831D85F01EF51FE518C39510F8E5199511FDE51A9512FEE51BD6
:200C1900951388828D838EF0122340A882AD83AEF0FFC000C005C006C007851C82851D83B5
:200C3900851EF0E51F12208CA882AD83AEF0FFE58124FCF581D001D002D003D004E514C34D
:200C590099F9E5159AFAE5169BFBE5179C89828A838BF0C007C006C005C000122340A982ED
:200C7900AA83ABF0FCD000D005D006D007C001C002C003C00488828D838EF0EF122560AC71
:200C990082AD83AEF0FFE58124FCF5818C828D838EF0EF12236DAC82AD83AEF0FFEC2510A7
:200CB900FCED3511FDEE3512FEEF35138C828D838EF02290006F7478F07456A3F07434A344
:200CD900F07412A3F01202C2AC82AD83AEF0FF90005FECF0EDA3F0EEA3F0EFA3F0BCFF0A0E
:200CF900BDFF07BEFF04BFFF012290006FECF0EDA3F0EEA3F0EFA3F09000D3E0F8A3E0F961
:200D1900A3E0FAA3E0FB9000D3E0F5F0A3E042F0A3E042F0A3E045F070119001C7ECF0EDD3
:200D3900A3F0EEA3F0EFA3F0020E2B9001C7E0F520A3E0F521A3E0F522A3E0F523ECC3956A
:200D590020F524ED9521F525EE9522F526EF9523F527900067E524F0E525A3F0E526A3F0D6
:200D7900E527A3F09000D7E0F528A3E0F529A3E0F52AA3E0F52BC3E5289524E5299525E53B
:200D99002A9526E52B64808527F063F08095F04038C000C001C002C003C3E49528F8E4951A
:200DB90029F9E4952AFAE4952BFBC3E52498E52599E5269AE52764808BF063F08095F0D07D
:200DD90003D002D001D00050109001C7ECF0EDA3F0EEA3F0EFA3F0803988F005F0A824A9D2
:200DF90025AA26E527FB3392D2800EA2D2EB13FBEA13FAE913F9E813F8D5F0EF9001C7E879
:200E19002520F0E93521A3F0EA3522A3F0EB3523A3F09001C7E0FCA3E0FDA3E0FEA3E08CC4
:200E3900828D838EF01209E9AC82AD83AEF0FF90007BE0F8A3E0F9A3E0FAA3E0FBE82CFC20
:200E5900E93DFDEA3EFEEB3FFF900063ECF0EDA3F0EEA3F0EFA3F09000EFE0F528A3E0F5C1
:200E790029A3E0F52AA3E0F52BC374019528E49529E4952A7480852BF063F08095F0400382
:200E9900020FFBEF30E703020F48C000C001C002C0039001A77402F0E4A3F0A3F0A3F08505
:200EB9002882852983852AF0E52BC007C006C005C00412212FA882A983AAF0FBD004D00583
:200ED900D006D007E82CF8E93DF9EA3EFAEB3FFB9001A7E528F0E529A3F0E52AA3F0E52B52
:200EF900A3F0888289838AF0EB12212FA882A983AAF0FB9001BEE528F0E529A3F0E52AA3DF
:200F1900F0E52BA3F0888289838AF0EB1223FAA882A983AAF0FB900063E8F0E9A3F0EAA3BC
:200F3900F0EBA3F0D003D002D001D000020FFBC000C001C002C0039001A77402F0E4A3F0BD
:200F5900A3F0A3F0852882852983852AF0E52BC007C006C005C00412212FA882A983AAF0DB
:200F7900FBD004D005D006D007ECC398FCED99FDEE9AFEEF9BFF9001A7E528F0E529A3F05C
:200F9900E52AA3F0E52BA3F08C828D838EF0EFC003C002C001C00012212FAC82AD83AEF004
:200FB900FF9001BEE528F0E529A3F0E52AA3F0E52BA3F08C828D838EF0EF1223FAAC82AD52
:200FD90083AEF0FFD000D001D002D003900063ECF0EDA3F0EEA3F0EFA3F0D003D002D001CA
:200FF900D000900063E0FCA3E0FDA3E0FEA3E0FF900073ECF0EDA3F0EEA3F0EFA3F09000C4
:20101900E3E0F528A3E0F529A3E0F52AA3E0F52BC3E49528E49529E4952A7480852BF06351
:20103900F08095F04003021110C000C001C002C003C3E49528F8E49529F9E4952AFAE49529
:201059002BFBC3E89CE99DEA9EEB64808FF063F08095F0D003D002D001D0004003021109B1
:20107900C3EC9528ED9529EE952AEF6480852BF063F08095F05079C000C001C002C0039069
:2010990001CBE02401F0A3E03400F09000DFE0FAA3E0FB9001BCEAF0EBA3F090000AC00702
:2010B900C006C005C004C001C0001223DAAA82AB83D000D001D004D005D006D0079001CB8B
:2010D900E0F8A3E0F9C3EA98EB99D003D002D001D000502390007BE8C39CF0E99DA3F0EADC
:2010F9009EA3F0EB9FA3F09001CBE4F0A3F080079001CBE4F0A3F09001CFE0F8A3E0F9A325
:20111900E0FAA3E0FBECC398F8ED99F9EE9AFAEF9BFB90006BE8F0E9A3F0EAA3F0EBA3F04F
:201139009000EBE0F528A3E0F529A3E0F52AA3E0F52BC004C005C006C007C3E49528FCE4DE
:201159009529FDE4952AFEE4952BFFC3E89CE99DEA9EEB64808FF063F08095F0D007D006CF
:20117900D005D004406DE52898E52999E52A9AE52B64808BF063F08095F040579001CDE06F
:20119900FAA3E0FB8A008B01C3E894D0E99407500B9001CD74012AF0E43BA3F09000E7E0C4
:2011B900FAA3E0FB9001BCEAF0EBA3F090000A1223DAAA82AB839001CDE0F8A3E0F9C3E899
:2011D9009AE99B402D9001037401F0E4A3F0A3F0A3F0229001CFECF0EDA3F0EEA3F0EFA3E4
:2011F900F09001CDE4F0A3F0900103F0A3F0A3F0A3F022900103E0F5F0A3E042F0A3E042EF
:20121900F0A3E045F0700475820122900073E0FCA3E0FDA3E0FEA3E0FF90007BE0F8A3E0B7
:20123900F9A3E0FAA3E0FB90007BE8C39CF0E99DA3F0EA9EA3F0EB9FA3F09001CBE4F0A33B
:08125900F012126175820022FF
:0C29B0000000000000000000000000001B
:0500E500900127E4F08A
:2012610075F516747F55C74480F5C7C2AFE4F5C3F5C474FC55C54403F5C575C65A75C6A598
:20128100000053C5FCD2AF7F00EF75F014A424A3FD742635F0FC7E80900112EDF0ECA3F0B1
:2012A100EEA3F074132DF9E43CFA8E0389828A838BF012262330E70302142274042DF9E492
:2012C1003CFA8E0389828A838BF0122623FB703074052DF8E43CF98E02888289838AF012D4
:2012E1002623F8A3122623F988828983E090010EF0E4A3F0A3F0A3F090010D04F00213816B
:20130100BB01028003BB033F900112E0F9A3E0FAA3E0FB740529F9E43AFA89828A838BF0D1
:20132100122623F9A3122623FA89828A83E0FAA3E0FB90010EEAF0EBA3F0E4A3F0A3F0905F
:20134100010D7402F0803974052DFDE43CFC8D828C838EF0122623FDA3122623FC8D828C17
:2013610083E0FBA3E0FCA3E0FDA3E0FE90010EEBF0ECA3F0EDA3F0EEA3F090010D7404F08E
:2013810090010EE0F53BA3E0F53CA3E0F53DA3E0F53E900112E0F8A3E0F9A3E0FA7402286C
:2013A100F8E439F990010DE0F539753A00C3E53A9539506DC007E53AC40354F8F5F005F083
:2013C100AC3BAD3CAE3DAF3E800DC3EF13FFEE13FEED13FDEC13FCD5F0F08CC2C2AF88829E
:2013E10089838AF0122623FEA3122623FFAD3A7C00ED2EFEEC3FF5C3888289838AF01226E9
:2014010023FF253AF5C474FC55C54402F5C575C65A75C6A5000053C5FCD2AF053AD0078067
:201421008C0FBF2200500302128A53C77F22AFF0AE83E582900115F0EEA3F0EFA3F0900122
:2014410018E4F0A3F0A3F0A3F0900115E0FDA3E0FEA3E0FF74132DFAE43EFB8F048A828B6B
:20146100838CF012262330E7012274042DFDE43EFE8D828E838FF0122623FF600ABF0102F0
:20148100800DBF0312800890011C7401F0800E90011C7402F0800690011C7404F075F51694
:2014A100747F55C74480F5C7900115E0FDA3E0FEA3E0FF74022DFDE43EFE90011CE0FC7B52
:2014C10000C3EB9C400302154FC004C2AF8D828E838FF0122623F9A3122623FA8B007C00F1
:2014E100E829F9EC3AFA8AC38D828E838FF0122623FC2BF5C474FC55C54401F5C575C65A7C
:2015010075C6A5000053C5FCD2AF85C239E4F53AF53BF53CEBC40354F8F5F005F0A839A9FF
:201521003AAA3BAC3C800CE828F8E933F9EA33FAEC33FCD5F0F1900118E048F0A3E049F095
:20154100A3E04AF0A3E04CF00BD0040214C253C77F900115E0FDA3E0FEA3E0FF74042DFD96
:20156100E43EFE8D828E838FF0122623FFBF0318900118E0FDA3E0FE900118EDF0EEA3F069
:20158100EE3395E0A3F0A3F0BF0400900115E0FDA3E0FEA3E0FF740B2DFCE43EFA8F038C63
:2015A100828A838BF0122623F9A3122623FAA3122623FBA3122623FC900118E0F539A3E0A7
:2015C100F53AA3E0F53BA3E0F53CC3E53999E53A9AE53B9BE53C9C402F740F2DFDE43EFE8D
:2015E1008D828E838FF0122623FDA3122623FEA3122623FFA3122623FCC3ED9539EE953AC5
:20160100EF953BEC953C5039900115E0FDA3E0FEA3E0FF74072DFDE43EFE8D828E838FF0DA
:20162100122623FDA3122623FEA3122623FFA3122623FC900118EDF0EEA3F0EFA3F0ECA346
:20164100F0900115E0FDA3E0FEA3E0FF74042DFAE43EFB8F048A828B838CF0122623FC7067
:201661002274052DF9E43EFA8F0389828A838BF0122623F9A3122623FA900118E089828AFD
:2016810083F022BC012A74052DF9E43EFA8F0389828A838BF0122623F9A3122623FA900110
:2016A10018E0F8A3E0FB89828A83E8F0EBA3F022BC032A74052DF9E43EFA8F0389828A83DD
:2016C1008BF0122623F9A3122623FA900118E0F8A3E0FB89828A83E8F0EBA3F022BC023CB9
:2016E10074052DF9E43EFA8F0389828A838BF0122623F9A3122623FA89398A3A900118E0AE
:20170100F9A3E0F8A3E0FAA3E0FB853982853A83E9F0E8A3F0EAA3F0EBA3F022BC043374FF
:20172100052DFDE43EFE8D828E838FF0122623FDA3122623FE900118E0FAA3E0FBA3E0FCE6
:20174100A3E0FF8D828E83EAF0EBA3F0ECA3F0EFA3F022AFF0AE83E582900121F0EEA3F011
:20176100EFA3F0900124E4F0A3F0A3F0FFEF75F014A424A3FD742635F0FE8D828E83A3A345
:20178100A3A3A3E493FBA3E493FC900121E0F9A3E0FAEBB50112ECB5020E900124EDF0EEEB
:2017A100A3F07480A3F080060FBF220040BF900124E0FDA3E0FEA3E0FFED4E70047582015D
:2017C1002274132DFAE43EFB8F048A828B838CF012262330E0047582022274042DFAE43EA7
:2017E100FB8F048A828B838CF0122623FC702374052DF9E43EFA8F0389828A838BF01226C2
:2018010023F9A3122623FA90011DE089828A83F0806FBC01028003BC0334900124E0FAA3C7
:20182100E0FBA3E0FC74052AFAE43BFB8A828B838CF0122623FAA3122623FB90011DE0F92B
:20184100A3E0FC8A828B83E9F0ECA3F0803374052DFDE43EFE8D828E838FF0122623FDA386
:20186100122623FE90011DE0FAA3E0FBA3E0FCA3E0FF8D828E83EAF0EBA3F0ECA3F0EFA37E
:20188100F0900124E0FDA3E0FEA3E0FF74132DFDE43EFE8D828E838FF012262320E70312DB
:2018A1001261758200227F00EF75F014A424A3FD742635F0FE7C808D828E838CF0C007121E
:2018C100142FD0070FBF220040DE22900127E0600B90294B75F080121B5F80FE900127749B
:2018E10001F090293775F08012142F90010BE0FEA3E0FFBEAA0FBF550C90296375F0801226
:201901001B5F0218A790298475F080121B5F0219127F00EF75F014A424A3FD742635F0FCA6
:201921007E80900128EDF0ECA3F0EEA3F074042DF9E43CFA8E0389828A838BF0122623FBE0
:20194100703CC00774052DF8E43CF98E02888289838AF0122623F8A3122623F9882C892D88
:2019610074072DF9E43CFA8E0789828A838FF0122623852C82852D83F0D007021A1FBB01FE
:20198100028003BB0351C007900128E0F52EA3E0F52FA3E0F5307405252EF8E4352FFBAF2A
:2019A1003088828B838FF0122623F8A3122623FB7407252EF9E4352FFAAF3089828A838F84
:2019C100F0122623F9A3122623FA88828B83E9F0EAA3F0D007804774052DF9E43CFA8E0374
:2019E10089828A838BF0122623F9A3122623FA74072DFDE43CFC8D828C838EF0122623FD52
:201A0100A3122623FCA3122623FEA3122623FB89828A83EDF0ECA3F0EEA3F0EBA3F00FBF95
:0A1A210022005003021914021261A2
:2026A300000000000473000000000000000080FFFFFF7F80020004000477000100000001A1
:2026C300000000FE0000000004000800047B000000000000000080FFFFFF7F0006000C0060
:2026E300047F0002000000020000000900000000080010000483000000000000000080FF29
:20270300FFFF7F000A0014000487000000000000000080FFFFFF7F000C001800048B0000E1
:2027230000000000000080FFFFFF7F000E001C00048F000000000000000080FFFFFF7F00E1
:20274300100020000493000000000000000080FFFFFF7F00120024000497000000000000E2
:20276300000080FFFFFF7F0014002800049B000000000000000080FFFFFF7F0016002C0041
:20278300049F000000000000000080FFFFFF7F001800300004A3000000000000000080FF29
:2027A300FFFF7F001A00340004A7000000000000000080FFFFFF7F001C00380004AB0000A1
:2027C30000000000000080FFFFFF7F001E003C0004AF000000000000000080FFFFFF7F00F1
:2027E3002000400004B3000000000000000080FFFFFF7F002200440004B7000000000000A2
:20280300000080FFFFFF7F002400480004BB000000000000000080FFFFFF7F0026004C0020
:2028230004BF000000000000000080FFFFFF7F002800500004C3000000000000000080FF18
:20284300FFFF7F002A00540004C7000000000000000080FFFFFF7F003400580004CB000058
:2028630000000000000000010000000056005C0004D30002000000000000000500000000C4
:202883005800600004D7000A00000000000000E8030000005A00640004DB0003000000000D
:2028A3000000000A000000005C00680004DF00000000000000000032000000005E006C0068
:2028C30004E300000000000000000010270000006000700004E700010000000100000032E8
:2028E300000000006200740004EB00010000000100000064000000006400780004EF0001DA
:2029030000000001000000FA0000000066007C0004F30000000000000000000400000000DC
:20292300401FFFFF046F000000000000000080FFFFFF7F81F01F8000010B01AA55000000AC
:20294300000000FFFF0000015245475F494E49542043414C4C454420414741494E0D0A00A8
:2029630056616C696420436F6E66696720466F756E642E204C6F6164696E672E2E2E0D0A25
:20298300004E6F20436F6E66696720466F756E642E20496E697469616C697A696E67204448
:0D29A300656661756C74732E2E2E0D0A0092
:201A2B00759850438E01438E0475D6FD75D7C0438E1053A23F5389F0438E80758C20758AF1
:201A4B0000C28DD2A9C28C22C28C758C20758A00C28DD28C22C0E0C082C083C007C006C092
:201A6B0005C0D075D00030983690016BE599F0C2989001D3E0FFBF400050189001D3E0FFD2
:201A8B0004F0EF242BFFE43401FE90016BE08F828E83F0C28C758C20758A00C28DD28CD01A
:201AAB00D0D005D006D007D083D082D0E032C0E0C082C083C28CC28D9001D3E06006900145
:201ACB00D47401F0D083D082D0E032E58290016CF0C29990016CE0F59910990280FB22AF2A
:201AEB00F0AE83E58290016FF0EEA3F0EFA3F0C2AC90016FE0FDA3E0FEA3E0FF90016DE034
:201B0B00FBA3E0FC8B018C021BBBFF011CE94A60358D828E838FF0122623FAA3AD82AE8375
:201B2B0090016FEDF0EEA3F0EFA3F08A82C007C006C005C004C003121AD6D003D004D00557
:201B4B00D006D00780BE90016FEDF0EEA3F0EFA3F0D2AC22AFF0AE83E582900172F0EEA354
:201B6B00F0EFA3F0900172E0FDA3E0FEA3E0FF8D828E838FF0122623FC60230DBD00010EB3
:201B8B00900172EDF0EEA3F0EFA3F08C82C007C006C005121AD6D005D006D00780D1900191
:201BAB0072EDF0EEA3F0EFA3F022AF83E582900175F0EFA3F0900175E0F5F0A3E045F070A2
:201BCB0006758230021AD67F00900175E0FDA3E0FE900175E0F5F0A3E045F0605BEFFB339D
:201BEB0095E0FC0FEB2477FBEC3401FC9001C2740AF0E4A3F08D828E83C007C006C005C052
:201C0B0004C003122466A982D003D004D005D0067430298B828C83F0900197740AF0E4A3E3
:201C2B00F08D828E83121EC0AD82AE83D007900175EDF0EEA3F080911FEF20E7188F06EE3D
:201C4B002477F582E43401F583E0F582C007121AD6D00780E322AF82AE83ADF0FC90017D51
:201C6B00EFF0EEA3F0EDA3F0ECA3F090017DE0FCA3E0FDA3E0FEA3E0FF30E73375822DC05F
:201C8B0007C006C005C004121AD6D004D005D006D007C3E49CF8E49DF9E49EFAE49FFB904C
:201CAB00018DE8F0E9A3F0EAA3F0EBA3F0800E90018DECF0EDA3F0EEA3F0EFA3F090018D13
:201CCB00E0F5F0A3E042F0A3E042F0A3E045F07006758230021AD675330090018DE0FBA33F
:201CEB00E0FCA3E0FDA3E0FEEB4C4D4E6075E533F93395E0FA0533E92481F531EA3401F5A2
:201D0B003290019E740AF0E4A3F0A3F0A3F08B828C838DF0EEC006C005C004C003121F4D35
:201D2B00A882D003D004D005D006743028853182853283F09001AF740AF0E4A3F0A3F0A393
:201D4B00F08B828C838DF0EE122219AC82AD83AEF0FF90018DECF0EDA3F0EEA3F0EFA3F03C
:201D6B00021CE5AF331FEF20E7188F06EE2481F582E43401F583E0F582C007121AD6D0071F
:201D8B0080E322A298E433F582229001D3E060FAC2AC90012BE0FF9001D3E4F0D2AC8F825B
:201DAB002243BA804392025391FD5392FE5391FE43B21053B1EF759A5053B0EF43AF01229E
:201DCB00C0E0C082C083C007C006C005C0D075D00043BA80E59A30E037900191E59BF05384
:201DEB009AFE9001D3E0FFBF400050189001D3E0FF04F0EF242BFFE43401FE900191E08F7A
:201E0B00828E83F0C28C758C20758A00C28DD28CE59A30E103539AFDD0D0D005D006D0077A
:201E2B00D083D082D0E032E582900192F043BA80900192E0F59BE59A30E1FB539AFD22AF40
:201E4B00F0AE83E582900194F0EEA3F0EFA3F043B010900194E0FDA3E0FEA3E0FF900193AB
:201E6B00E0FC8C031CEB60318D828E838FF0122623FBA3AD82AE83900194EDF0EEA3F0EFEA
:201E8B00A3F08B82C007C006C005C004121E32D004D005D006D00780C9900194EDF0EEA3ED
:151EAB00F0EFA3F07E707F171EBEFF011FEE4F70F753B0EF2279
:0229BC00000019
:201EC000AF83E582900199F0EFA3F090019BE4F0A3F0900197E0FEA3E0FF7D10900199E01B
:201EE000FBA3E0FC90019D235401F0EB2BFBEC33FC900199EBF0ECA3F090019BE0FBA3E098
:201F0000FCEB2BFBEC33FC90019BEBF0ECA3F090019DE0600890019BE043E001F090019B51
:201F2000E0FBA3E0FCC3EB9EEC9F401390019BEBC39EF0EC9FA3F0900199E043E001F0DD9C
:0D1F40009B900199E0FEA3E08E82F58322C4
:201F4D00AF82AE83ADF0FC9001A2EFF0EEA3F0EDA3F0ECA3F09001A6E4F09001A2E0FCA32A
:201F6D00E0FDA3E0FEA3E0FF7B0090019EE0F539A3E0F53AA3E0F53BA3E0F53C23540170BB
:201F8D0074C003E5392539F8E53A33F9E53B33FAE53C33FB90019EE8F0E9A3F0EAA3F0EBB7
:201FAD00A3F090019EE0F539A3E0F53AA3E0F53BA3E0F53CC3EC9539ED953AEE953BEF95B0
:201FCD003CD0035027E53CC313F53CE53B13F53BE53A13F53AE53913F53990019EF0E53AE5
:201FED00A3F0E53BA3F0E53CA3F080090B9001A6EBF0021F779001A6E0FF9001A2E0FBA3D5
:20200D00E0FCA3E0FDA3E0FE90019EE0F539A3E0F53AA3E0F53BA3E0F53CC3EB9539EC9583
:20202D003AED953BEE953C40179001A2EBC39539F0EC953AA3F0ED953BA3F0EE953CA3F0F7
:20204D0090019EE0FBA3E0FCA3E0FDA3E0C313FEED13FDEC13FCEB1390019EF0ECA3F0ED92
:1F206D00A3F0EEA3F08F061FEE708F9001A2E0FCA3E0FDA3E0FEA3E08C828D838EF0224E
:20208C001221EBBC0003022532EF60FA30D502B2D1E583B4FF03022548E582B4FF0302255A
:2020AC0048258340072482400B0225322483145003022548F582EA8DF0A4A8F0EA8EF0A4F0
:2020CC0028F8E435F0F9EB8DF0A428E935F0F9E433CA8FF0A429F9EA35F0FAEBF88EF0A463
:2020EC0029F9EA35F0FAE433FBEC8DF0A429F9EA35F0FAE43BFBE88FF0A42AFAEB35F0FB0B
:20210C00E433CCFD8EF0A42AFAEB35F0FBE43CFCED8FF0A42BFBEC35F0FC20E70312230DD7
:03212C0002251178
:20212F00AF82AE83ADF0FC9001ABEFF0EEA3F0EDA3F0ECA3F09001ABE0FCA3E0FDA3E0FEE1
:20214F00A3E0FF30E70FC3E49CF8E49DF9E49EFAE49FFB80088C008D018E028F039001A71D
:20216F00E0FCA3E0FDA3E0FEA3E0FF33E433F5346013C3E49CF535E49DF536E49EF537E460
:20218F009FF53880088C358D368E378F389001AFE535F0E536A3F0E537A3F0E538A3F088ED
:2021AF008289838AF0EB122219AC82AD83AEF0FF9001ABE0A3E0A3E0A3E033E433653460ED
:1C21CF0013C3E49CF8E49DF9E49EFAE49F888289838AF0228C828D838EF0EF22CE
:2021EB00AA82AB83A2F73392D1F5826002D2F7ACF0E58124F9F8E6FD08E6FE0886F008E657
:0E220B00A2F73392D5F5836002D2F7AFF0222E
:20221900AF82AE83ADF0FC9001B3EFF0EEA3F0EDA3F0ECA3F09001B7E4F0A3F0A3F0A3F032
:202239009001AFE0FCA3E0FDA3E0FEA3E0FF7B20C0039001B3E0F8A3E0F9A3E0FAA3E0FBF5
:202259009001BB235401F0E828F8E933F9EA33FAEB33FB9001B3E8F0E9A3F0EAA3F0EBA3C1
:20227900F09001B7E0F8A3E0F9A3E0FAA3E0FBE828F8E933F9EA33FAEB33FB9001B7E8F051
:20229900E9A3F0EAA3F0EBA3F0D0039001BBE060089001B7E043E001F09001B7E0F539A312
:2022B900E0F53AA3E0F53BA3E0F53CC3E5399CE53A9DE53B9EE53C9F401F9001B7E539C350
:2022D9009CF0E53A9DA3F0E53B9EA3F0E53C9FA3F09001B3E043E001F01BEB600302224958
:1422F9009001B3E0FCA3E0FDA3E0FEA3E08C828D838EF0226F
:0600BB00E478FFF6D8FD19
:20230D007804EC7011E58224F8500AF582E4C9CACBFCD8EF22EC7820058220E713D58201CF
:13232D0022C3E933F9EA33FAEB33FBEC33FCD8EA158222DD
:20234000FCABF0AA83A982749EF582C2D1EC30E716D2D1E9F42401F9EAF43400FAEBF4349C
:0D23600000FBECF43400FC12230D022511EB
:20236D001223C8C3749E95824039790012263F30D126E9F42401F582EAF43400F583EBF4F5
:20238D003400F5F0ECF43400700AE582458345F0700122E430E70F22EC20E71489828A8347
:1B23AD008BF02230D10AE4F582F583F5F074802274FFF582F583F5F0747F2243
:20009900790EE94400601B7A019029B078C775A001E493F2A308B8000205A0D9F4DAF2755E
:0200B900A0FFA6
:1223C800AA82AB83A2F73392D1F5826002D2F7ACF0221A
:2023DA00AA83AB828BF09001BCE0A4F8A9F08AF0E0A429F98BF0A3E0A429F58388822222FB
:2023FA00A882A983AAF0FB88F09001BEE0A4FCADF089F0E0A42DFDE435F0FE88F0A3E0A427
:20241A002DFDE5F03EFEE433FF89F0E0A42EFEE5F03FFF88F0A3E0A42EFEE5F03FFF8AF0BD
:20243A009001BEE0A42EFEE5F03FFF8BF0E0A42FFF8AF0A3E0A42FFF89F0A3E0A42FFF881E
:0C245A00F0A3E0A42F8EF08D838C822272
:20246600AF83E5829001C4F0EFA3F09001C6E4F09001C4E0FEA3E0FF7D009001C2E0FBA3C8
:20248600E0FC2354017036EB2BFBEC33FC9001C2EBF0ECA3F09001C2E0FBA3E0FCC3EE9B6A
:2024A600EF9C5011ECC313CB13CBFC9001C2EBF0ECA3F080080D9001C6EDF080BD9001C6B9
:2024C600E0FF9001C4E0FDA3E0FE9001C2E0FBA3E0FCC3ED9BEE9C400B9001C4EDC39BF007
:2024E600EE9CA3F09001C2E0FDA3E0C313CD13CDFE9001C2EDF0EEA3F08F061FEE70C3906F
:0B25060001C4E0FEA3E08E82F58322FA
:2000C1007800E84400600A790175A000E4F309D8FC78C6E84401600C7902900001E4F0A374
:0400E100D8FCD9FA74
:20251100B98003EA13B34010EA2401FAE43BFBE43CFC50047C800582BC000EBB000BBA000E
:2025310008E4F5F0F583F58222A2D1E582138CF092F78B838A8222E4F583F58275F080F4CE
:0F255100A2D11322E4F583F58275F0C0747F22C6
:202560001221EB30D502B2D1BF0009BC0003022555022548BC0003022532E583B4FF0BE51E
:2025800082B4FF03022555022532E582B4FF03022548C395835007247F400B022532248085
:2025A000145003022548F582C3ED9AEE9BEF9C40111582C3EA33F9EB33FAEC33FBE433FC6A
:2025C0008005E4CCCBCAF9C08275F019C3E99DEA9EEB9FEC9400D5F002802D400EE99DF95C
:2025E000EA9EFAEB9FFBEC9400FCC3B3E833F8E58233F582E58333F583C3E933F9EA33FABC
:20260000EB33FBEC33FC80C4B3E4F938FAE43582FBE43583FCD082500405827C8012230DE7
:0326200002252967
:0D008C0075813E122682E582600302008924
:1C26230020F71430F6148883A88220F507E6A88375830022E280F7E49322E022C6
:20263F006040F82582500274FFF582E824F8501ECCCBCAF9E4CC24F85014CBCAF9E4CB24A3
:20265F00F8500BCAF9E4CA24F8500379002224086010F8C3EC13FCEB13FBEA13FAE913F956
:03267F00D8F1226D
:04268200758200223B
:00000001FF
