:0300000002004CAF
:200008000000E2FBEAF2802C0000E0FBEAF08024E6B50202EBF62200E2B50202EBF22200DE
:20002800E0B50202EBF02230F6E0A88220F5D3EAC6F582228B822230F6E6A88220F5D980EE
:01004800CFE8
:0300A5000200490D
:0300490002014D64
:2000A800AF83E582900001F0EFA3F0900001E0F5F0A3E045F07006758230020F467F00908B
:2000C8000001E0FDA3E0FE900001E0F5F0A3E045F06055EF2403FBE43400FC0F9000C574F9
:2000E8000AF0E4A3F08D828E83C007C006C005C004C00312158CA982D003D004D005D0065E
:200108007430298B828C83F09000AE740AF0E4A3F08D828E831213D0AD82AE83D0079000FF
:2001280001EDF0EEA3F080978F061FEE6016EF2403F582E43400F583E0F582C007120F4687
:20014800D00780E422120901759850438E01438E0475D6FB75D71E438E10D2995392EF74D6
:20016800EF55914410F59174FD55B24402F5B253B1FD53B2FE74FE55B14401F5B174F05543
:20018800BC4404F5BC74F055DE440FF5DE43DE20747F55BC4480F5BC90006412097143BCAC
:2001A80040E5BC30E5FB53BCDFAFBD53070F8F067F00ACBE7D00EC4207ED420690165775AC
:2001C800F080C007C006120F79D006D0078F828E831200A890166475F080120F799001F4E9
:0501E80012097180B94D
:10165700414443342056616C75653A20000D0A00F9
:2001ED0043BC400000E5BC30E5FB53BCDF85BD822243BC400000E5BC30E5FB53BCDFAFBDE4
:10020D007E00ACBE7D00EC2EFCED3F8C82F5832292
:20021D00E58290000FF043BA8090FE81E0FF74F05F4401F090FE82E030E6F990FE82E05425
:20023D00BFF090000FE054FE90FE86F090FE81E0FF74F05F4402F090FE82E030E6F990FEA9
:20025D0082E054BFF01582E0FF74F05F4403F090FE82E030E6F990FE82E054BFF090000921
:20027D00E090FE86F090FE81E0FF74F05F4402F090FE82E030E6F990FE82E054BFF015820D
:20029D00E0FF74F05F4403F090FE82E030E6F990FE82E054BFF090000AE0FDA3E0FEA3E0FB
:2002BD00FF90000DE0FBA3E0FC8B018C021BBBFF011CE94A60478D828E838FF0121637FA4D
:2002DD00A3AD82AE8390FE86EAF090FE81E0FA74F05A4402F090FE82E030E6F990FE82E044
:2002FD0054BFF01582E0FA74F05A4403F090FE82E030E6F990FE82E054BFF080AC90FE814B
:20031D00E0FF74F05F4406F090FE82E030E6F990FE82E054BFF053BA7F75820022E5829056
:20033D000016F043BA8090FE81E0FF74F05F4401F090FE82E030E6F990FE82E054BFF090B5
:20035D000016E054FE90FE86F090FE81E0FF74F05F4402F090FE82E030E6F990FE82E0540A
:20037D00BFF01582E0FF74F05F4403F090FE82E030E6F990FE82E054BFF0900010E090FE41
:20039D0086F090FE81E0FF74F05F4402F090FE82E030E6F990FE82E054BFF01582E0FF7407
:2003BD00F05F4403F090FE82E030E6F990FE82E054BFF01582E0FF74F05F4401F090FE822A
:2003DD00E030E6F990FE82E054BFF0900016E0440190FE86F090FE81E0FF74F05F4402F068
:2003FD0090FE82E030E6F990FE82E054BFF01582E0FF74F05F4403F090FE82E030E6F990EF
:20041D00FE82E054BFF0900011E0FDA3E0FEA3E0FF900014E0FBA3E0FC8B018C021BBBFFEE
:20043D00011CE94A607190FE81E0FA74F05A4404F090FE82E030E6F990FE82E054BFF0901D
:20045D00FE87E08D828E838FF0121551A3AD82AE83EB4C702190FE82E04401F01582E0FAA2
:20047D0074F05A4405F090FE82E030E6F990FE82E054BFF080A390FE82E054FEF01582E0AA
:20049D00FA74F05A4405F090FE82E030E6F990FE82E054BFF0808290FE81E0FF74F05F4465
:2004BD0006F090FE82E030E6F990FE82E054BFF053BA7F75820022E58290001EF043BA8010
:2004DD0090FE81E0FF74F05F4401F090FE82E030E6F990FE82E054BFF090001EE054FE90B7
:2004FD00FE86F090FE81E0FF74F05F4402F090FE82E030E6F990FE82E054BFF01582E0FF1C
:20051D0074F05F4403F090FE82E030E6F990FE82E054BFF0900017E0FEA3E090FE86F09036
:20053D00FE81E0FD74F05D4402F090FE82E030E6F990FE82E054BFF01582E0FD74F05D44E0
:20055D0003F090FE82E030E6F990FE82E054BFF090FE86EEF090FE81E0FF74F05F4402F0C0
:20057D0090FE82E030E6F990FE82E054BFF01582E0FF74F05F4403F090FE82E030E6F9906D
:20059D00FE82E054BFF0900019E0FDA3E0FEA3E0FF90001CE0FBA3E0FC8B018C021BBBFF5D
:2005BD00011CE94A60478D828E838FF0121637FAA3AD82AE8390FE86EAF090FE81E0FA74E1
:2005DD00F05A4402F090FE82E030E6F990FE82E054BFF01582E0FA74F05A4403F090FE8216
:2005FD00E030E6F990FE82E054BFF080AC90FE81E0FF74F05F4406F090FE82E030E6F99056
:20061D00FE82E054BFF053BA7F75820022E582900026F043BA8090FE81E0FF74F05F440135
:20063D00F090FE82E030E6F990FE82E054BFF0900026E054FE90FE86F090FE81E0FF74F07D
:20065D005F4402F090FE82E030E6F990FE82E054BFF01582E0FF74F05F4403F090FE82E096
:20067D0030E6F990FE82E054BFF090001FE0FEA3E090FE86F090FE81E0FD74F05D4402F064
:20069D0090FE82E030E6F990FE82E054BFF01582E0FD74F05D4403F090FE82E030E6F99050
:2006BD00FE82E054BFF090FE86EEF090FE81E0FF74F05F4402F090FE82E030E6F990FE82D2
:2006DD00E054BFF01582E0FF74F05F4403F090FE82E030E6F990FE82E054BFF01582E0FF42
:2006FD0074F05F4401F090FE82E030E6F990FE82E054BFF0900026E0440190FE86F090FE86
:20071D0081E0FF74F05F4402F090FE82E030E6F990FE82E054BFF01582E0FF74F05F4403F1
:20073D00F090FE82E030E6F990FE82E054BFF0900021E0FDA3E0FEA3E0FF900024E0FBA3F7
:20075D00E0FC8B018C021BBBFF011CE94A607190FE81E0FA74F05A4404F090FE82E030E6AB
:20077D00F990FE82E054BFF090FE87E08D828E838FF0121551A3AD82AE83EB4C702190FE0B
:20079D0082E04401F01582E0FA74F05A4405F090FE82E030E6F990FE82E054BFF080A39098
:2007BD00FE82E054FEF01582E0FA74F05A4405F090FE82E030E6F990FE82E054BFF080821E
:2007DD0090FE81E0FF74F05F4406F090FE82E030E6F990FE82E054BFF053BA7F758200227A
:2007FD00E582900027F0E0FF540124FF92D3EF03540124FF92D422E582900028F074FD554B
:20081D008EFFE025E04FF58E22AFF0AE83E582900029F0EEA3F0EFA3F075BA80900029E02A
:20083D00FDA3E0FEA3E0FF7C00EC2DF9E43EFA8F038C00C005C006C0077F0074E028F8741A
:20085D00FD3FFF88828F83E089828A838BF01215510CBC2000D007D006D00540CC75BA0094
:01087D002258
:20087E00E58290002CF0E0F5CFE5CD30E7FB43CDC085CF8222AFF0AE83E58290002EF0EE44
:20089E00A3F0EFA3F090002EE0FDA3E0FEA3E0FF90002DE0FC8C031CEB603C8D828E838F0D
:2008BE00F0121637F582C007C006C005C00412087EAB82D004D005D006D0078D828E838F74
:2008DE00F0EB121551A3AD82AE8390002EEDF0EEA3F0EFA3F080BE90002EEDF0EEA3F0EFBD
:0308FE00A3F02242
:20090100900031E4F0A3F075BA8090FE01E0601C90FE01E4F0FEFF7D051EBEFF011FEE4FFA
:2009210070F7DDF5900031EEF0EFA3F075BA00759D0075A600759F00759E00900031E0FE3A
:20094100A3E0FF1EBEFF011FEE4F70F722E582900034F0759D00E0F5A6900033E0F59F75FF
:200961009E007E007F001EBEFF011FEE4F70F722AF83E582900035F0EFA3F0900035E0FEA7
:20098100A3E0FF901667E493FC740193FD1CBCFF011DEC4D70F71EBEFF011F900035EEF01C
:2009A100EFA3F0EE4F70DC900035EEF0EFA3F022AF83E582900037F0EFA3F0900037E0FE6D
:2009C100A3E0FF901669E493FDDDFE1EBEFF011F900037EEF0EFA3F0EE4F70E7900037EECB
:0509E100F0EFA3F0227D
:031667006A0A020A
:2009E600AF83E58290003CF0EFA3F090003EE4F07436A3F0746EA3F07401A3F0900039E015
:200A0600701190003E7480F07484A3F0741EA3F0E4A3F090003CE0FEA3E0FF90003EE0FAA2
:200A2600A3E0FBA3E0FCA3E0FD9000B5EEF0EFA3F0E4A3F0A3F08A828B838CF0ED12145D7E
:200A4600AC82AD83AEF0FF90003EECF0EDA3F0EEA3F0EFA3F090003EE0FCA3E0FDA3E0FEBD
:200A6600A3E0FF90003AE0F508A3E0F509A808A9097A007B00C3E89CE99DEA9EEB9F50043C
:200A860090000022AA08AB09EAC39CFAEB9D8A82F58322E582900045F0747F558EFFE0FEE8
:200AA6000354804FF58E74FC5589FF900042E0FD4FF589BD022A900043E0FDA3E0FF900013
:200AC60039EEF090003A74FFF0E4A3F08D828F831209E6AD82AF838D038F048B8C8D8A225F
:200AE600900043E0FDA3E0FF900039EEF090003A74FFF0A3F08D828F831209E6AE82AF83D3
:200B06008E048F058D8C8E8A22E582900049F074BF558EFFE0FE030354C04FF58E74CF55AF
:200B260089FF900046E0FDC454F04FF589BD022A900047E0FDA3E0FF900039EEF090003A0F
:200B460074FFF0E4A3F08D828F831209E6AD82AF838D038F048B8D8D8B22900047E0FDA366
:200B6600E0FF900039EEF090003A74FFF0E4A3F08D828F831209E6AE82AF838E048F058D0E
:200B86008D8E8B22AF83E58290004CF0EFA3F090004EE4F07436A3F0746EA3F07401A3F034
:200BA60090004BE0701190004E7480F07484A3F0741EA3F0E4A3F090004AE0FE7F000EBE07
:200BC60000010F90004CE0FCA3E0FD9000C3ECF0EDA3F08E828F8312156CAE82AF83900071
:200BE6004EE0FAA3E0FBA3E0FCA3E0FD9000B5EEF0EFA3F0E4A3F0A3F08A828B838CF0ED18
:200C060012145DAC82AD83AEF0FF90004EECF0EDA3F0EEA3F0EFA3F090004EE0FCA3E0FDD9
:200C2600A3E0FEA3E0FFC374FF9C74FF9DE49EE49F50049000002274FFC39CFC74FF9D8C54
:200C460082F58322E582900055F0900053E0FEA3E0FF900052E0FD900055E0FC90004AEDAC
:200C6600F090004BECF08E828F83C005C004120B8AAE82AF83D004D00574FB558EFBEC2C05
:200C860025E04BF58E43BA8090FEA2EDF053BA7F8E048F058DD68ED722E58290005AF09084
:200CA6000057E0FEA3E0FF900056E0FD90005AE0FC90004AEDF090004BECF08E828F83C09E
:200CC60005C004120B8AAE82AF83D004D00574FD55D1FBEC2C4BF5D143BA8090FEA3EDF04D
:200CE60053BA7F8E048F058DD48ED574DF55AFFF900059E0C42354E04FF5AF22E582900032
:200D06005FF090005CE0FEA3E0FF90005BE0FD90005FE0FC90004AEDF090004BECF08E8221
:200D26008F83C005C004120B8AAE82AF83D004D00574DF55D1FBECC42354E04BF5D143BAD7
:200D46008090FEA4EDF053BA7F8E048F058DD28ED374BF55AFFF90005EE0030354C04FF52A
:020D6600AF22BA
:200D6800AF82AE83ADF0FC900065EFF0EEA3F0EDA3F0ECA3F0900061E0FCA3E0FDA3E0FE4E
:200D8800A3E0FFEC2CFCED33FDEE33FEEF33FFEC2CFCED33FDEE33FEEF33FF900065E0F81A
:200DA800A3E0F9A3E0FAA3E0FB9000B5ECF0EDA3F0EEA3F0EFA3F0888289838AF0EB12146F
:200DC8005DAC82AD83AEF0FF900069ECF0EDA3F0EEA3F0EFA3F0900060E0702C9000B57436
:200DE8000CF0E4A3F0A3F0A3F08C828D838EF0EF12145DAC82AD83AEF0FF900069ECF0ED87
:200E0800A3F0EEA3F0EFA3F0900069E0FCA3E0FDA3E0FEA3E0FFC374FF9C74FF9DE49EE494
:200E28009F500490000022C3E49CFCE49D8C82F58322E582900070F074FE558EFFE0FE4FC5
:200E4800F58EEE702174BF558EFF90006DE0030354C04FF58E5389CF90006EE0FEA3E0F5AB
:200E68008D8E8BD28E2274FB558EFF90006DE025E025E04FF58E90006EE0FEA3E0F5D68E80
:200E8800D774EF558E4410F58E22E582900076F0C29FD29E900071E0FF900072E0FBA3E0C6
:200EA800FCA3E0FDA3E0FE900060EFF0900061EBF0ECA3F0EDA3F0EEA3F090360075F06E79
:200EC8007401C007120D68AD82AE83D007900076E0FC90006DEFF090006EEDF0EEA3F08C6A
:200EE80082020E3AE58290007CF0D29FD29E900077E0FF900078E0FBA3E0FCA3E0FDA3E08F
:200F0800FE900060EFF0900061EBF0ECA3F0EDA3F0EEA3F090360075F06E7401C007120DBC
:200F280068AD82AE83D00790007CE0FC90006DEFF090006EEDF0EEA3F08C82020E3AE5822B
:200F480090007DF0E0F59910990280FB22E58290007EF0E0FFC4540F90166A93F582C0078A
:200F6800120F46D007740F5F90166A93F582020F46AFF0AE83E58290007FF0EEA3F0EFA38F
:200F8800F090007FE0FDA3E0FEA3E0FF8D828E838FF0121637FC60230DBD00010E90007F05
:200FA800EDF0EEA3F0EFA3F08C82C007C006C005120F46D005D006D00780D190007FEDF0C3
:200FC800EEA3F0EFA3F022AF83E582900082F0EFA3F0900082E0FEA3E0FF8E991099028003
:200FE800FB8E828F8322E582900088F0E0FF900084E0FBA3E0FCA3E0FDA3E0FE900060EF0E
:20100800F0900061EBF0ECA3F0EDA3F0EEA3F090360075F06E7401C007120D68AD82AE83D0
:20102800D00774FB558EFCEF2F25E04CF58E8D048E078FD68DD774EF558E4410F58E22E57E
:2010480082900089F0E0F59BE59A30E1FB539AFD22E58290008AF0E0FFC4540F90166A93DC
:20106800F582C007121047D007740F5F90166A93F582021047AFF0AE83E58290008BF0EE65
:20108800A3F0EFA3F090008BE0FDA3E0FEA3E0FF8D828E838FF0121637FC60230DBD0001F0
:2010A8000E90008BEDF0EEA3F0EFA3F08C82C007C006C005121047D005D006D00780D190F3
:2010C800008BEDF0EEA3F0EFA3F022E582900092F053ACBF900092E0FF90008EE0FBA3E0C7
:2010E800FCA3E0FDA3E0FE900060EFF0900061EBF0ECA3F0EDA3F0EEA3F090360075F06E37
:201108007401C007120D68AD82AE83D00774FB558EFCEF2F25E04CF58E8D048E078FD68D75
:20112800D774EF558E4410F58E22E582900097F074BF55AC4440F5ACE0FF900093E0FBA33A
:20114800E0FCA3E0FDA3E0FE900060EFF0900061EBF0ECA3F0EDA3F0EEA3F090360075F064
:201168006E7401C007120D68AD82AE83D00774FD55D1FCEF2F4CF5D18D048E078FD48DD551
:2011880074F755D14408F5D122E58290009CF05384BF90009CE0FF900098E0FBA3E0FCA339
:2011A800E0FDA3E0FE900060EFF0900061EBF0ECA3F0EDA3F0EEA3F090360075F06E7401A0
:2011C800C007120D68AD82AE83D00774FB558EFCEF2F25E04CF58E8D048E078FD68DD774DF
:2011E800EF558E4410F58E22E5829000A1F074BF55844440F584E0FF90009DE0FBA3E0FC25
:20120800A3E0FDA3E0FE900060EFF0900061EBF0ECA3F0EDA3F0EEA3F090360075F06E749D
:2012280001C007120D68AD82AE83D00774DF55D1FCEFC42354E04CF5D18D048E078FD28D7B
:0A124800D3747F55D14480F5D12204
:20125200E5829000A2F0E5FC20E7FB9000A2E04480F5FCE5FC20E7FB85EC8222E58290005A
:20127200A4F0E5FC20E7FB9000A4E0547FF5FC9000A3E0F5EC22E5829000A8F07582161249
:201292001252AF829000A8E0FE9000A5E0FBA3E0FCA3E0FD8F028A011AE960308E82C007FC
:2012B200C006C005C004C003C002121252A982D002D003D004D005D006D0078B828C838D03
:2012D200F0E9121551A3AB82AC8380CA8F8222E5829000ADF0E0FF9000A9E0FCA3E0FDA384
:2012F200E0FE9000ACE0FB8B021BEA602F8C828D838EF0121637FAA3AC82AD839000A3EAB3
:1D131200F08F82C007C006C005C004C00312126ED003D004D005D006D00780CB22BC
:20132F00759850438E40538EFE53890F758B8F758DFDC2ABD28E22759850438E40538EFE9C
:20134F0053890F758BCC758DFFC2ABD28E22759850438E40538EFE53890F758BA0758DFC01
:20136F00C2ABD28E22759850438E40538EFE53890F758BB8758DFFC2ABD28E2275985043EF
:20138F008E40538EFE53890F758B70758DFCC2ABD28E22759850438E40538EFE53890F759C
:2013AF008B40758DFCC2ABD28E22759850438E40538EFE53890F758BB0758DFFC2ABD28EB0
:0113CF0022FB
:10166A0030313233343536373839414243444546CE
:2013D000AF83E5829000B0F0EFA3F09000B2E4F0A3F09000AEE0FEA3E0FF7D109000B0E0BE
:2013F000FBA3E0FC9000B4235401F0EB2BFBEC33FC9000B0EBF0ECA3F09000B2E0FBA3E051
:20141000FCEB2BFBEC33FC9000B2EBF0ECA3F09000B4E060089000B2E043E001F09000B2F4
:20143000E0FBA3E0FCC3EB9EEC9F40139000B2EBC39EF0EC9FA3F09000B0E043E001F0DD6B
:0D1450009B9000B0E0FEA3E08E82F58322A9
:20145D00AF82AE83ADF0FC9000B9EFF0EEA3F0EDA3F0ECA3F09000BDE4F0A3F0A3F0A3F0F2
:20147D009000B5E0FCA3E0FDA3E0FEA3E0FF7B20C0039000B9E0F8A3E0F9A3E0FAA3E0FBB5
:20149D009000C1235401F0E828F8E933F9EA33FAEB33FB9000B9E8F0E9A3F0EAA3F0EBA381
:2014BD00F09000BDE0F8A3E0F9A3E0FAA3E0FBE828F8E933F9EA33FAEB33FB9000BDE8F011
:2014DD00E9A3F0EAA3F0EBA3F0D0039000C1E060089000BDE043E001F09000BDE0F50AA3FC
:2014FD00E0F50BA3E0F50CA3E0F50DC3E50A9CE50B9DE50C9EE50D9F401F9000BDE50AC38D
:20151D009CF0E50B9DA3F0E50C9EA3F0E50D9FA3F09000B9E043E001F01BEB600302148D73
:14153D009000B9E0FCA3E0FDA3E0FEA3E08C828D838EF02233
:06007B00E478FFF6D8FD59
:200059007900E94400601B7A0090167A78CA75A000E493F2A308B8000205A0D9F4DAF275F4
:02007900A0FFE6
:1B15510020F71130F6138883A88220F509F6A8837583002280FEF280F5F02299
:20156C00AA83AB828BF09000C3E0A4F8A9F08AF0E0A429F98BF0A3E0A429F5838882222271
:20158C00AF83E5829000C7F0EFA3F09000C9E4F09000C7E0FEA3E0FF7D009000C5E0FBA3A9
:2015AC00E0FC2354017036EB2BFBEC33FC9000C5EBF0ECA3F09000C5E0FBA3E0FCC3EE9B4F
:2015CC00EF9C5011ECC313CB13CBFC9000C5EBF0ECA3F080080D9000C9EDF080BD9000C99C
:2015EC00E0FF9000C7E0FDA3E0FE9000C5E0FBA3E0FCC3ED9BEE9C400B9000C7EDC39BF0EA
:20160C00EE9CA3F09000C5E0FDA3E0C313CD13CDFE9000C5EDF0EEA3F08F061FEE70C39053
:0B162C0000C7E0FEA3E08E82F58322E1
:200081007800E84400600A790175A000E4F309D8FC78C9E84400600C7901900001E4F0A3B3
:0400A100D8FCD9FAB4
:0D004C0075810D121653E582600302004914
:1C16370020F71430F6148883A88220F507E6A88375830022E280F7E49322E022C2
:04165300758200227A
:00000001FF
